{
	"contracts/learnMapping.sol": {
		"LearnMapping": {
			"abi": [
				{
					"inputs": [
						{
							"internalType": "uint256",
							"name": "_plantId",
							"type": "uint256"
						}
					],
					"name": "addPlant",
					"outputs": [],
					"stateMutability": "nonpayable",
					"type": "function"
				},
				{
					"inputs": [
						{
							"internalType": "uint256",
							"name": "",
							"type": "uint256"
						}
					],
					"name": "plantOwner",
					"outputs": [
						{
							"internalType": "address",
							"name": "",
							"type": "address"
						}
					],
					"stateMutability": "view",
					"type": "function"
				},
				{
					"inputs": [
						{
							"internalType": "uint256",
							"name": "",
							"type": "uint256"
						}
					],
					"name": "plantWater",
					"outputs": [
						{
							"internalType": "uint8",
							"name": "",
							"type": "uint8"
						}
					],
					"stateMutability": "view",
					"type": "function"
				},
				{
					"inputs": [
						{
							"internalType": "uint256",
							"name": "_plantId",
							"type": "uint256"
						},
						{
							"internalType": "uint8",
							"name": "_water",
							"type": "uint8"
						}
					],
					"name": "waterPlant",
					"outputs": [],
					"stateMutability": "nonpayable",
					"type": "function"
				}
			],
			"devdoc": {
				"kind": "dev",
				"methods": {},
				"version": 1
			},
			"evm": {
				"assembly": "    /* \"contracts/learnMapping.sol\":61:519  contract LearnMapping {... */\n  mstore(0x40, 0x80)\n  callvalue\n  dup1\n  iszero\n  tag_1\n  jumpi\n  revert(0x00, 0x00)\ntag_1:\n  pop\n  dataSize(sub_0)\n  dup1\n  dataOffset(sub_0)\n  0x00\n  codecopy\n  0x00\n  return\nstop\n\nsub_0: assembly {\n        /* \"contracts/learnMapping.sol\":61:519  contract LearnMapping {... */\n      mstore(0x40, 0x80)\n      callvalue\n      dup1\n      iszero\n      tag_1\n      jumpi\n      revert(0x00, 0x00)\n    tag_1:\n      pop\n      jumpi(tag_2, lt(calldatasize, 0x04))\n      shr(0xe0, calldataload(0x00))\n      dup1\n      0x13258069\n      eq\n      tag_3\n      jumpi\n      dup1\n      0x3740662e\n      eq\n      tag_4\n      jumpi\n      dup1\n      0x3a532937\n      eq\n      tag_5\n      jumpi\n      dup1\n      0xe8ea6c10\n      eq\n      tag_6\n      jumpi\n    tag_2:\n      revert(0x00, 0x00)\n        /* \"contracts/learnMapping.sol\":269:401  function addPlant(uint256 _plantId) public {... */\n    tag_3:\n      tag_7\n      0x04\n      dup1\n      calldatasize\n      sub\n      dup2\n      add\n      swap1\n      tag_8\n      swap2\n      swap1\n      tag_9\n      jump\t// in\n    tag_8:\n      tag_10\n      jump\t// in\n    tag_7:\n      stop\n        /* \"contracts/learnMapping.sol\":409:516  function waterPlant(uint256 _plantId, uint8 _water) public {... */\n    tag_4:\n      tag_11\n      0x04\n      dup1\n      calldatasize\n      sub\n      dup2\n      add\n      swap1\n      tag_12\n      swap2\n      swap1\n      tag_13\n      jump\t// in\n    tag_12:\n      tag_14\n      jump\t// in\n    tag_11:\n      stop\n        /* \"contracts/learnMapping.sol\":215:260  mapping(uint256 => address) public plantOwner */\n    tag_5:\n      tag_15\n      0x04\n      dup1\n      calldatasize\n      sub\n      dup2\n      add\n      swap1\n      tag_16\n      swap2\n      swap1\n      tag_9\n      jump\t// in\n    tag_16:\n      tag_17\n      jump\t// in\n    tag_15:\n      mload(0x40)\n      tag_18\n      swap2\n      swap1\n      tag_19\n      jump\t// in\n    tag_18:\n      mload(0x40)\n      dup1\n      swap2\n      sub\n      swap1\n      return\n        /* \"contracts/learnMapping.sol\":129:172  mapping(uint256 => uint8) public plantWater */\n    tag_6:\n      tag_20\n      0x04\n      dup1\n      calldatasize\n      sub\n      dup2\n      add\n      swap1\n      tag_21\n      swap2\n      swap1\n      tag_9\n      jump\t// in\n    tag_21:\n      tag_22\n      jump\t// in\n    tag_20:\n      mload(0x40)\n      tag_23\n      swap2\n      swap1\n      tag_24\n      jump\t// in\n    tag_23:\n      mload(0x40)\n      dup1\n      swap2\n      sub\n      swap1\n      return\n        /* \"contracts/learnMapping.sol\":269:401  function addPlant(uint256 _plantId) public {... */\n    tag_10:\n        /* \"contracts/learnMapping.sol\":346:349  100 */\n      0x64\n        /* \"contracts/learnMapping.sol\":323:333  plantWater */\n      0x00\n        /* \"contracts/learnMapping.sol\":323:343  plantWater[_plantId] */\n      0x00\n        /* \"contracts/learnMapping.sol\":334:342  _plantId */\n      dup4\n        /* \"contracts/learnMapping.sol\":323:343  plantWater[_plantId] */\n      dup2\n      mstore\n      0x20\n      add\n      swap1\n      dup2\n      mstore\n      0x20\n      add\n      0x00\n      keccak256\n      0x00\n        /* \"contracts/learnMapping.sol\":323:349  plantWater[_plantId] = 100 */\n      0x0100\n      exp\n      dup2\n      sload\n      dup2\n      0xff\n      mul\n      not\n      and\n      swap1\n      dup4\n      0xff\n      and\n      mul\n      or\n      swap1\n      sstore\n      pop\n        /* \"contracts/learnMapping.sol\":383:393  msg.sender */\n      caller\n        /* \"contracts/learnMapping.sol\":360:370  plantOwner */\n      0x01\n        /* \"contracts/learnMapping.sol\":360:380  plantOwner[_plantId] */\n      0x00\n        /* \"contracts/learnMapping.sol\":371:379  _plantId */\n      dup4\n        /* \"contracts/learnMapping.sol\":360:380  plantOwner[_plantId] */\n      dup2\n      mstore\n      0x20\n      add\n      swap1\n      dup2\n      mstore\n      0x20\n      add\n      0x00\n      keccak256\n      0x00\n        /* \"contracts/learnMapping.sol\":360:393  plantOwner[_plantId] = msg.sender */\n      0x0100\n      exp\n      dup2\n      sload\n      dup2\n      0xffffffffffffffffffffffffffffffffffffffff\n      mul\n      not\n      and\n      swap1\n      dup4\n      0xffffffffffffffffffffffffffffffffffffffff\n      and\n      mul\n      or\n      swap1\n      sstore\n      pop\n        /* \"contracts/learnMapping.sol\":269:401  function addPlant(uint256 _plantId) public {... */\n      pop\n      jump\t// out\n        /* \"contracts/learnMapping.sol\":409:516  function waterPlant(uint256 _plantId, uint8 _water) public {... */\n    tag_14:\n        /* \"contracts/learnMapping.sol\":502:508  _water */\n      dup1\n        /* \"contracts/learnMapping.sol\":479:489  plantWater */\n      0x00\n        /* \"contracts/learnMapping.sol\":479:499  plantWater[_plantId] */\n      0x00\n        /* \"contracts/learnMapping.sol\":490:498  _plantId */\n      dup5\n        /* \"contracts/learnMapping.sol\":479:499  plantWater[_plantId] */\n      dup2\n      mstore\n      0x20\n      add\n      swap1\n      dup2\n      mstore\n      0x20\n      add\n      0x00\n      keccak256\n      0x00\n        /* \"contracts/learnMapping.sol\":479:508  plantWater[_plantId] = _water */\n      0x0100\n      exp\n      dup2\n      sload\n      dup2\n      0xff\n      mul\n      not\n      and\n      swap1\n      dup4\n      0xff\n      and\n      mul\n      or\n      swap1\n      sstore\n      pop\n        /* \"contracts/learnMapping.sol\":409:516  function waterPlant(uint256 _plantId, uint8 _water) public {... */\n      pop\n      pop\n      jump\t// out\n        /* \"contracts/learnMapping.sol\":215:260  mapping(uint256 => address) public plantOwner */\n    tag_17:\n      mstore(0x20, 0x01)\n      dup1\n      0x00\n      mstore\n      keccak256(0x00, 0x40)\n      0x00\n      swap2\n      pop\n      sload\n      swap1\n      0x0100\n      exp\n      swap1\n      div\n      0xffffffffffffffffffffffffffffffffffffffff\n      and\n      dup2\n      jump\t// out\n        /* \"contracts/learnMapping.sol\":129:172  mapping(uint256 => uint8) public plantWater */\n    tag_22:\n      mstore(0x20, 0x00)\n      dup1\n      0x00\n      mstore\n      keccak256(0x00, 0x40)\n      0x00\n      swap2\n      pop\n      sload\n      swap1\n      0x0100\n      exp\n      swap1\n      div\n      0xff\n      and\n      dup2\n      jump\t// out\n        /* \"#utility.yul\":88:205   */\n    tag_28:\n        /* \"#utility.yul\":197:198   */\n      0x00\n        /* \"#utility.yul\":194:195   */\n      0x00\n        /* \"#utility.yul\":187:199   */\n      revert\n        /* \"#utility.yul\":334:411   */\n    tag_30:\n        /* \"#utility.yul\":371:378   */\n      0x00\n        /* \"#utility.yul\":400:405   */\n      dup2\n        /* \"#utility.yul\":389:405   */\n      swap1\n      pop\n        /* \"#utility.yul\":334:411   */\n      swap2\n      swap1\n      pop\n      jump\t// out\n        /* \"#utility.yul\":417:539   */\n    tag_31:\n        /* \"#utility.yul\":490:514   */\n      tag_46\n        /* \"#utility.yul\":508:513   */\n      dup2\n        /* \"#utility.yul\":490:514   */\n      tag_30\n      jump\t// in\n    tag_46:\n        /* \"#utility.yul\":483:488   */\n      dup2\n        /* \"#utility.yul\":480:515   */\n      eq\n        /* \"#utility.yul\":470:533   */\n      tag_47\n      jumpi\n        /* \"#utility.yul\":529:530   */\n      0x00\n        /* \"#utility.yul\":526:527   */\n      0x00\n        /* \"#utility.yul\":519:531   */\n      revert\n        /* \"#utility.yul\":470:533   */\n    tag_47:\n        /* \"#utility.yul\":417:539   */\n      pop\n      jump\t// out\n        /* \"#utility.yul\":545:684   */\n    tag_32:\n        /* \"#utility.yul\":591:596   */\n      0x00\n        /* \"#utility.yul\":629:635   */\n      dup2\n        /* \"#utility.yul\":616:636   */\n      calldataload\n        /* \"#utility.yul\":607:636   */\n      swap1\n      pop\n        /* \"#utility.yul\":645:678   */\n      tag_49\n        /* \"#utility.yul\":672:677   */\n      dup2\n        /* \"#utility.yul\":645:678   */\n      tag_31\n      jump\t// in\n    tag_49:\n        /* \"#utility.yul\":545:684   */\n      swap3\n      swap2\n      pop\n      pop\n      jump\t// out\n        /* \"#utility.yul\":690:1019   */\n    tag_9:\n        /* \"#utility.yul\":749:755   */\n      0x00\n        /* \"#utility.yul\":798:800   */\n      0x20\n        /* \"#utility.yul\":786:795   */\n      dup3\n        /* \"#utility.yul\":777:784   */\n      dup5\n        /* \"#utility.yul\":773:796   */\n      sub\n        /* \"#utility.yul\":769:801   */\n      slt\n        /* \"#utility.yul\":766:885   */\n      iszero\n      tag_51\n      jumpi\n        /* \"#utility.yul\":804:883   */\n      tag_52\n      tag_28\n      jump\t// in\n    tag_52:\n        /* \"#utility.yul\":766:885   */\n    tag_51:\n        /* \"#utility.yul\":924:925   */\n      0x00\n        /* \"#utility.yul\":949:1002   */\n      tag_53\n        /* \"#utility.yul\":994:1001   */\n      dup5\n        /* \"#utility.yul\":985:991   */\n      dup3\n        /* \"#utility.yul\":974:983   */\n      dup6\n        /* \"#utility.yul\":970:992   */\n      add\n        /* \"#utility.yul\":949:1002   */\n      tag_32\n      jump\t// in\n    tag_53:\n        /* \"#utility.yul\":939:1002   */\n      swap2\n      pop\n        /* \"#utility.yul\":895:1012   */\n      pop\n        /* \"#utility.yul\":690:1019   */\n      swap3\n      swap2\n      pop\n      pop\n      jump\t// out\n        /* \"#utility.yul\":1025:1111   */\n    tag_33:\n        /* \"#utility.yul\":1060:1067   */\n      0x00\n        /* \"#utility.yul\":1100:1104   */\n      0xff\n        /* \"#utility.yul\":1093:1098   */\n      dup3\n        /* \"#utility.yul\":1089:1105   */\n      and\n        /* \"#utility.yul\":1078:1105   */\n      swap1\n      pop\n        /* \"#utility.yul\":1025:1111   */\n      swap2\n      swap1\n      pop\n      jump\t// out\n        /* \"#utility.yul\":1117:1235   */\n    tag_34:\n        /* \"#utility.yul\":1188:1210   */\n      tag_56\n        /* \"#utility.yul\":1204:1209   */\n      dup2\n        /* \"#utility.yul\":1188:1210   */\n      tag_33\n      jump\t// in\n    tag_56:\n        /* \"#utility.yul\":1181:1186   */\n      dup2\n        /* \"#utility.yul\":1178:1211   */\n      eq\n        /* \"#utility.yul\":1168:1229   */\n      tag_57\n      jumpi\n        /* \"#utility.yul\":1225:1226   */\n      0x00\n        /* \"#utility.yul\":1222:1223   */\n      0x00\n        /* \"#utility.yul\":1215:1227   */\n      revert\n        /* \"#utility.yul\":1168:1229   */\n    tag_57:\n        /* \"#utility.yul\":1117:1235   */\n      pop\n      jump\t// out\n        /* \"#utility.yul\":1241:1376   */\n    tag_35:\n        /* \"#utility.yul\":1285:1290   */\n      0x00\n        /* \"#utility.yul\":1323:1329   */\n      dup2\n        /* \"#utility.yul\":1310:1330   */\n      calldataload\n        /* \"#utility.yul\":1301:1330   */\n      swap1\n      pop\n        /* \"#utility.yul\":1339:1370   */\n      tag_59\n        /* \"#utility.yul\":1364:1369   */\n      dup2\n        /* \"#utility.yul\":1339:1370   */\n      tag_34\n      jump\t// in\n    tag_59:\n        /* \"#utility.yul\":1241:1376   */\n      swap3\n      swap2\n      pop\n      pop\n      jump\t// out\n        /* \"#utility.yul\":1382:1852   */\n    tag_13:\n        /* \"#utility.yul\":1448:1454   */\n      0x00\n        /* \"#utility.yul\":1456:1462   */\n      0x00\n        /* \"#utility.yul\":1505:1507   */\n      0x40\n        /* \"#utility.yul\":1493:1502   */\n      dup4\n        /* \"#utility.yul\":1484:1491   */\n      dup6\n        /* \"#utility.yul\":1480:1503   */\n      sub\n        /* \"#utility.yul\":1476:1508   */\n      slt\n        /* \"#utility.yul\":1473:1592   */\n      iszero\n      tag_61\n      jumpi\n        /* \"#utility.yul\":1511:1590   */\n      tag_62\n      tag_28\n      jump\t// in\n    tag_62:\n        /* \"#utility.yul\":1473:1592   */\n    tag_61:\n        /* \"#utility.yul\":1631:1632   */\n      0x00\n        /* \"#utility.yul\":1656:1709   */\n      tag_63\n        /* \"#utility.yul\":1701:1708   */\n      dup6\n        /* \"#utility.yul\":1692:1698   */\n      dup3\n        /* \"#utility.yul\":1681:1690   */\n      dup7\n        /* \"#utility.yul\":1677:1699   */\n      add\n        /* \"#utility.yul\":1656:1709   */\n      tag_32\n      jump\t// in\n    tag_63:\n        /* \"#utility.yul\":1646:1709   */\n      swap3\n      pop\n        /* \"#utility.yul\":1602:1719   */\n      pop\n        /* \"#utility.yul\":1758:1760   */\n      0x20\n        /* \"#utility.yul\":1784:1835   */\n      tag_64\n        /* \"#utility.yul\":1827:1834   */\n      dup6\n        /* \"#utility.yul\":1818:1824   */\n      dup3\n        /* \"#utility.yul\":1807:1816   */\n      dup7\n        /* \"#utility.yul\":1803:1825   */\n      add\n        /* \"#utility.yul\":1784:1835   */\n      tag_35\n      jump\t// in\n    tag_64:\n        /* \"#utility.yul\":1774:1835   */\n      swap2\n      pop\n        /* \"#utility.yul\":1729:1845   */\n      pop\n        /* \"#utility.yul\":1382:1852   */\n      swap3\n      pop\n      swap3\n      swap1\n      pop\n      jump\t// out\n        /* \"#utility.yul\":1858:1984   */\n    tag_36:\n        /* \"#utility.yul\":1895:1902   */\n      0x00\n        /* \"#utility.yul\":1935:1977   */\n      0xffffffffffffffffffffffffffffffffffffffff\n        /* \"#utility.yul\":1928:1933   */\n      dup3\n        /* \"#utility.yul\":1924:1978   */\n      and\n        /* \"#utility.yul\":1913:1978   */\n      swap1\n      pop\n        /* \"#utility.yul\":1858:1984   */\n      swap2\n      swap1\n      pop\n      jump\t// out\n        /* \"#utility.yul\":1990:2086   */\n    tag_37:\n        /* \"#utility.yul\":2027:2034   */\n      0x00\n        /* \"#utility.yul\":2056:2080   */\n      tag_67\n        /* \"#utility.yul\":2074:2079   */\n      dup3\n        /* \"#utility.yul\":2056:2080   */\n      tag_36\n      jump\t// in\n    tag_67:\n        /* \"#utility.yul\":2045:2080   */\n      swap1\n      pop\n        /* \"#utility.yul\":1990:2086   */\n      swap2\n      swap1\n      pop\n      jump\t// out\n        /* \"#utility.yul\":2092:2210   */\n    tag_38:\n        /* \"#utility.yul\":2179:2203   */\n      tag_69\n        /* \"#utility.yul\":2197:2202   */\n      dup2\n        /* \"#utility.yul\":2179:2203   */\n      tag_37\n      jump\t// in\n    tag_69:\n        /* \"#utility.yul\":2174:2177   */\n      dup3\n        /* \"#utility.yul\":2167:2204   */\n      mstore\n        /* \"#utility.yul\":2092:2210   */\n      pop\n      pop\n      jump\t// out\n        /* \"#utility.yul\":2216:2438   */\n    tag_19:\n        /* \"#utility.yul\":2309:2313   */\n      0x00\n        /* \"#utility.yul\":2347:2349   */\n      0x20\n        /* \"#utility.yul\":2336:2345   */\n      dup3\n        /* \"#utility.yul\":2332:2350   */\n      add\n        /* \"#utility.yul\":2324:2350   */\n      swap1\n      pop\n        /* \"#utility.yul\":2360:2431   */\n      tag_71\n        /* \"#utility.yul\":2428:2429   */\n      0x00\n        /* \"#utility.yul\":2417:2426   */\n      dup4\n        /* \"#utility.yul\":2413:2430   */\n      add\n        /* \"#utility.yul\":2404:2410   */\n      dup5\n        /* \"#utility.yul\":2360:2431   */\n      tag_38\n      jump\t// in\n    tag_71:\n        /* \"#utility.yul\":2216:2438   */\n      swap3\n      swap2\n      pop\n      pop\n      jump\t// out\n        /* \"#utility.yul\":2444:2556   */\n    tag_39:\n        /* \"#utility.yul\":2527:2549   */\n      tag_73\n        /* \"#utility.yul\":2543:2548   */\n      dup2\n        /* \"#utility.yul\":2527:2549   */\n      tag_33\n      jump\t// in\n    tag_73:\n        /* \"#utility.yul\":2522:2525   */\n      dup3\n        /* \"#utility.yul\":2515:2550   */\n      mstore\n        /* \"#utility.yul\":2444:2556   */\n      pop\n      pop\n      jump\t// out\n        /* \"#utility.yul\":2562:2776   */\n    tag_24:\n        /* \"#utility.yul\":2651:2655   */\n      0x00\n        /* \"#utility.yul\":2689:2691   */\n      0x20\n        /* \"#utility.yul\":2678:2687   */\n      dup3\n        /* \"#utility.yul\":2674:2692   */\n      add\n        /* \"#utility.yul\":2666:2692   */\n      swap1\n      pop\n        /* \"#utility.yul\":2702:2769   */\n      tag_75\n        /* \"#utility.yul\":2766:2767   */\n      0x00\n        /* \"#utility.yul\":2755:2764   */\n      dup4\n        /* \"#utility.yul\":2751:2768   */\n      add\n        /* \"#utility.yul\":2742:2748   */\n      dup5\n        /* \"#utility.yul\":2702:2769   */\n      tag_39\n      jump\t// in\n    tag_75:\n        /* \"#utility.yul\":2562:2776   */\n      swap3\n      swap2\n      pop\n      pop\n      jump\t// out\n\n    auxdata: 0xa264697066735822122075f6e98e48ff9c158c03ce40d5a86db63fddf5a1832b16dc225a566227590c2064736f6c634300081e0033\n}\n",
				"bytecode": {
					"linkReferences": {},
					"object": "6080604052348015600e575f5ffd5b506103658061001c5f395ff3fe608060405234801561000f575f5ffd5b506004361061004a575f3560e01c8063132580691461004e5780633740662e1461006a5780633a53293714610086578063e8ea6c10146100b6575b5f5ffd5b61006860048036038101906100639190610210565b6100e6565b005b610084600480360381019061007f9190610271565b610161565b005b6100a0600480360381019061009b9190610210565b61018d565b6040516100ad91906102ee565b60405180910390f35b6100d060048036038101906100cb9190610210565b6101bd565b6040516100dd9190610316565b60405180910390f35b60645f5f8381526020019081526020015f205f6101000a81548160ff021916908360ff1602179055503360015f8381526020019081526020015f205f6101000a81548173ffffffffffffffffffffffffffffffffffffffff021916908373ffffffffffffffffffffffffffffffffffffffff16021790555050565b805f5f8481526020019081526020015f205f6101000a81548160ff021916908360ff1602179055505050565b6001602052805f5260405f205f915054906101000a900473ffffffffffffffffffffffffffffffffffffffff1681565b5f602052805f5260405f205f915054906101000a900460ff1681565b5f5ffd5b5f819050919050565b6101ef816101dd565b81146101f9575f5ffd5b50565b5f8135905061020a816101e6565b92915050565b5f60208284031215610225576102246101d9565b5b5f610232848285016101fc565b91505092915050565b5f60ff82169050919050565b6102508161023b565b811461025a575f5ffd5b50565b5f8135905061026b81610247565b92915050565b5f5f60408385031215610287576102866101d9565b5b5f610294858286016101fc565b92505060206102a58582860161025d565b9150509250929050565b5f73ffffffffffffffffffffffffffffffffffffffff82169050919050565b5f6102d8826102af565b9050919050565b6102e8816102ce565b82525050565b5f6020820190506103015f8301846102df565b92915050565b6103108161023b565b82525050565b5f6020820190506103295f830184610307565b9291505056fea264697066735822122075f6e98e48ff9c158c03ce40d5a86db63fddf5a1832b16dc225a566227590c2064736f6c634300081e0033",
					"opcodes": "PUSH1 0x80 PUSH1 0x40 MSTORE CALLVALUE DUP1 ISZERO PUSH1 0xE JUMPI PUSH0 PUSH0 REVERT JUMPDEST POP PUSH2 0x365 DUP1 PUSH2 0x1C PUSH0 CODECOPY PUSH0 RETURN INVALID PUSH1 0x80 PUSH1 0x40 MSTORE CALLVALUE DUP1 ISZERO PUSH2 0xF JUMPI PUSH0 PUSH0 REVERT JUMPDEST POP PUSH1 0x4 CALLDATASIZE LT PUSH2 0x4A JUMPI PUSH0 CALLDATALOAD PUSH1 0xE0 SHR DUP1 PUSH4 0x13258069 EQ PUSH2 0x4E JUMPI DUP1 PUSH4 0x3740662E EQ PUSH2 0x6A JUMPI DUP1 PUSH4 0x3A532937 EQ PUSH2 0x86 JUMPI DUP1 PUSH4 0xE8EA6C10 EQ PUSH2 0xB6 JUMPI JUMPDEST PUSH0 PUSH0 REVERT JUMPDEST PUSH2 0x68 PUSH1 0x4 DUP1 CALLDATASIZE SUB DUP2 ADD SWAP1 PUSH2 0x63 SWAP2 SWAP1 PUSH2 0x210 JUMP JUMPDEST PUSH2 0xE6 JUMP JUMPDEST STOP JUMPDEST PUSH2 0x84 PUSH1 0x4 DUP1 CALLDATASIZE SUB DUP2 ADD SWAP1 PUSH2 0x7F SWAP2 SWAP1 PUSH2 0x271 JUMP JUMPDEST PUSH2 0x161 JUMP JUMPDEST STOP JUMPDEST PUSH2 0xA0 PUSH1 0x4 DUP1 CALLDATASIZE SUB DUP2 ADD SWAP1 PUSH2 0x9B SWAP2 SWAP1 PUSH2 0x210 JUMP JUMPDEST PUSH2 0x18D JUMP JUMPDEST PUSH1 0x40 MLOAD PUSH2 0xAD SWAP2 SWAP1 PUSH2 0x2EE JUMP JUMPDEST PUSH1 0x40 MLOAD DUP1 SWAP2 SUB SWAP1 RETURN JUMPDEST PUSH2 0xD0 PUSH1 0x4 DUP1 CALLDATASIZE SUB DUP2 ADD SWAP1 PUSH2 0xCB SWAP2 SWAP1 PUSH2 0x210 JUMP JUMPDEST PUSH2 0x1BD JUMP JUMPDEST PUSH1 0x40 MLOAD PUSH2 0xDD SWAP2 SWAP1 PUSH2 0x316 JUMP JUMPDEST PUSH1 0x40 MLOAD DUP1 SWAP2 SUB SWAP1 RETURN JUMPDEST PUSH1 0x64 PUSH0 PUSH0 DUP4 DUP2 MSTORE PUSH1 0x20 ADD SWAP1 DUP2 MSTORE PUSH1 0x20 ADD PUSH0 KECCAK256 PUSH0 PUSH2 0x100 EXP DUP2 SLOAD DUP2 PUSH1 0xFF MUL NOT AND SWAP1 DUP4 PUSH1 0xFF AND MUL OR SWAP1 SSTORE POP CALLER PUSH1 0x1 PUSH0 DUP4 DUP2 MSTORE PUSH1 0x20 ADD SWAP1 DUP2 MSTORE PUSH1 0x20 ADD PUSH0 KECCAK256 PUSH0 PUSH2 0x100 EXP DUP2 SLOAD DUP2 PUSH20 0xFFFFFFFFFFFFFFFFFFFFFFFFFFFFFFFFFFFFFFFF MUL NOT AND SWAP1 DUP4 PUSH20 0xFFFFFFFFFFFFFFFFFFFFFFFFFFFFFFFFFFFFFFFF AND MUL OR SWAP1 SSTORE POP POP JUMP JUMPDEST DUP1 PUSH0 PUSH0 DUP5 DUP2 MSTORE PUSH1 0x20 ADD SWAP1 DUP2 MSTORE PUSH1 0x20 ADD PUSH0 KECCAK256 PUSH0 PUSH2 0x100 EXP DUP2 SLOAD DUP2 PUSH1 0xFF MUL NOT AND SWAP1 DUP4 PUSH1 0xFF AND MUL OR SWAP1 SSTORE POP POP POP JUMP JUMPDEST PUSH1 0x1 PUSH1 0x20 MSTORE DUP1 PUSH0 MSTORE PUSH1 0x40 PUSH0 KECCAK256 PUSH0 SWAP2 POP SLOAD SWAP1 PUSH2 0x100 EXP SWAP1 DIV PUSH20 0xFFFFFFFFFFFFFFFFFFFFFFFFFFFFFFFFFFFFFFFF AND DUP2 JUMP JUMPDEST PUSH0 PUSH1 0x20 MSTORE DUP1 PUSH0 MSTORE PUSH1 0x40 PUSH0 KECCAK256 PUSH0 SWAP2 POP SLOAD SWAP1 PUSH2 0x100 EXP SWAP1 DIV PUSH1 0xFF AND DUP2 JUMP JUMPDEST PUSH0 PUSH0 REVERT JUMPDEST PUSH0 DUP2 SWAP1 POP SWAP2 SWAP1 POP JUMP JUMPDEST PUSH2 0x1EF DUP2 PUSH2 0x1DD JUMP JUMPDEST DUP2 EQ PUSH2 0x1F9 JUMPI PUSH0 PUSH0 REVERT JUMPDEST POP JUMP JUMPDEST PUSH0 DUP2 CALLDATALOAD SWAP1 POP PUSH2 0x20A DUP2 PUSH2 0x1E6 JUMP JUMPDEST SWAP3 SWAP2 POP POP JUMP JUMPDEST PUSH0 PUSH1 0x20 DUP3 DUP5 SUB SLT ISZERO PUSH2 0x225 JUMPI PUSH2 0x224 PUSH2 0x1D9 JUMP JUMPDEST JUMPDEST PUSH0 PUSH2 0x232 DUP5 DUP3 DUP6 ADD PUSH2 0x1FC JUMP JUMPDEST SWAP2 POP POP SWAP3 SWAP2 POP POP JUMP JUMPDEST PUSH0 PUSH1 0xFF DUP3 AND SWAP1 POP SWAP2 SWAP1 POP JUMP JUMPDEST PUSH2 0x250 DUP2 PUSH2 0x23B JUMP JUMPDEST DUP2 EQ PUSH2 0x25A JUMPI PUSH0 PUSH0 REVERT JUMPDEST POP JUMP JUMPDEST PUSH0 DUP2 CALLDATALOAD SWAP1 POP PUSH2 0x26B DUP2 PUSH2 0x247 JUMP JUMPDEST SWAP3 SWAP2 POP POP JUMP JUMPDEST PUSH0 PUSH0 PUSH1 0x40 DUP4 DUP6 SUB SLT ISZERO PUSH2 0x287 JUMPI PUSH2 0x286 PUSH2 0x1D9 JUMP JUMPDEST JUMPDEST PUSH0 PUSH2 0x294 DUP6 DUP3 DUP7 ADD PUSH2 0x1FC JUMP JUMPDEST SWAP3 POP POP PUSH1 0x20 PUSH2 0x2A5 DUP6 DUP3 DUP7 ADD PUSH2 0x25D JUMP JUMPDEST SWAP2 POP POP SWAP3 POP SWAP3 SWAP1 POP JUMP JUMPDEST PUSH0 PUSH20 0xFFFFFFFFFFFFFFFFFFFFFFFFFFFFFFFFFFFFFFFF DUP3 AND SWAP1 POP SWAP2 SWAP1 POP JUMP JUMPDEST PUSH0 PUSH2 0x2D8 DUP3 PUSH2 0x2AF JUMP JUMPDEST SWAP1 POP SWAP2 SWAP1 POP JUMP JUMPDEST PUSH2 0x2E8 DUP2 PUSH2 0x2CE JUMP JUMPDEST DUP3 MSTORE POP POP JUMP JUMPDEST PUSH0 PUSH1 0x20 DUP3 ADD SWAP1 POP PUSH2 0x301 PUSH0 DUP4 ADD DUP5 PUSH2 0x2DF JUMP JUMPDEST SWAP3 SWAP2 POP POP JUMP JUMPDEST PUSH2 0x310 DUP2 PUSH2 0x23B JUMP JUMPDEST DUP3 MSTORE POP POP JUMP JUMPDEST PUSH0 PUSH1 0x20 DUP3 ADD SWAP1 POP PUSH2 0x329 PUSH0 DUP4 ADD DUP5 PUSH2 0x307 JUMP JUMPDEST SWAP3 SWAP2 POP POP JUMP INVALID LOG2 PUSH5 0x6970667358 0x22 SLT KECCAK256 PUSH22 0xF6E98E48FF9C158C03CE40D5A86DB63FDDF5A1832B16 0xDC 0x22 GAS JUMP PUSH3 0x27590C KECCAK256 PUSH5 0x736F6C6343 STOP ADDMOD 0x1E STOP CALLER "
				},
				"gasEstimates": {
					"creation": {
						"codeDepositCost": "173800",
						"executionCost": "218",
						"totalCost": "174018"
					},
					"external": {
						"addPlant(uint256)": "49061",
						"plantOwner(uint256)": "2849",
						"plantWater(uint256)": "2828",
						"waterPlant(uint256,uint8)": "24918"
					}
				},
				"methodIdentifiers": {
					"addPlant(uint256)": "13258069",
					"plantOwner(uint256)": "3a532937",
					"plantWater(uint256)": "e8ea6c10",
					"waterPlant(uint256,uint8)": "3740662e"
				}
			},
			"storageLayout": {
				"storage": [
					{
						"astId": 5,
						"contract": "contracts/learnMapping.sol:LearnMapping",
						"label": "plantWater",
						"offset": 0,
						"slot": "0",
						"type": "t_mapping(t_uint256,t_uint8)"
					},
					{
						"astId": 9,
						"contract": "contracts/learnMapping.sol:LearnMapping",
						"label": "plantOwner",
						"offset": 0,
						"slot": "1",
						"type": "t_mapping(t_uint256,t_address)"
					}
				],
				"types": {
					"t_address": {
						"encoding": "inplace",
						"label": "address",
						"numberOfBytes": "20"
					},
					"t_mapping(t_uint256,t_address)": {
						"encoding": "mapping",
						"key": "t_uint256",
						"label": "mapping(uint256 => address)",
						"numberOfBytes": "32",
						"value": "t_address"
					},
					"t_mapping(t_uint256,t_uint8)": {
						"encoding": "mapping",
						"key": "t_uint256",
						"label": "mapping(uint256 => uint8)",
						"numberOfBytes": "32",
						"value": "t_uint8"
					},
					"t_uint256": {
						"encoding": "inplace",
						"label": "uint256",
						"numberOfBytes": "32"
					},
					"t_uint8": {
						"encoding": "inplace",
						"label": "uint8",
						"numberOfBytes": "1"
					}
				}
			},
			"userdoc": {
				"kind": "user",
				"methods": {},
				"version": 1
			}
		}
	}
}