{
	"contracts/LearnEnum.sol": {
		"LearnEnum": {
			"abi": [
				{
					"inputs": [],
					"stateMutability": "nonpayable",
					"type": "constructor"
				},
				{
					"inputs": [],
					"name": "currentStage",
					"outputs": [
						{
							"internalType": "enum LearnEnum.GrowthStage",
							"name": "",
							"type": "uint8"
						}
					],
					"stateMutability": "view",
					"type": "function"
				},
				{
					"inputs": [],
					"name": "grow",
					"outputs": [],
					"stateMutability": "nonpayable",
					"type": "function"
				}
			],
			"devdoc": {
				"kind": "dev",
				"methods": {},
				"version": 1
			},
			"evm": {
				"assembly": "    /* \"contracts/LearnEnum.sol\":61:723  contract LearnEnum {... */\n  mstore(0x40, 0x80)\n    /* \"contracts/LearnEnum.sol\":274:337  constructor() {... */\n  callvalue\n  dup1\n  iszero\n  tag_1\n  jumpi\n  revert(0x00, 0x00)\ntag_1:\n  pop\n    /* \"contracts/LearnEnum.sol\":314:329  GrowthStage.cek */\n  0x04\n    /* \"contracts/LearnEnum.sol\":299:311  currentStage */\n  0x00\n  0x00\n    /* \"contracts/LearnEnum.sol\":299:329  currentStage = GrowthStage.cek */\n  0x0100\n  exp\n  dup2\n  sload\n  dup2\n  0xff\n  mul\n  not\n  and\n  swap1\n  dup4\n  0x04\n  dup2\n  gt\n  iszero\n  tag_4\n  jumpi\n  tag_5\n  tag_6\n  jump\t// in\ntag_5:\ntag_4:\n  mul\n  or\n  swap1\n  sstore\n  pop\n    /* \"contracts/LearnEnum.sol\":61:723  contract LearnEnum {... */\n  jump(tag_7)\n    /* \"#utility.yul\":7:187   */\ntag_6:\n    /* \"#utility.yul\":55:132   */\n  0x4e487b7100000000000000000000000000000000000000000000000000000000\n    /* \"#utility.yul\":52:53   */\n  0x00\n    /* \"#utility.yul\":45:133   */\n  mstore\n    /* \"#utility.yul\":152:156   */\n  0x21\n    /* \"#utility.yul\":149:150   */\n  0x04\n    /* \"#utility.yul\":142:157   */\n  mstore\n    /* \"#utility.yul\":176:180   */\n  0x24\n    /* \"#utility.yul\":173:174   */\n  0x00\n    /* \"#utility.yul\":166:181   */\n  revert\n    /* \"contracts/LearnEnum.sol\":61:723  contract LearnEnum {... */\ntag_7:\n  dataSize(sub_0)\n  dup1\n  dataOffset(sub_0)\n  0x00\n  codecopy\n  0x00\n  return\nstop\n\nsub_0: assembly {\n        /* \"contracts/LearnEnum.sol\":61:723  contract LearnEnum {... */\n      mstore(0x40, 0x80)\n      callvalue\n      dup1\n      iszero\n      tag_1\n      jumpi\n      revert(0x00, 0x00)\n    tag_1:\n      pop\n      jumpi(tag_2, lt(calldatasize, 0x04))\n      shr(0xe0, calldataload(0x00))\n      dup1\n      0x5298948e\n      eq\n      tag_3\n      jumpi\n      dup1\n      0x5bf5d54c\n      eq\n      tag_4\n      jumpi\n    tag_2:\n      revert(0x00, 0x00)\n        /* \"contracts/LearnEnum.sol\":347:720  function grow() public {... */\n    tag_3:\n      tag_5\n      tag_6\n      jump\t// in\n    tag_5:\n      stop\n        /* \"contracts/LearnEnum.sol\":234:265  GrowthStage public currentStage */\n    tag_4:\n      tag_7\n      tag_8\n      jump\t// in\n    tag_7:\n      mload(0x40)\n      tag_9\n      swap2\n      swap1\n      tag_10\n      jump\t// in\n    tag_9:\n      mload(0x40)\n      dup1\n      swap2\n      sub\n      swap1\n      return\n        /* \"contracts/LearnEnum.sol\":347:720  function grow() public {... */\n    tag_6:\n        /* \"contracts/LearnEnum.sol\":401:417  GrowthStage.SEED */\n      0x00\n        /* \"contracts/LearnEnum.sol\":385:417  currentStage == GrowthStage.SEED */\n      0x04\n      dup2\n      gt\n      iszero\n      tag_12\n      jumpi\n      tag_13\n      tag_14\n      jump\t// in\n    tag_13:\n    tag_12:\n        /* \"contracts/LearnEnum.sol\":385:397  currentStage */\n      0x00\n      0x00\n      swap1\n      sload\n      swap1\n      0x0100\n      exp\n      swap1\n      div\n      0xff\n      and\n        /* \"contracts/LearnEnum.sol\":385:417  currentStage == GrowthStage.SEED */\n      0x04\n      dup2\n      gt\n      iszero\n      tag_15\n      jumpi\n      tag_16\n      tag_14\n      jump\t// in\n    tag_16:\n    tag_15:\n      sub\n        /* \"contracts/LearnEnum.sol\":381:713  if (currentStage == GrowthStage.SEED) {... */\n      tag_17\n      jumpi\n        /* \"contracts/LearnEnum.sol\":449:467  GrowthStage.SPROUT */\n      0x01\n        /* \"contracts/LearnEnum.sol\":434:446  currentStage */\n      0x00\n      0x00\n        /* \"contracts/LearnEnum.sol\":434:467  currentStage = GrowthStage.SPROUT */\n      0x0100\n      exp\n      dup2\n      sload\n      dup2\n      0xff\n      mul\n      not\n      and\n      swap1\n      dup4\n      0x04\n      dup2\n      gt\n      iszero\n      tag_18\n      jumpi\n      tag_19\n      tag_14\n      jump\t// in\n    tag_19:\n    tag_18:\n      mul\n      or\n      swap1\n      sstore\n      pop\n        /* \"contracts/LearnEnum.sol\":381:713  if (currentStage == GrowthStage.SEED) {... */\n      jump(tag_20)\n    tag_17:\n        /* \"contracts/LearnEnum.sol\":514:532  GrowthStage.SPROUT */\n      0x01\n        /* \"contracts/LearnEnum.sol\":498:532  currentStage == GrowthStage.SPROUT */\n      0x04\n      dup2\n      gt\n      iszero\n      tag_21\n      jumpi\n      tag_22\n      tag_14\n      jump\t// in\n    tag_22:\n    tag_21:\n        /* \"contracts/LearnEnum.sol\":498:510  currentStage */\n      0x00\n      0x00\n      swap1\n      sload\n      swap1\n      0x0100\n      exp\n      swap1\n      div\n      0xff\n      and\n        /* \"contracts/LearnEnum.sol\":498:532  currentStage == GrowthStage.SPROUT */\n      0x04\n      dup2\n      gt\n      iszero\n      tag_23\n      jumpi\n      tag_24\n      tag_14\n      jump\t// in\n    tag_24:\n    tag_23:\n      sub\n        /* \"contracts/LearnEnum.sol\":494:713  if (currentStage == GrowthStage.SPROUT) {... */\n      tag_25\n      jumpi\n        /* \"contracts/LearnEnum.sol\":564:583  GrowthStage.GROWING */\n      0x02\n        /* \"contracts/LearnEnum.sol\":549:561  currentStage */\n      0x00\n      0x00\n        /* \"contracts/LearnEnum.sol\":549:583  currentStage = GrowthStage.GROWING */\n      0x0100\n      exp\n      dup2\n      sload\n      dup2\n      0xff\n      mul\n      not\n      and\n      swap1\n      dup4\n      0x04\n      dup2\n      gt\n      iszero\n      tag_26\n      jumpi\n      tag_27\n      tag_14\n      jump\t// in\n    tag_27:\n    tag_26:\n      mul\n      or\n      swap1\n      sstore\n      pop\n        /* \"contracts/LearnEnum.sol\":494:713  if (currentStage == GrowthStage.SPROUT) {... */\n      jump(tag_28)\n    tag_25:\n        /* \"contracts/LearnEnum.sol\":630:649  GrowthStage.GROWING */\n      0x02\n        /* \"contracts/LearnEnum.sol\":614:649  currentStage == GrowthStage.GROWING */\n      0x04\n      dup2\n      gt\n      iszero\n      tag_29\n      jumpi\n      tag_30\n      tag_14\n      jump\t// in\n    tag_30:\n    tag_29:\n        /* \"contracts/LearnEnum.sol\":614:626  currentStage */\n      0x00\n      0x00\n      swap1\n      sload\n      swap1\n      0x0100\n      exp\n      swap1\n      div\n      0xff\n      and\n        /* \"contracts/LearnEnum.sol\":614:649  currentStage == GrowthStage.GROWING */\n      0x04\n      dup2\n      gt\n      iszero\n      tag_31\n      jumpi\n      tag_32\n      tag_14\n      jump\t// in\n    tag_32:\n    tag_31:\n      sub\n        /* \"contracts/LearnEnum.sol\":610:713  if (currentStage == GrowthStage.GROWING) {... */\n      tag_33\n      jumpi\n        /* \"contracts/LearnEnum.sol\":681:701  GrowthStage.BLOOMING */\n      0x03\n        /* \"contracts/LearnEnum.sol\":666:678  currentStage */\n      0x00\n      0x00\n        /* \"contracts/LearnEnum.sol\":666:701  currentStage = GrowthStage.BLOOMING */\n      0x0100\n      exp\n      dup2\n      sload\n      dup2\n      0xff\n      mul\n      not\n      and\n      swap1\n      dup4\n      0x04\n      dup2\n      gt\n      iszero\n      tag_34\n      jumpi\n      tag_35\n      tag_14\n      jump\t// in\n    tag_35:\n    tag_34:\n      mul\n      or\n      swap1\n      sstore\n      pop\n        /* \"contracts/LearnEnum.sol\":610:713  if (currentStage == GrowthStage.GROWING) {... */\n    tag_33:\n        /* \"contracts/LearnEnum.sol\":494:713  if (currentStage == GrowthStage.SPROUT) {... */\n    tag_28:\n        /* \"contracts/LearnEnum.sol\":381:713  if (currentStage == GrowthStage.SEED) {... */\n    tag_20:\n        /* \"contracts/LearnEnum.sol\":347:720  function grow() public {... */\n      jump\t// out\n        /* \"contracts/LearnEnum.sol\":234:265  GrowthStage public currentStage */\n    tag_8:\n      0x00\n      0x00\n      swap1\n      sload\n      swap1\n      0x0100\n      exp\n      swap1\n      div\n      0xff\n      and\n      dup2\n      jump\t// out\n        /* \"#utility.yul\":7:187   */\n    tag_14:\n        /* \"#utility.yul\":55:132   */\n      0x4e487b7100000000000000000000000000000000000000000000000000000000\n        /* \"#utility.yul\":52:53   */\n      0x00\n        /* \"#utility.yul\":45:133   */\n      mstore\n        /* \"#utility.yul\":152:156   */\n      0x21\n        /* \"#utility.yul\":149:150   */\n      0x04\n        /* \"#utility.yul\":142:157   */\n      mstore\n        /* \"#utility.yul\":176:180   */\n      0x24\n        /* \"#utility.yul\":173:174   */\n      0x00\n        /* \"#utility.yul\":166:181   */\n      revert\n        /* \"#utility.yul\":193:311   */\n    tag_36:\n        /* \"#utility.yul\":279:280   */\n      0x05\n        /* \"#utility.yul\":272:277   */\n      dup2\n        /* \"#utility.yul\":269:281   */\n      lt\n        /* \"#utility.yul\":259:305   */\n      tag_43\n      jumpi\n        /* \"#utility.yul\":285:303   */\n      tag_44\n      tag_14\n      jump\t// in\n    tag_44:\n        /* \"#utility.yul\":259:305   */\n    tag_43:\n        /* \"#utility.yul\":193:311   */\n      pop\n      jump\t// out\n        /* \"#utility.yul\":317:454   */\n    tag_37:\n        /* \"#utility.yul\":367:374   */\n      0x00\n        /* \"#utility.yul\":396:401   */\n      dup2\n        /* \"#utility.yul\":385:401   */\n      swap1\n      pop\n        /* \"#utility.yul\":402:448   */\n      tag_46\n        /* \"#utility.yul\":442:447   */\n      dup3\n        /* \"#utility.yul\":402:448   */\n      tag_36\n      jump\t// in\n    tag_46:\n        /* \"#utility.yul\":317:454   */\n      swap2\n      swap1\n      pop\n      jump\t// out\n        /* \"#utility.yul\":460:597   */\n    tag_38:\n        /* \"#utility.yul\":521:530   */\n      0x00\n        /* \"#utility.yul\":554:591   */\n      tag_48\n        /* \"#utility.yul\":585:590   */\n      dup3\n        /* \"#utility.yul\":554:591   */\n      tag_37\n      jump\t// in\n    tag_48:\n        /* \"#utility.yul\":541:591   */\n      swap1\n      pop\n        /* \"#utility.yul\":460:597   */\n      swap2\n      swap1\n      pop\n      jump\t// out\n        /* \"#utility.yul\":603:756   */\n    tag_39:\n        /* \"#utility.yul\":701:749   */\n      tag_50\n        /* \"#utility.yul\":743:748   */\n      dup2\n        /* \"#utility.yul\":701:749   */\n      tag_38\n      jump\t// in\n    tag_50:\n        /* \"#utility.yul\":696:699   */\n      dup3\n        /* \"#utility.yul\":689:750   */\n      mstore\n        /* \"#utility.yul\":603:756   */\n      pop\n      pop\n      jump\t// out\n        /* \"#utility.yul\":762:1006   */\n    tag_10:\n        /* \"#utility.yul\":866:870   */\n      0x00\n        /* \"#utility.yul\":904:906   */\n      0x20\n        /* \"#utility.yul\":893:902   */\n      dup3\n        /* \"#utility.yul\":889:907   */\n      add\n        /* \"#utility.yul\":881:907   */\n      swap1\n      pop\n        /* \"#utility.yul\":917:999   */\n      tag_52\n        /* \"#utility.yul\":996:997   */\n      0x00\n        /* \"#utility.yul\":985:994   */\n      dup4\n        /* \"#utility.yul\":981:998   */\n      add\n        /* \"#utility.yul\":972:978   */\n      dup5\n        /* \"#utility.yul\":917:999   */\n      tag_39\n      jump\t// in\n    tag_52:\n        /* \"#utility.yul\":762:1006   */\n      swap3\n      swap2\n      pop\n      pop\n      jump\t// out\n\n    auxdata: 0xa2646970667358221220ceac56e2d0a9ab408132e39bea11f5e1238b09875b17edba7e1e498929acefdb64736f6c634300081e0033\n}\n",
				"bytecode": {
					"linkReferences": {},
					"object": "6080604052348015600e575f5ffd5b5060045f5f6101000a81548160ff02191690836004811115603057602f6039565b5b02179055506066565b7f4e487b71000000000000000000000000000000000000000000000000000000005f52602160045260245ffd5b610267806100735f395ff3fe608060405234801561000f575f5ffd5b5060043610610034575f3560e01c80635298948e146100385780635bf5d54c14610042575b5f5ffd5b610040610060565b005b61004a610194565b6040516100579190610218565b60405180910390f35b5f6004811115610073576100726101a5565b5b5f5f9054906101000a900460ff166004811115610093576100926101a5565b5b036100c65760015f5f6101000a81548160ff021916908360048111156100bc576100bb6101a5565b5b0217905550610192565b600160048111156100da576100d96101a5565b5b5f5f9054906101000a900460ff1660048111156100fa576100f96101a5565b5b0361012d5760025f5f6101000a81548160ff02191690836004811115610123576101226101a5565b5b0217905550610191565b60026004811115610141576101406101a5565b5b5f5f9054906101000a900460ff166004811115610161576101606101a5565b5b036101905760035f5f6101000a81548160ff0219169083600481111561018a576101896101a5565b5b02179055505b5b5b565b5f5f9054906101000a900460ff1681565b7f4e487b71000000000000000000000000000000000000000000000000000000005f52602160045260245ffd5b600581106101e3576101e26101a5565b5b50565b5f8190506101f3826101d2565b919050565b5f610202826101e6565b9050919050565b610212816101f8565b82525050565b5f60208201905061022b5f830184610209565b9291505056fea2646970667358221220ceac56e2d0a9ab408132e39bea11f5e1238b09875b17edba7e1e498929acefdb64736f6c634300081e0033",
					"opcodes": "PUSH1 0x80 PUSH1 0x40 MSTORE CALLVALUE DUP1 ISZERO PUSH1 0xE JUMPI PUSH0 PUSH0 REVERT JUMPDEST POP PUSH1 0x4 PUSH0 PUSH0 PUSH2 0x100 EXP DUP2 SLOAD DUP2 PUSH1 0xFF MUL NOT AND SWAP1 DUP4 PUSH1 0x4 DUP2 GT ISZERO PUSH1 0x30 JUMPI PUSH1 0x2F PUSH1 0x39 JUMP JUMPDEST JUMPDEST MUL OR SWAP1 SSTORE POP PUSH1 0x66 JUMP JUMPDEST PUSH32 0x4E487B7100000000000000000000000000000000000000000000000000000000 PUSH0 MSTORE PUSH1 0x21 PUSH1 0x4 MSTORE PUSH1 0x24 PUSH0 REVERT JUMPDEST PUSH2 0x267 DUP1 PUSH2 0x73 PUSH0 CODECOPY PUSH0 RETURN INVALID PUSH1 0x80 PUSH1 0x40 MSTORE CALLVALUE DUP1 ISZERO PUSH2 0xF JUMPI PUSH0 PUSH0 REVERT JUMPDEST POP PUSH1 0x4 CALLDATASIZE LT PUSH2 0x34 JUMPI PUSH0 CALLDATALOAD PUSH1 0xE0 SHR DUP1 PUSH4 0x5298948E EQ PUSH2 0x38 JUMPI DUP1 PUSH4 0x5BF5D54C EQ PUSH2 0x42 JUMPI JUMPDEST PUSH0 PUSH0 REVERT JUMPDEST PUSH2 0x40 PUSH2 0x60 JUMP JUMPDEST STOP JUMPDEST PUSH2 0x4A PUSH2 0x194 JUMP JUMPDEST PUSH1 0x40 MLOAD PUSH2 0x57 SWAP2 SWAP1 PUSH2 0x218 JUMP JUMPDEST PUSH1 0x40 MLOAD DUP1 SWAP2 SUB SWAP1 RETURN JUMPDEST PUSH0 PUSH1 0x4 DUP2 GT ISZERO PUSH2 0x73 JUMPI PUSH2 0x72 PUSH2 0x1A5 JUMP JUMPDEST JUMPDEST PUSH0 PUSH0 SWAP1 SLOAD SWAP1 PUSH2 0x100 EXP SWAP1 DIV PUSH1 0xFF AND PUSH1 0x4 DUP2 GT ISZERO PUSH2 0x93 JUMPI PUSH2 0x92 PUSH2 0x1A5 JUMP JUMPDEST JUMPDEST SUB PUSH2 0xC6 JUMPI PUSH1 0x1 PUSH0 PUSH0 PUSH2 0x100 EXP DUP2 SLOAD DUP2 PUSH1 0xFF MUL NOT AND SWAP1 DUP4 PUSH1 0x4 DUP2 GT ISZERO PUSH2 0xBC JUMPI PUSH2 0xBB PUSH2 0x1A5 JUMP JUMPDEST JUMPDEST MUL OR SWAP1 SSTORE POP PUSH2 0x192 JUMP JUMPDEST PUSH1 0x1 PUSH1 0x4 DUP2 GT ISZERO PUSH2 0xDA JUMPI PUSH2 0xD9 PUSH2 0x1A5 JUMP JUMPDEST JUMPDEST PUSH0 PUSH0 SWAP1 SLOAD SWAP1 PUSH2 0x100 EXP SWAP1 DIV PUSH1 0xFF AND PUSH1 0x4 DUP2 GT ISZERO PUSH2 0xFA JUMPI PUSH2 0xF9 PUSH2 0x1A5 JUMP JUMPDEST JUMPDEST SUB PUSH2 0x12D JUMPI PUSH1 0x2 PUSH0 PUSH0 PUSH2 0x100 EXP DUP2 SLOAD DUP2 PUSH1 0xFF MUL NOT AND SWAP1 DUP4 PUSH1 0x4 DUP2 GT ISZERO PUSH2 0x123 JUMPI PUSH2 0x122 PUSH2 0x1A5 JUMP JUMPDEST JUMPDEST MUL OR SWAP1 SSTORE POP PUSH2 0x191 JUMP JUMPDEST PUSH1 0x2 PUSH1 0x4 DUP2 GT ISZERO PUSH2 0x141 JUMPI PUSH2 0x140 PUSH2 0x1A5 JUMP JUMPDEST JUMPDEST PUSH0 PUSH0 SWAP1 SLOAD SWAP1 PUSH2 0x100 EXP SWAP1 DIV PUSH1 0xFF AND PUSH1 0x4 DUP2 GT ISZERO PUSH2 0x161 JUMPI PUSH2 0x160 PUSH2 0x1A5 JUMP JUMPDEST JUMPDEST SUB PUSH2 0x190 JUMPI PUSH1 0x3 PUSH0 PUSH0 PUSH2 0x100 EXP DUP2 SLOAD DUP2 PUSH1 0xFF MUL NOT AND SWAP1 DUP4 PUSH1 0x4 DUP2 GT ISZERO PUSH2 0x18A JUMPI PUSH2 0x189 PUSH2 0x1A5 JUMP JUMPDEST JUMPDEST MUL OR SWAP1 SSTORE POP JUMPDEST JUMPDEST JUMPDEST JUMP JUMPDEST PUSH0 PUSH0 SWAP1 SLOAD SWAP1 PUSH2 0x100 EXP SWAP1 DIV PUSH1 0xFF AND DUP2 JUMP JUMPDEST PUSH32 0x4E487B7100000000000000000000000000000000000000000000000000000000 PUSH0 MSTORE PUSH1 0x21 PUSH1 0x4 MSTORE PUSH1 0x24 PUSH0 REVERT JUMPDEST PUSH1 0x5 DUP2 LT PUSH2 0x1E3 JUMPI PUSH2 0x1E2 PUSH2 0x1A5 JUMP JUMPDEST JUMPDEST POP JUMP JUMPDEST PUSH0 DUP2 SWAP1 POP PUSH2 0x1F3 DUP3 PUSH2 0x1D2 JUMP JUMPDEST SWAP2 SWAP1 POP JUMP JUMPDEST PUSH0 PUSH2 0x202 DUP3 PUSH2 0x1E6 JUMP JUMPDEST SWAP1 POP SWAP2 SWAP1 POP JUMP JUMPDEST PUSH2 0x212 DUP2 PUSH2 0x1F8 JUMP JUMPDEST DUP3 MSTORE POP POP JUMP JUMPDEST PUSH0 PUSH1 0x20 DUP3 ADD SWAP1 POP PUSH2 0x22B PUSH0 DUP4 ADD DUP5 PUSH2 0x209 JUMP JUMPDEST SWAP3 SWAP2 POP POP JUMP INVALID LOG2 PUSH5 0x6970667358 0x22 SLT KECCAK256 0xCE 0xAC JUMP 0xE2 0xD0 0xA9 0xAB BLOCKHASH DUP2 ORIGIN CALLF 0x9BEA GT CREATE2 RJUMPI 0x238B MULMOD DUP8 JUMPDEST OR 0xED 0xBA PUSH31 0x1E498929ACEFDB64736F6C634300081E003300000000000000000000000000 "
				},
				"gasEstimates": {
					"creation": {
						"codeDepositCost": "123000",
						"executionCost": "24466",
						"totalCost": "147466"
					},
					"external": {
						"currentStage()": "2553",
						"grow()": "31034"
					}
				},
				"methodIdentifiers": {
					"currentStage()": "5bf5d54c",
					"grow()": "5298948e"
				}
			},
			"storageLayout": {
				"storage": [
					{
						"astId": 10,
						"contract": "contracts/LearnEnum.sol:LearnEnum",
						"label": "currentStage",
						"offset": 0,
						"slot": "0",
						"type": "t_enum(GrowthStage)7"
					}
				],
				"types": {
					"t_enum(GrowthStage)7": {
						"encoding": "inplace",
						"label": "enum LearnEnum.GrowthStage",
						"numberOfBytes": "1"
					}
				}
			},
			"userdoc": {
				"kind": "user",
				"methods": {},
				"version": 1
			}
		}
	}
}