{
	"contracts/LiskGarden.sol": {
		"LiskGarden": {
			"abi": [
				{
					"inputs": [],
					"stateMutability": "nonpayable",
					"type": "constructor"
				},
				{
					"anonymous": false,
					"inputs": [
						{
							"indexed": true,
							"internalType": "uint256",
							"name": "plantId",
							"type": "uint256"
						}
					],
					"name": "PlantDied",
					"type": "event"
				},
				{
					"anonymous": false,
					"inputs": [
						{
							"indexed": true,
							"internalType": "uint256",
							"name": "plantId",
							"type": "uint256"
						},
						{
							"indexed": true,
							"internalType": "address",
							"name": "owner",
							"type": "address"
						},
						{
							"indexed": false,
							"internalType": "uint256",
							"name": "reward",
							"type": "uint256"
						}
					],
					"name": "PlantHarvested",
					"type": "event"
				},
				{
					"anonymous": false,
					"inputs": [
						{
							"indexed": true,
							"internalType": "address",
							"name": "owner",
							"type": "address"
						},
						{
							"indexed": true,
							"internalType": "uint256",
							"name": "plantId",
							"type": "uint256"
						}
					],
					"name": "PlantSeeded",
					"type": "event"
				},
				{
					"anonymous": false,
					"inputs": [
						{
							"indexed": true,
							"internalType": "uint256",
							"name": "plantId",
							"type": "uint256"
						},
						{
							"indexed": false,
							"internalType": "uint256",
							"name": "newWaterLevel",
							"type": "uint256"
						}
					],
					"name": "PlantWatered",
					"type": "event"
				},
				{
					"anonymous": false,
					"inputs": [
						{
							"indexed": true,
							"internalType": "uint256",
							"name": "plantId",
							"type": "uint256"
						},
						{
							"indexed": false,
							"internalType": "enum LiskGarden.GrowthStage",
							"name": "newStage",
							"type": "uint8"
						}
					],
					"name": "StageAdvanced",
					"type": "event"
				},
				{
					"inputs": [],
					"name": "HARVEST_REWARD",
					"outputs": [
						{
							"internalType": "uint256",
							"name": "",
							"type": "uint256"
						}
					],
					"stateMutability": "view",
					"type": "function"
				},
				{
					"inputs": [],
					"name": "PLANT_PRICE",
					"outputs": [
						{
							"internalType": "uint256",
							"name": "",
							"type": "uint256"
						}
					],
					"stateMutability": "view",
					"type": "function"
				},
				{
					"inputs": [],
					"name": "STAGE_DURATION",
					"outputs": [
						{
							"internalType": "uint256",
							"name": "",
							"type": "uint256"
						}
					],
					"stateMutability": "view",
					"type": "function"
				},
				{
					"inputs": [],
					"name": "WATER_DEPLETION_RATE",
					"outputs": [
						{
							"internalType": "uint8",
							"name": "",
							"type": "uint8"
						}
					],
					"stateMutability": "view",
					"type": "function"
				},
				{
					"inputs": [],
					"name": "WATER_DEPLETION_TIME",
					"outputs": [
						{
							"internalType": "uint256",
							"name": "",
							"type": "uint256"
						}
					],
					"stateMutability": "view",
					"type": "function"
				},
				{
					"inputs": [
						{
							"internalType": "uint256",
							"name": "plantId",
							"type": "uint256"
						}
					],
					"name": "calculateWaterLevel",
					"outputs": [
						{
							"internalType": "uint256",
							"name": "",
							"type": "uint256"
						}
					],
					"stateMutability": "view",
					"type": "function"
				},
				{
					"inputs": [],
					"name": "deposit",
					"outputs": [],
					"stateMutability": "payable",
					"type": "function"
				},
				{
					"inputs": [
						{
							"internalType": "uint256",
							"name": "plantId",
							"type": "uint256"
						}
					],
					"name": "getPlant",
					"outputs": [
						{
							"components": [
								{
									"internalType": "uint256",
									"name": "id",
									"type": "uint256"
								},
								{
									"internalType": "address",
									"name": "owner",
									"type": "address"
								},
								{
									"internalType": "enum LiskGarden.GrowthStage",
									"name": "stage",
									"type": "uint8"
								},
								{
									"internalType": "uint256",
									"name": "plantedDate",
									"type": "uint256"
								},
								{
									"internalType": "uint256",
									"name": "lastWatered",
									"type": "uint256"
								},
								{
									"internalType": "uint256",
									"name": "waterLevel",
									"type": "uint256"
								},
								{
									"internalType": "bool",
									"name": "exists",
									"type": "bool"
								},
								{
									"internalType": "bool",
									"name": "isDead",
									"type": "bool"
								}
							],
							"internalType": "struct LiskGarden.Plant",
							"name": "",
							"type": "tuple"
						}
					],
					"stateMutability": "view",
					"type": "function"
				},
				{
					"inputs": [
						{
							"internalType": "address",
							"name": "user",
							"type": "address"
						}
					],
					"name": "getUserPlants",
					"outputs": [
						{
							"internalType": "uint256[]",
							"name": "",
							"type": "uint256[]"
						}
					],
					"stateMutability": "view",
					"type": "function"
				},
				{
					"inputs": [
						{
							"internalType": "uint256",
							"name": "plantId",
							"type": "uint256"
						}
					],
					"name": "harvestPlant",
					"outputs": [],
					"stateMutability": "nonpayable",
					"type": "function"
				},
				{
					"inputs": [],
					"name": "owner",
					"outputs": [
						{
							"internalType": "address",
							"name": "",
							"type": "address"
						}
					],
					"stateMutability": "view",
					"type": "function"
				},
				{
					"inputs": [],
					"name": "plantCounter",
					"outputs": [
						{
							"internalType": "uint256",
							"name": "",
							"type": "uint256"
						}
					],
					"stateMutability": "view",
					"type": "function"
				},
				{
					"inputs": [],
					"name": "plantSeed",
					"outputs": [
						{
							"internalType": "uint256",
							"name": "",
							"type": "uint256"
						}
					],
					"stateMutability": "payable",
					"type": "function"
				},
				{
					"inputs": [
						{
							"internalType": "uint256",
							"name": "",
							"type": "uint256"
						}
					],
					"name": "plants",
					"outputs": [
						{
							"internalType": "uint256",
							"name": "id",
							"type": "uint256"
						},
						{
							"internalType": "address",
							"name": "owner",
							"type": "address"
						},
						{
							"internalType": "enum LiskGarden.GrowthStage",
							"name": "stage",
							"type": "uint8"
						},
						{
							"internalType": "uint256",
							"name": "plantedDate",
							"type": "uint256"
						},
						{
							"internalType": "uint256",
							"name": "lastWatered",
							"type": "uint256"
						},
						{
							"internalType": "uint256",
							"name": "waterLevel",
							"type": "uint256"
						},
						{
							"internalType": "bool",
							"name": "exists",
							"type": "bool"
						},
						{
							"internalType": "bool",
							"name": "isDead",
							"type": "bool"
						}
					],
					"stateMutability": "view",
					"type": "function"
				},
				{
					"inputs": [
						{
							"internalType": "uint256",
							"name": "plantId",
							"type": "uint256"
						}
					],
					"name": "updatePlantStage",
					"outputs": [],
					"stateMutability": "nonpayable",
					"type": "function"
				},
				{
					"inputs": [
						{
							"internalType": "address",
							"name": "",
							"type": "address"
						},
						{
							"internalType": "uint256",
							"name": "",
							"type": "uint256"
						}
					],
					"name": "userPlants",
					"outputs": [
						{
							"internalType": "uint256",
							"name": "",
							"type": "uint256"
						}
					],
					"stateMutability": "view",
					"type": "function"
				},
				{
					"inputs": [
						{
							"internalType": "uint256",
							"name": "plantId",
							"type": "uint256"
						}
					],
					"name": "waterPlant",
					"outputs": [],
					"stateMutability": "nonpayable",
					"type": "function"
				},
				{
					"inputs": [],
					"name": "withdraw",
					"outputs": [],
					"stateMutability": "nonpayable",
					"type": "function"
				},
				{
					"stateMutability": "payable",
					"type": "receive"
				}
			],
			"devdoc": {
				"kind": "dev",
				"methods": {},
				"version": 1
			},
			"evm": {
				"assembly": "    /* \"contracts/LiskGarden.sol\":61:10313  contract LiskGarden {... */\n  mstore(0x40, 0x80)\n    /* \"contracts/LiskGarden.sol\":3076:3154  constructor() {... */\n  callvalue\n  dup1\n  iszero\n  tag_1\n  jumpi\n  revert(0x00, 0x00)\ntag_1:\n  pop\n    /* \"contracts/LiskGarden.sol\":3109:3119  msg.sender */\n  caller\n    /* \"contracts/LiskGarden.sol\":3101:3106  owner */\n  0x03\n  0x00\n    /* \"contracts/LiskGarden.sol\":3101:3119  owner = msg.sender */\n  0x0100\n  exp\n  dup2\n  sload\n  dup2\n  0xffffffffffffffffffffffffffffffffffffffff\n  mul\n  not\n  and\n  swap1\n  dup4\n  0xffffffffffffffffffffffffffffffffffffffff\n  and\n  mul\n  or\n  swap1\n  sstore\n  pop\n    /* \"contracts/LiskGarden.sol\":3145:3146  0 */\n  0x00\n    /* \"contracts/LiskGarden.sol\":3130:3142  plantCounter */\n  0x02\n    /* \"contracts/LiskGarden.sol\":3130:3146  plantCounter = 0 */\n  dup2\n  swap1\n  sstore\n  pop\n    /* \"contracts/LiskGarden.sol\":61:10313  contract LiskGarden {... */\n  dataSize(sub_0)\n  dup1\n  dataOffset(sub_0)\n  0x00\n  codecopy\n  0x00\n  return\nstop\n\nsub_0: assembly {\n        /* \"contracts/LiskGarden.sol\":61:10313  contract LiskGarden {... */\n      mstore(0x40, 0x80)\n      jumpi(tag_1, lt(calldatasize, 0x04))\n      shr(0xe0, calldataload(0x00))\n      dup1\n      0x8dd2361c\n      gt\n      tag_21\n      jumpi\n      dup1\n      0xcfc9a5f8\n      gt\n      tag_22\n      jumpi\n      dup1\n      0xcfc9a5f8\n      eq\n      tag_16\n      jumpi\n      dup1\n      0xd0e30db0\n      eq\n      tag_17\n      jumpi\n      dup1\n      0xddd42596\n      eq\n      tag_18\n      jumpi\n      dup1\n      0xe38f8448\n      eq\n      tag_19\n      jumpi\n      dup1\n      0xed0b1f5f\n      eq\n      tag_20\n      jumpi\n      jump(tag_2)\n    tag_22:\n      dup1\n      0x8dd2361c\n      eq\n      tag_12\n      jumpi\n      dup1\n      0x9886bcfa\n      eq\n      tag_13\n      jumpi\n      dup1\n      0x9c471749\n      eq\n      tag_14\n      jumpi\n      dup1\n      0xbacb5ebd\n      eq\n      tag_15\n      jumpi\n      jump(tag_2)\n    tag_21:\n      dup1\n      0x754e150d\n      gt\n      tag_23\n      jumpi\n      dup1\n      0x754e150d\n      eq\n      tag_7\n      jumpi\n      dup1\n      0x7ed4c5be\n      eq\n      tag_8\n      jumpi\n      dup1\n      0x891c0785\n      eq\n      tag_9\n      jumpi\n      dup1\n      0x8aee578b\n      eq\n      tag_10\n      jumpi\n      dup1\n      0x8da5cb5b\n      eq\n      tag_11\n      jumpi\n      jump(tag_2)\n    tag_23:\n      dup1\n      0x30cec0eb\n      eq\n      tag_3\n      jumpi\n      dup1\n      0x3ccfd60b\n      eq\n      tag_4\n      jumpi\n      dup1\n      0x51f9efde\n      eq\n      tag_5\n      jumpi\n      dup1\n      0x74119a38\n      eq\n      tag_6\n      jumpi\n      jump(tag_2)\n    tag_1:\n      jumpi(tag_2, calldatasize)\n      stop\n    tag_2:\n      revert(0x00, 0x00)\n        /* \"contracts/LiskGarden.sol\":9935:10055  function getUserPlants(address user) external view returns (uint256[] memory) {... */\n    tag_3:\n      callvalue\n      dup1\n      iszero\n      tag_26\n      jumpi\n      revert(0x00, 0x00)\n    tag_26:\n      pop\n      tag_27\n      0x04\n      dup1\n      calldatasize\n      sub\n      dup2\n      add\n      swap1\n      tag_28\n      swap2\n      swap1\n      tag_29\n      jump\t// in\n    tag_28:\n      tag_30\n      jump\t// in\n    tag_27:\n      mload(0x40)\n      tag_31\n      swap2\n      swap1\n      tag_32\n      jump\t// in\n    tag_31:\n      mload(0x40)\n      dup1\n      swap2\n      sub\n      swap1\n      return\n        /* \"contracts/LiskGarden.sol\":10063:10273  function withdraw() external {... */\n    tag_4:\n      callvalue\n      dup1\n      iszero\n      tag_33\n      jumpi\n      revert(0x00, 0x00)\n    tag_33:\n      pop\n      tag_34\n      tag_35\n      jump\t// in\n    tag_34:\n      stop\n        /* \"contracts/LiskGarden.sol\":1645:1695  uint256 public constant STAGE_DURATION = 1 minutes */\n    tag_5:\n      callvalue\n      dup1\n      iszero\n      tag_36\n      jumpi\n      revert(0x00, 0x00)\n    tag_36:\n      pop\n      tag_37\n      tag_38\n      jump\t// in\n    tag_37:\n      mload(0x40)\n      tag_39\n      swap2\n      swap1\n      tag_40\n      jump\t// in\n    tag_39:\n      mload(0x40)\n      dup1\n      swap2\n      sub\n      swap1\n      return\n        /* \"contracts/LiskGarden.sol\":3713:4393  function plantSeed() external payable returns (uint256) {... */\n    tag_6:\n      tag_41\n      tag_42\n      jump\t// in\n    tag_41:\n      mload(0x40)\n      tag_43\n      swap2\n      swap1\n      tag_40\n      jump\t// in\n    tag_43:\n      mload(0x40)\n      dup1\n      swap2\n      sub\n      swap1\n      return\n        /* \"contracts/LiskGarden.sol\":5025:5630  function calculateWaterLevel(uint256 plantId) public view returns (uint256) {... */\n    tag_7:\n      callvalue\n      dup1\n      iszero\n      tag_44\n      jumpi\n      revert(0x00, 0x00)\n    tag_44:\n      pop\n      tag_45\n      0x04\n      dup1\n      calldatasize\n      sub\n      dup2\n      add\n      swap1\n      tag_46\n      swap2\n      swap1\n      tag_47\n      jump\t// in\n    tag_46:\n      tag_48\n      jump\t// in\n    tag_45:\n      mload(0x40)\n      tag_49\n      swap2\n      swap1\n      tag_40\n      jump\t// in\n    tag_49:\n      mload(0x40)\n      dup1\n      swap2\n      sub\n      swap1\n      return\n        /* \"contracts/LiskGarden.sol\":1751:1808  uint256 public constant WATER_DEPLETION_TIME = 30 seconds */\n    tag_8:\n      callvalue\n      dup1\n      iszero\n      tag_50\n      jumpi\n      revert(0x00, 0x00)\n    tag_50:\n      pop\n      tag_51\n      tag_52\n      jump\t// in\n    tag_51:\n      mload(0x40)\n      tag_53\n      swap2\n      swap1\n      tag_40\n      jump\t// in\n    tag_53:\n      mload(0x40)\n      dup1\n      swap2\n      sub\n      swap1\n      return\n        /* \"contracts/LiskGarden.sol\":1473:1525  uint256 public constant HARVEST_REWARD = 0.003 ether */\n    tag_9:\n      callvalue\n      dup1\n      iszero\n      tag_54\n      jumpi\n      revert(0x00, 0x00)\n    tag_54:\n      pop\n      tag_55\n      tag_56\n      jump\t// in\n    tag_55:\n      mload(0x40)\n      tag_57\n      swap2\n      swap1\n      tag_40\n      jump\t// in\n    tag_57:\n      mload(0x40)\n      dup1\n      swap2\n      sub\n      swap1\n      return\n        /* \"contracts/LiskGarden.sol\":820:867  mapping(address => uint256[]) public userPlants */\n    tag_10:\n      callvalue\n      dup1\n      iszero\n      tag_58\n      jumpi\n      revert(0x00, 0x00)\n    tag_58:\n      pop\n      tag_59\n      0x04\n      dup1\n      calldatasize\n      sub\n      dup2\n      add\n      swap1\n      tag_60\n      swap2\n      swap1\n      tag_61\n      jump\t// in\n    tag_60:\n      tag_62\n      jump\t// in\n    tag_59:\n      mload(0x40)\n      tag_63\n      swap2\n      swap1\n      tag_40\n      jump\t// in\n    tag_63:\n      mload(0x40)\n      dup1\n      swap2\n      sub\n      swap1\n      return\n        /* \"contracts/LiskGarden.sol\":1080:1100  address public owner */\n    tag_11:\n      callvalue\n      dup1\n      iszero\n      tag_64\n      jumpi\n      revert(0x00, 0x00)\n    tag_64:\n      pop\n      tag_65\n      tag_66\n      jump\t// in\n    tag_65:\n      mload(0x40)\n      tag_67\n      swap2\n      swap1\n      tag_68\n      jump\t// in\n    tag_67:\n      mload(0x40)\n      dup1\n      swap2\n      sub\n      swap1\n      return\n        /* \"contracts/LiskGarden.sol\":637:676  mapping(uint256 => Plant) public plants */\n    tag_12:\n      callvalue\n      dup1\n      iszero\n      tag_69\n      jumpi\n      revert(0x00, 0x00)\n    tag_69:\n      pop\n      tag_70\n      0x04\n      dup1\n      calldatasize\n      sub\n      dup2\n      add\n      swap1\n      tag_71\n      swap2\n      swap1\n      tag_47\n      jump\t// in\n    tag_71:\n      tag_72\n      jump\t// in\n    tag_70:\n      mload(0x40)\n      tag_73\n      swap9\n      swap8\n      swap7\n      swap6\n      swap5\n      swap4\n      swap3\n      swap2\n      swap1\n      tag_74\n      jump\t// in\n    tag_73:\n      mload(0x40)\n      dup1\n      swap2\n      sub\n      swap1\n      return\n        /* \"contracts/LiskGarden.sol\":6594:7096  function waterPlant(uint256 plantId) external {... */\n    tag_13:\n      callvalue\n      dup1\n      iszero\n      tag_75\n      jumpi\n      revert(0x00, 0x00)\n    tag_75:\n      pop\n      tag_76\n      0x04\n      dup1\n      calldatasize\n      sub\n      dup2\n      add\n      swap1\n      tag_77\n      swap2\n      swap1\n      tag_47\n      jump\t// in\n    tag_77:\n      tag_78\n      jump\t// in\n    tag_76:\n      stop\n        /* \"contracts/LiskGarden.sol\":967:994  uint256 public plantCounter */\n    tag_14:\n      callvalue\n      dup1\n      iszero\n      tag_79\n      jumpi\n      revert(0x00, 0x00)\n    tag_79:\n      pop\n      tag_80\n      tag_81\n      jump\t// in\n    tag_80:\n      mload(0x40)\n      tag_82\n      swap2\n      swap1\n      tag_40\n      jump\t// in\n    tag_82:\n      mload(0x40)\n      dup1\n      swap2\n      sub\n      swap1\n      return\n        /* \"contracts/LiskGarden.sol\":1935:1981  uint8 public constant WATER_DEPLETION_RATE = 2 */\n    tag_15:\n      callvalue\n      dup1\n      iszero\n      tag_83\n      jumpi\n      revert(0x00, 0x00)\n    tag_83:\n      pop\n      tag_84\n      tag_85\n      jump\t// in\n    tag_84:\n      mload(0x40)\n      tag_86\n      swap2\n      swap1\n      tag_87\n      jump\t// in\n    tag_86:\n      mload(0x40)\n      dup1\n      swap2\n      sub\n      swap1\n      return\n        /* \"contracts/LiskGarden.sol\":1370:1419  uint256 public constant PLANT_PRICE = 0.001 ether */\n    tag_16:\n      callvalue\n      dup1\n      iszero\n      tag_88\n      jumpi\n      revert(0x00, 0x00)\n    tag_88:\n      pop\n      tag_89\n      tag_90\n      jump\t// in\n    tag_89:\n      mload(0x40)\n      tag_91\n      swap2\n      swap1\n      tag_40\n      jump\t// in\n    tag_91:\n      mload(0x40)\n      dup1\n      swap2\n      sub\n      swap1\n      return\n        /* \"contracts/LiskGarden.sol\":3162:3198  function deposit() public payable {} */\n    tag_17:\n      tag_92\n      tag_93\n      jump\t// in\n    tag_92:\n      stop\n        /* \"contracts/LiskGarden.sol\":7580:8553  function updatePlantStage(uint256 plantId) public {... */\n    tag_18:\n      callvalue\n      dup1\n      iszero\n      tag_94\n      jumpi\n      revert(0x00, 0x00)\n    tag_94:\n      pop\n      tag_95\n      0x04\n      dup1\n      calldatasize\n      sub\n      dup2\n      add\n      swap1\n      tag_96\n      swap2\n      swap1\n      tag_47\n      jump\t// in\n    tag_96:\n      tag_97\n      jump\t// in\n    tag_95:\n      stop\n        /* \"contracts/LiskGarden.sol\":8904:9562  function harvestPlant(uint256 plantId) external {... */\n    tag_19:\n      callvalue\n      dup1\n      iszero\n      tag_98\n      jumpi\n      revert(0x00, 0x00)\n    tag_98:\n      pop\n      tag_99\n      0x04\n      dup1\n      calldatasize\n      sub\n      dup2\n      add\n      swap1\n      tag_100\n      swap2\n      swap1\n      tag_47\n      jump\t// in\n    tag_100:\n      tag_101\n      jump\t// in\n    tag_99:\n      stop\n        /* \"contracts/LiskGarden.sol\":9719:9927  function getPlant(uint256 plantId) external view returns (Plant memory) {... */\n    tag_20:\n      callvalue\n      dup1\n      iszero\n      tag_102\n      jumpi\n      revert(0x00, 0x00)\n    tag_102:\n      pop\n      tag_103\n      0x04\n      dup1\n      calldatasize\n      sub\n      dup2\n      add\n      swap1\n      tag_104\n      swap2\n      swap1\n      tag_47\n      jump\t// in\n    tag_104:\n      tag_105\n      jump\t// in\n    tag_103:\n      mload(0x40)\n      tag_106\n      swap2\n      swap1\n      tag_107\n      jump\t// in\n    tag_106:\n      mload(0x40)\n      dup1\n      swap2\n      sub\n      swap1\n      return\n        /* \"contracts/LiskGarden.sol\":9935:10055  function getUserPlants(address user) external view returns (uint256[] memory) {... */\n    tag_30:\n        /* \"contracts/LiskGarden.sol\":9995:10011  uint256[] memory */\n      0x60\n        /* \"contracts/LiskGarden.sol\":10031:10041  userPlants */\n      0x01\n        /* \"contracts/LiskGarden.sol\":10031:10047  userPlants[user] */\n      0x00\n        /* \"contracts/LiskGarden.sol\":10042:10046  user */\n      dup4\n        /* \"contracts/LiskGarden.sol\":10031:10047  userPlants[user] */\n      0xffffffffffffffffffffffffffffffffffffffff\n      and\n      0xffffffffffffffffffffffffffffffffffffffff\n      and\n      dup2\n      mstore\n      0x20\n      add\n      swap1\n      dup2\n      mstore\n      0x20\n      add\n      0x00\n      keccak256\n        /* \"contracts/LiskGarden.sol\":10024:10047  return userPlants[user] */\n      dup1\n      sload\n      dup1\n      0x20\n      mul\n      0x20\n      add\n      mload(0x40)\n      swap1\n      dup2\n      add\n      0x40\n      mstore\n      dup1\n      swap3\n      swap2\n      swap1\n      dup2\n      dup2\n      mstore\n      0x20\n      add\n      dup3\n      dup1\n      sload\n      dup1\n      iszero\n      tag_109\n      jumpi\n      0x20\n      mul\n      dup3\n      add\n      swap2\n      swap1\n      0x00\n      mstore\n      keccak256(0x00, 0x20)\n      swap1\n    tag_110:\n      dup2\n      sload\n      dup2\n      mstore\n      0x20\n      add\n      swap1\n      0x01\n      add\n      swap1\n      dup1\n      dup4\n      gt\n      tag_110\n      jumpi\n    tag_109:\n      pop\n      pop\n      pop\n      pop\n      pop\n      swap1\n      pop\n        /* \"contracts/LiskGarden.sol\":9935:10055  function getUserPlants(address user) external view returns (uint256[] memory) {... */\n      swap2\n      swap1\n      pop\n      jump\t// out\n        /* \"contracts/LiskGarden.sol\":10063:10273  function withdraw() external {... */\n    tag_35:\n        /* \"contracts/LiskGarden.sol\":10125:10130  owner */\n      0x03\n      0x00\n      swap1\n      sload\n      swap1\n      0x0100\n      exp\n      swap1\n      div\n      0xffffffffffffffffffffffffffffffffffffffff\n      and\n        /* \"contracts/LiskGarden.sol\":10111:10130  msg.sender == owner */\n      0xffffffffffffffffffffffffffffffffffffffff\n      and\n        /* \"contracts/LiskGarden.sol\":10111:10121  msg.sender */\n      caller\n        /* \"contracts/LiskGarden.sol\":10111:10130  msg.sender == owner */\n      0xffffffffffffffffffffffffffffffffffffffff\n      and\n      eq\n        /* \"contracts/LiskGarden.sol\":10103:10146  require(msg.sender == owner, \"Bukan owner\") */\n      tag_112\n      jumpi\n      mload(0x40)\n      0x08c379a000000000000000000000000000000000000000000000000000000000\n      dup2\n      mstore\n      0x04\n      add\n      tag_113\n      swap1\n      tag_114\n      jump\t// in\n    tag_113:\n      mload(0x40)\n      dup1\n      swap2\n      sub\n      swap1\n      revert\n    tag_112:\n        /* \"contracts/LiskGarden.sol\":10158:10170  bool success */\n      0x00\n        /* \"contracts/LiskGarden.sol\":10176:10181  owner */\n      0x03\n      0x00\n      swap1\n      sload\n      swap1\n      0x0100\n      exp\n      swap1\n      div\n      0xffffffffffffffffffffffffffffffffffffffff\n      and\n        /* \"contracts/LiskGarden.sol\":10176:10186  owner.call */\n      0xffffffffffffffffffffffffffffffffffffffff\n      and\n        /* \"contracts/LiskGarden.sol\":10194:10215  address(this).balance */\n      selfbalance\n        /* \"contracts/LiskGarden.sol\":10176:10220  owner.call{value: address(this).balance}(\"\") */\n      mload(0x40)\n      tag_115\n      swap1\n      tag_116\n      jump\t// in\n    tag_115:\n      0x00\n      mload(0x40)\n      dup1\n      dup4\n      sub\n      dup2\n      dup6\n      dup8\n      gas\n      call\n      swap3\n      pop\n      pop\n      pop\n      returndatasize\n      dup1\n      0x00\n      dup2\n      eq\n      tag_119\n      jumpi\n      mload(0x40)\n      swap2\n      pop\n      and(add(returndatasize, 0x3f), not(0x1f))\n      dup3\n      add\n      0x40\n      mstore\n      returndatasize\n      dup3\n      mstore\n      returndatasize\n      0x00\n      0x20\n      dup5\n      add\n      returndatacopy\n      jump(tag_118)\n    tag_119:\n      0x60\n      swap2\n      pop\n    tag_118:\n      pop\n        /* \"contracts/LiskGarden.sol\":10157:10220  (bool success, ) = owner.call{value: address(this).balance}(\"\") */\n      pop\n      swap1\n      pop\n        /* \"contracts/LiskGarden.sol\":10239:10246  success */\n      dup1\n        /* \"contracts/LiskGarden.sol\":10231:10265  require(success, \"Transfer gagal\") */\n      tag_120\n      jumpi\n      mload(0x40)\n      0x08c379a000000000000000000000000000000000000000000000000000000000\n      dup2\n      mstore\n      0x04\n      add\n      tag_121\n      swap1\n      tag_122\n      jump\t// in\n    tag_121:\n      mload(0x40)\n      dup1\n      swap2\n      sub\n      swap1\n      revert\n    tag_120:\n        /* \"contracts/LiskGarden.sol\":10092:10273  {... */\n      pop\n        /* \"contracts/LiskGarden.sol\":10063:10273  function withdraw() external {... */\n      jump\t// out\n        /* \"contracts/LiskGarden.sol\":1645:1695  uint256 public constant STAGE_DURATION = 1 minutes */\n    tag_38:\n        /* \"contracts/LiskGarden.sol\":1686:1695  1 minutes */\n      0x3c\n        /* \"contracts/LiskGarden.sol\":1645:1695  uint256 public constant STAGE_DURATION = 1 minutes */\n      dup2\n      jump\t// out\n        /* \"contracts/LiskGarden.sol\":3713:4393  function plantSeed() external payable returns (uint256) {... */\n    tag_42:\n        /* \"contracts/LiskGarden.sol\":3760:3767  uint256 */\n      0x00\n        /* \"contracts/LiskGarden.sol\":1408:1419  0.001 ether */\n      0x038d7ea4c68000\n        /* \"contracts/LiskGarden.sol\":3872:3881  msg.value */\n      callvalue\n        /* \"contracts/LiskGarden.sol\":3872:3896  msg.value >= PLANT_PRICE */\n      lt\n      iszero\n        /* \"contracts/LiskGarden.sol\":3864:3897  require(msg.value >= PLANT_PRICE) */\n      tag_124\n      jumpi\n      revert(0x00, 0x00)\n    tag_124:\n        /* \"contracts/LiskGarden.sol\":3908:3920  plantCounter */\n      0x02\n      0x00\n        /* \"contracts/LiskGarden.sol\":3908:3922  plantCounter++ */\n      dup2\n      sload\n      dup1\n      swap3\n      swap2\n      swap1\n      tag_125\n      swap1\n      tag_126\n      jump\t// in\n    tag_125:\n      swap2\n      swap1\n      pop\n      sstore\n      pop\n        /* \"contracts/LiskGarden.sol\":3956:4250  Plant({... */\n      mload(0x40)\n      dup1\n      0x0100\n      add\n      0x40\n      mstore\n      dup1\n        /* \"contracts/LiskGarden.sol\":3982:3994  plantCounter */\n      sload(0x02)\n        /* \"contracts/LiskGarden.sol\":3956:4250  Plant({... */\n      dup2\n      mstore\n      0x20\n      add\n        /* \"contracts/LiskGarden.sol\":4017:4027  msg.sender */\n      caller\n        /* \"contracts/LiskGarden.sol\":3956:4250  Plant({... */\n      0xffffffffffffffffffffffffffffffffffffffff\n      and\n      dup2\n      mstore\n      0x20\n      add\n        /* \"contracts/LiskGarden.sol\":4050:4066  GrowthStage.SEED */\n      0x00\n        /* \"contracts/LiskGarden.sol\":3956:4250  Plant({... */\n      0x03\n      dup2\n      gt\n      iszero\n      tag_127\n      jumpi\n      tag_128\n      tag_129\n      jump\t// in\n    tag_128:\n    tag_127:\n      dup2\n      mstore\n      0x20\n      add\n        /* \"contracts/LiskGarden.sol\":4095:4110  block.timestamp */\n      timestamp\n        /* \"contracts/LiskGarden.sol\":3956:4250  Plant({... */\n      dup2\n      mstore\n      0x20\n      add\n        /* \"contracts/LiskGarden.sol\":4139:4154  block.timestamp */\n      timestamp\n        /* \"contracts/LiskGarden.sol\":3956:4250  Plant({... */\n      dup2\n      mstore\n      0x20\n      add\n        /* \"contracts/LiskGarden.sol\":4182:4185  100 */\n      0x64\n        /* \"contracts/LiskGarden.sol\":3956:4250  Plant({... */\n      dup2\n      mstore\n      0x20\n      add\n        /* \"contracts/LiskGarden.sol\":4209:4213  true */\n      0x01\n        /* \"contracts/LiskGarden.sol\":3956:4250  Plant({... */\n      iszero\n      iszero\n      dup2\n      mstore\n      0x20\n      add\n        /* \"contracts/LiskGarden.sol\":4237:4242  false */\n      0x00\n        /* \"contracts/LiskGarden.sol\":3956:4250  Plant({... */\n      iszero\n      iszero\n      dup2\n      mstore\n      pop\n        /* \"contracts/LiskGarden.sol\":3933:3939  plants */\n      0x00\n        /* \"contracts/LiskGarden.sol\":3933:3953  plants[plantCounter] */\n      0x00\n        /* \"contracts/LiskGarden.sol\":3940:3952  plantCounter */\n      sload(0x02)\n        /* \"contracts/LiskGarden.sol\":3933:3953  plants[plantCounter] */\n      dup2\n      mstore\n      0x20\n      add\n      swap1\n      dup2\n      mstore\n      0x20\n      add\n      0x00\n      keccak256\n        /* \"contracts/LiskGarden.sol\":3933:4250  plants[plantCounter] = Plant({... */\n      0x00\n      dup3\n      add\n      mload\n      dup2\n      0x00\n      add\n      sstore\n      0x20\n      dup3\n      add\n      mload\n      dup2\n      0x01\n      add\n      exp(0x0100, 0x00)\n      dup2\n      sload\n      dup2\n      0xffffffffffffffffffffffffffffffffffffffff\n      mul\n      not\n      and\n      swap1\n      dup4\n      0xffffffffffffffffffffffffffffffffffffffff\n      and\n      mul\n      or\n      swap1\n      sstore\n      pop\n      0x40\n      dup3\n      add\n      mload\n      dup2\n      0x01\n      add\n      exp(0x0100, 0x14)\n      dup2\n      sload\n      dup2\n      0xff\n      mul\n      not\n      and\n      swap1\n      dup4\n      0x03\n      dup2\n      gt\n      iszero\n      tag_130\n      jumpi\n      tag_131\n      tag_129\n      jump\t// in\n    tag_131:\n    tag_130:\n      mul\n      or\n      swap1\n      sstore\n      pop\n      0x60\n      dup3\n      add\n      mload\n      dup2\n      0x02\n      add\n      sstore\n      0x80\n      dup3\n      add\n      mload\n      dup2\n      0x03\n      add\n      sstore\n      0xa0\n      dup3\n      add\n      mload\n      dup2\n      0x04\n      add\n      sstore\n      0xc0\n      dup3\n      add\n      mload\n      dup2\n      0x05\n      add\n      exp(0x0100, 0x00)\n      dup2\n      sload\n      dup2\n      0xff\n      mul\n      not\n      and\n      swap1\n      dup4\n      iszero\n      iszero\n      mul\n      or\n      swap1\n      sstore\n      pop\n      0xe0\n      dup3\n      add\n      mload\n      dup2\n      0x05\n      add\n      exp(0x0100, 0x01)\n      dup2\n      sload\n      dup2\n      0xff\n      mul\n      not\n      and\n      swap1\n      dup4\n      iszero\n      iszero\n      mul\n      or\n      swap1\n      sstore\n      pop\n      swap1\n      pop\n      pop\n        /* \"contracts/LiskGarden.sol\":4261:4271  userPlants */\n      0x01\n        /* \"contracts/LiskGarden.sol\":4261:4283  userPlants[msg.sender] */\n      0x00\n        /* \"contracts/LiskGarden.sol\":4272:4282  msg.sender */\n      caller\n        /* \"contracts/LiskGarden.sol\":4261:4283  userPlants[msg.sender] */\n      0xffffffffffffffffffffffffffffffffffffffff\n      and\n      0xffffffffffffffffffffffffffffffffffffffff\n      and\n      dup2\n      mstore\n      0x20\n      add\n      swap1\n      dup2\n      mstore\n      0x20\n      add\n      0x00\n      keccak256\n        /* \"contracts/LiskGarden.sol\":4289:4301  plantCounter */\n      sload(0x02)\n        /* \"contracts/LiskGarden.sol\":4261:4302  userPlants[msg.sender].push(plantCounter) */\n      swap1\n      dup1\n      0x01\n      dup2\n      sload\n      add\n      dup1\n      dup3\n      sstore\n      dup1\n      swap2\n      pop\n      pop\n      0x01\n      swap1\n      sub\n      swap1\n      0x00\n      mstore\n      keccak256(0x00, 0x20)\n      add\n      0x00\n      swap1\n      swap2\n      swap1\n      swap2\n      swap1\n      swap2\n      pop\n      sstore\n        /* \"contracts/LiskGarden.sol\":4342:4354  plantCounter */\n      sload(0x02)\n        /* \"contracts/LiskGarden.sol\":4330:4340  msg.sender */\n      caller\n        /* \"contracts/LiskGarden.sol\":4318:4355  PlantSeeded(msg.sender, plantCounter) */\n      0xffffffffffffffffffffffffffffffffffffffff\n      and\n      0x4f5b22082ac57121703b0b6c1203ef527cfbfa5069616fee6deb979d124adbf0\n      mload(0x40)\n      mload(0x40)\n      dup1\n      swap2\n      sub\n      swap1\n      log3\n        /* \"contracts/LiskGarden.sol\":4373:4385  plantCounter */\n      sload(0x02)\n        /* \"contracts/LiskGarden.sol\":4366:4385  return plantCounter */\n      swap1\n      pop\n        /* \"contracts/LiskGarden.sol\":3713:4393  function plantSeed() external payable returns (uint256) {... */\n      swap1\n      jump\t// out\n        /* \"contracts/LiskGarden.sol\":5025:5630  function calculateWaterLevel(uint256 plantId) public view returns (uint256) {... */\n    tag_48:\n        /* \"contracts/LiskGarden.sol\":5092:5099  uint256 */\n      0x00\n        /* \"contracts/LiskGarden.sol\":5140:5161  Plant memory thePlant */\n      0x00\n        /* \"contracts/LiskGarden.sol\":5164:5170  plants */\n      0x00\n        /* \"contracts/LiskGarden.sol\":5164:5179  plants[plantId] */\n      0x00\n        /* \"contracts/LiskGarden.sol\":5171:5178  plantId */\n      dup5\n        /* \"contracts/LiskGarden.sol\":5164:5179  plants[plantId] */\n      dup2\n      mstore\n      0x20\n      add\n      swap1\n      dup2\n      mstore\n      0x20\n      add\n      0x00\n      keccak256\n        /* \"contracts/LiskGarden.sol\":5140:5179  Plant memory thePlant = plants[plantId] */\n      mload(0x40)\n      dup1\n      0x0100\n      add\n      0x40\n      mstore\n      swap1\n      dup2\n      0x00\n      dup3\n      add\n      sload\n      dup2\n      mstore\n      0x20\n      add\n      0x01\n      dup3\n      add\n      0x00\n      swap1\n      sload\n      swap1\n      0x0100\n      exp\n      swap1\n      div\n      0xffffffffffffffffffffffffffffffffffffffff\n      and\n      0xffffffffffffffffffffffffffffffffffffffff\n      and\n      0xffffffffffffffffffffffffffffffffffffffff\n      and\n      dup2\n      mstore\n      0x20\n      add\n      0x01\n      dup3\n      add\n      0x14\n      swap1\n      sload\n      swap1\n      0x0100\n      exp\n      swap1\n      div\n      0xff\n      and\n      0x03\n      dup2\n      gt\n      iszero\n      tag_134\n      jumpi\n      tag_135\n      tag_129\n      jump\t// in\n    tag_135:\n    tag_134:\n      0x03\n      dup2\n      gt\n      iszero\n      tag_136\n      jumpi\n      tag_137\n      tag_129\n      jump\t// in\n    tag_137:\n    tag_136:\n      dup2\n      mstore\n      0x20\n      add\n      0x02\n      dup3\n      add\n      sload\n      dup2\n      mstore\n      0x20\n      add\n      0x03\n      dup3\n      add\n      sload\n      dup2\n      mstore\n      0x20\n      add\n      0x04\n      dup3\n      add\n      sload\n      dup2\n      mstore\n      0x20\n      add\n      0x05\n      dup3\n      add\n      0x00\n      swap1\n      sload\n      swap1\n      0x0100\n      exp\n      swap1\n      div\n      0xff\n      and\n      iszero\n      iszero\n      iszero\n      iszero\n      dup2\n      mstore\n      0x20\n      add\n      0x05\n      dup3\n      add\n      0x01\n      swap1\n      sload\n      swap1\n      0x0100\n      exp\n      swap1\n      div\n      0xff\n      and\n      iszero\n      iszero\n      iszero\n      iszero\n      dup2\n      mstore\n      pop\n      pop\n      swap1\n      pop\n        /* \"contracts/LiskGarden.sol\":5195:5203  thePlant */\n      dup1\n        /* \"contracts/LiskGarden.sol\":5195:5210  thePlant.exists */\n      0xc0\n      add\n      mload\n        /* \"contracts/LiskGarden.sol\":5194:5210  !thePlant.exists */\n      iszero\n        /* \"contracts/LiskGarden.sol\":5194:5229  !thePlant.exists || thePlant.isDead */\n      dup1\n      tag_138\n      jumpi\n      pop\n        /* \"contracts/LiskGarden.sol\":5214:5222  thePlant */\n      dup1\n        /* \"contracts/LiskGarden.sol\":5214:5229  thePlant.isDead */\n      0xe0\n      add\n      mload\n        /* \"contracts/LiskGarden.sol\":5194:5229  !thePlant.exists || thePlant.isDead */\n    tag_138:\n        /* \"contracts/LiskGarden.sol\":5190:5265  if (!thePlant.exists || thePlant.isDead){... */\n      iszero\n      tag_139\n      jumpi\n        /* \"contracts/LiskGarden.sol\":5252:5253  0 */\n      0x00\n        /* \"contracts/LiskGarden.sol\":5245:5253  return 0 */\n      swap2\n      pop\n      pop\n      jump(tag_133)\n        /* \"contracts/LiskGarden.sol\":5190:5265  if (!thePlant.exists || thePlant.isDead){... */\n    tag_139:\n        /* \"contracts/LiskGarden.sol\":5275:5299  uint256 timeSinceWatered */\n      0x00\n        /* \"contracts/LiskGarden.sol\":5320:5328  thePlant */\n      dup2\n        /* \"contracts/LiskGarden.sol\":5320:5340  thePlant.lastWatered */\n      0x80\n      add\n      mload\n        /* \"contracts/LiskGarden.sol\":5302:5317  block.timestamp */\n      timestamp\n        /* \"contracts/LiskGarden.sol\":5302:5340  block.timestamp - thePlant.lastWatered */\n      tag_140\n      swap2\n      swap1\n      tag_141\n      jump\t// in\n    tag_140:\n        /* \"contracts/LiskGarden.sol\":5275:5340  uint256 timeSinceWatered = block.timestamp - thePlant.lastWatered */\n      swap1\n      pop\n        /* \"contracts/LiskGarden.sol\":5351:5377  uint256 depletionIntervals */\n      0x00\n        /* \"contracts/LiskGarden.sol\":1798:1808  30 seconds */\n      0x1e\n        /* \"contracts/LiskGarden.sol\":5380:5396  timeSinceWatered */\n      dup3\n        /* \"contracts/LiskGarden.sol\":5380:5419  timeSinceWatered / WATER_DEPLETION_TIME */\n      tag_142\n      swap2\n      swap1\n      tag_143\n      jump\t// in\n    tag_142:\n        /* \"contracts/LiskGarden.sol\":5351:5419  uint256 depletionIntervals = timeSinceWatered / WATER_DEPLETION_TIME */\n      swap1\n      pop\n        /* \"contracts/LiskGarden.sol\":5430:5447  uint256 waterLost */\n      0x00\n        /* \"contracts/LiskGarden.sol\":1980:1981  2 */\n      0x02\n        /* \"contracts/LiskGarden.sol\":5450:5491  depletionIntervals * WATER_DEPLETION_RATE */\n      0xff\n      and\n        /* \"contracts/LiskGarden.sol\":5450:5468  depletionIntervals */\n      dup3\n        /* \"contracts/LiskGarden.sol\":5450:5491  depletionIntervals * WATER_DEPLETION_RATE */\n      tag_144\n      swap2\n      swap1\n      tag_145\n      jump\t// in\n    tag_144:\n        /* \"contracts/LiskGarden.sol\":5430:5491  uint256 waterLost = depletionIntervals * WATER_DEPLETION_RATE */\n      swap1\n      pop\n        /* \"contracts/LiskGarden.sol\":5519:5527  thePlant */\n      dup4\n        /* \"contracts/LiskGarden.sol\":5519:5538  thePlant.waterLevel */\n      0xa0\n      add\n      mload\n        /* \"contracts/LiskGarden.sol\":5506:5515  waterLost */\n      dup2\n        /* \"contracts/LiskGarden.sol\":5506:5538  waterLost >= thePlant.waterLevel */\n      lt\n        /* \"contracts/LiskGarden.sol\":5502:5574  if (waterLost >= thePlant.waterLevel){... */\n      tag_146\n      jumpi\n        /* \"contracts/LiskGarden.sol\":5561:5562  0 */\n      0x00\n        /* \"contracts/LiskGarden.sol\":5554:5562  return 0 */\n      swap5\n      pop\n      pop\n      pop\n      pop\n      pop\n      jump(tag_133)\n        /* \"contracts/LiskGarden.sol\":5502:5574  if (waterLost >= thePlant.waterLevel){... */\n    tag_146:\n        /* \"contracts/LiskGarden.sol\":5613:5622  waterLost */\n      dup1\n        /* \"contracts/LiskGarden.sol\":5591:5599  thePlant */\n      dup5\n        /* \"contracts/LiskGarden.sol\":5591:5610  thePlant.waterLevel */\n      0xa0\n      add\n      mload\n        /* \"contracts/LiskGarden.sol\":5591:5622  thePlant.waterLevel - waterLost */\n      tag_147\n      swap2\n      swap1\n      tag_141\n      jump\t// in\n    tag_147:\n        /* \"contracts/LiskGarden.sol\":5584:5622  return thePlant.waterLevel - waterLost */\n      swap5\n      pop\n      pop\n      pop\n      pop\n      pop\n        /* \"contracts/LiskGarden.sol\":5025:5630  function calculateWaterLevel(uint256 plantId) public view returns (uint256) {... */\n    tag_133:\n      swap2\n      swap1\n      pop\n      jump\t// out\n        /* \"contracts/LiskGarden.sol\":1751:1808  uint256 public constant WATER_DEPLETION_TIME = 30 seconds */\n    tag_52:\n        /* \"contracts/LiskGarden.sol\":1798:1808  30 seconds */\n      0x1e\n        /* \"contracts/LiskGarden.sol\":1751:1808  uint256 public constant WATER_DEPLETION_TIME = 30 seconds */\n      dup2\n      jump\t// out\n        /* \"contracts/LiskGarden.sol\":1473:1525  uint256 public constant HARVEST_REWARD = 0.003 ether */\n    tag_56:\n        /* \"contracts/LiskGarden.sol\":1514:1525  0.003 ether */\n      0x0aa87bee538000\n        /* \"contracts/LiskGarden.sol\":1473:1525  uint256 public constant HARVEST_REWARD = 0.003 ether */\n      dup2\n      jump\t// out\n        /* \"contracts/LiskGarden.sol\":820:867  mapping(address => uint256[]) public userPlants */\n    tag_62:\n      mstore(0x20, 0x01)\n      dup2\n      0x00\n      mstore\n      keccak256(0x00, 0x40)\n      dup2\n      dup2\n      sload\n      dup2\n      lt\n      tag_148\n      jumpi\n      0x00\n      dup1\n      revert\n    tag_148:\n      swap1\n      0x00\n      mstore\n      keccak256(0x00, 0x20)\n      add\n      0x00\n      swap2\n      pop\n      swap2\n      pop\n      pop\n      sload\n      dup2\n      jump\t// out\n        /* \"contracts/LiskGarden.sol\":1080:1100  address public owner */\n    tag_66:\n      0x03\n      0x00\n      swap1\n      sload\n      swap1\n      0x0100\n      exp\n      swap1\n      div\n      0xffffffffffffffffffffffffffffffffffffffff\n      and\n      dup2\n      jump\t// out\n        /* \"contracts/LiskGarden.sol\":637:676  mapping(uint256 => Plant) public plants */\n    tag_72:\n      mstore(0x20, 0x00)\n      dup1\n      0x00\n      mstore\n      keccak256(0x00, 0x40)\n      0x00\n      swap2\n      pop\n      swap1\n      pop\n      dup1\n      0x00\n      add\n      sload\n      swap1\n      dup1\n      0x01\n      add\n      0x00\n      swap1\n      sload\n      swap1\n      0x0100\n      exp\n      swap1\n      div\n      0xffffffffffffffffffffffffffffffffffffffff\n      and\n      swap1\n      dup1\n      0x01\n      add\n      0x14\n      swap1\n      sload\n      swap1\n      0x0100\n      exp\n      swap1\n      div\n      0xff\n      and\n      swap1\n      dup1\n      0x02\n      add\n      sload\n      swap1\n      dup1\n      0x03\n      add\n      sload\n      swap1\n      dup1\n      0x04\n      add\n      sload\n      swap1\n      dup1\n      0x05\n      add\n      0x00\n      swap1\n      sload\n      swap1\n      0x0100\n      exp\n      swap1\n      div\n      0xff\n      and\n      swap1\n      dup1\n      0x05\n      add\n      0x01\n      swap1\n      sload\n      swap1\n      0x0100\n      exp\n      swap1\n      div\n      0xff\n      and\n      swap1\n      pop\n      dup9\n      jump\t// out\n        /* \"contracts/LiskGarden.sol\":6594:7096  function waterPlant(uint256 plantId) external {... */\n    tag_78:\n        /* \"contracts/LiskGarden.sol\":6679:6701  Plant storage thePlant */\n      0x00\n        /* \"contracts/LiskGarden.sol\":6704:6710  plants */\n      0x00\n        /* \"contracts/LiskGarden.sol\":6704:6719  plants[plantId] */\n      0x00\n        /* \"contracts/LiskGarden.sol\":6711:6718  plantId */\n      dup4\n        /* \"contracts/LiskGarden.sol\":6704:6719  plants[plantId] */\n      dup2\n      mstore\n      0x20\n      add\n      swap1\n      dup2\n      mstore\n      0x20\n      add\n      0x00\n      keccak256\n        /* \"contracts/LiskGarden.sol\":6679:6719  Plant storage thePlant = plants[plantId] */\n      swap1\n      pop\n        /* \"contracts/LiskGarden.sol\":6738:6746  thePlant */\n      dup1\n        /* \"contracts/LiskGarden.sol\":6738:6753  thePlant.exists */\n      0x05\n      add\n      0x00\n      swap1\n      sload\n      swap1\n      0x0100\n      exp\n      swap1\n      div\n      0xff\n      and\n        /* \"contracts/LiskGarden.sol\":6730:6780  require(thePlant.exists, \"The Plant doesnt exist\") */\n      tag_151\n      jumpi\n      mload(0x40)\n      0x08c379a000000000000000000000000000000000000000000000000000000000\n      dup2\n      mstore\n      0x04\n      add\n      tag_152\n      swap1\n      tag_153\n      jump\t// in\n    tag_152:\n      mload(0x40)\n      dup1\n      swap2\n      sub\n      swap1\n      revert\n    tag_151:\n        /* \"contracts/LiskGarden.sol\":6817:6827  msg.sender */\n      caller\n        /* \"contracts/LiskGarden.sol\":6799:6827  thePlant.owner == msg.sender */\n      0xffffffffffffffffffffffffffffffffffffffff\n      and\n        /* \"contracts/LiskGarden.sol\":6799:6807  thePlant */\n      dup2\n        /* \"contracts/LiskGarden.sol\":6799:6813  thePlant.owner */\n      0x01\n      add\n      0x00\n      swap1\n      sload\n      swap1\n      0x0100\n      exp\n      swap1\n      div\n      0xffffffffffffffffffffffffffffffffffffffff\n      and\n        /* \"contracts/LiskGarden.sol\":6799:6827  thePlant.owner == msg.sender */\n      0xffffffffffffffffffffffffffffffffffffffff\n      and\n      eq\n        /* \"contracts/LiskGarden.sol\":6791:6852  require(thePlant.owner == msg.sender, \"This plant not yours\") */\n      tag_154\n      jumpi\n      mload(0x40)\n      0x08c379a000000000000000000000000000000000000000000000000000000000\n      dup2\n      mstore\n      0x04\n      add\n      tag_155\n      swap1\n      tag_156\n      jump\t// in\n    tag_155:\n      mload(0x40)\n      dup1\n      swap2\n      sub\n      swap1\n      revert\n    tag_154:\n        /* \"contracts/LiskGarden.sol\":6872:6880  thePlant */\n      dup1\n        /* \"contracts/LiskGarden.sol\":6872:6887  thePlant.isDead */\n      0x05\n      add\n      0x01\n      swap1\n      sload\n      swap1\n      0x0100\n      exp\n      swap1\n      div\n      0xff\n      and\n        /* \"contracts/LiskGarden.sol\":6871:6887  !thePlant.isDead */\n      iszero\n        /* \"contracts/LiskGarden.sol\":6863:6909  require(!thePlant.isDead, \"The Plant is dead\") */\n      tag_157\n      jumpi\n      mload(0x40)\n      0x08c379a000000000000000000000000000000000000000000000000000000000\n      dup2\n      mstore\n      0x04\n      add\n      tag_158\n      swap1\n      tag_159\n      jump\t// in\n    tag_158:\n      mload(0x40)\n      dup1\n      swap2\n      sub\n      swap1\n      revert\n    tag_157:\n        /* \"contracts/LiskGarden.sol\":6942:6945  100 */\n      0x64\n        /* \"contracts/LiskGarden.sol\":6920:6928  thePlant */\n      dup2\n        /* \"contracts/LiskGarden.sol\":6920:6939  thePlant.waterLevel */\n      0x04\n      add\n        /* \"contracts/LiskGarden.sol\":6920:6945  thePlant.waterLevel = 100 */\n      dup2\n      swap1\n      sstore\n      pop\n        /* \"contracts/LiskGarden.sol\":6979:6994  block.timestamp */\n      timestamp\n        /* \"contracts/LiskGarden.sol\":6956:6964  thePlant */\n      dup2\n        /* \"contracts/LiskGarden.sol\":6956:6976  thePlant.lastWatered */\n      0x03\n      add\n        /* \"contracts/LiskGarden.sol\":6956:6994  thePlant.lastWatered = block.timestamp */\n      dup2\n      swap1\n      sstore\n      pop\n        /* \"contracts/LiskGarden.sol\":7023:7030  plantId */\n      dup2\n        /* \"contracts/LiskGarden.sol\":7010:7052  PlantWatered(plantId, thePlant.waterLevel) */\n      0xfa682feb3090180eda377672ba020dae237bd124aee1085e233d47762b7e4e81\n        /* \"contracts/LiskGarden.sol\":7032:7040  thePlant */\n      dup3\n        /* \"contracts/LiskGarden.sol\":7032:7051  thePlant.waterLevel */\n      0x04\n      add\n      sload\n        /* \"contracts/LiskGarden.sol\":7010:7052  PlantWatered(plantId, thePlant.waterLevel) */\n      mload(0x40)\n      tag_160\n      swap2\n      swap1\n      tag_40\n      jump\t// in\n    tag_160:\n      mload(0x40)\n      dup1\n      swap2\n      sub\n      swap1\n      log2\n        /* \"contracts/LiskGarden.sol\":7063:7088  updatePlantStage(plantId) */\n      tag_161\n        /* \"contracts/LiskGarden.sol\":7080:7087  plantId */\n      dup3\n        /* \"contracts/LiskGarden.sol\":7063:7079  updatePlantStage */\n      tag_97\n        /* \"contracts/LiskGarden.sol\":7063:7088  updatePlantStage(plantId) */\n      jump\t// in\n    tag_161:\n        /* \"contracts/LiskGarden.sol\":6640:7096  {... */\n      pop\n        /* \"contracts/LiskGarden.sol\":6594:7096  function waterPlant(uint256 plantId) external {... */\n      pop\n      jump\t// out\n        /* \"contracts/LiskGarden.sol\":967:994  uint256 public plantCounter */\n    tag_81:\n      sload(0x02)\n      dup2\n      jump\t// out\n        /* \"contracts/LiskGarden.sol\":1935:1981  uint8 public constant WATER_DEPLETION_RATE = 2 */\n    tag_85:\n        /* \"contracts/LiskGarden.sol\":1980:1981  2 */\n      0x02\n        /* \"contracts/LiskGarden.sol\":1935:1981  uint8 public constant WATER_DEPLETION_RATE = 2 */\n      dup2\n      jump\t// out\n        /* \"contracts/LiskGarden.sol\":1370:1419  uint256 public constant PLANT_PRICE = 0.001 ether */\n    tag_90:\n        /* \"contracts/LiskGarden.sol\":1408:1419  0.001 ether */\n      0x038d7ea4c68000\n        /* \"contracts/LiskGarden.sol\":1370:1419  uint256 public constant PLANT_PRICE = 0.001 ether */\n      dup2\n      jump\t// out\n        /* \"contracts/LiskGarden.sol\":3162:3198  function deposit() public payable {} */\n    tag_93:\n      jump\t// out\n        /* \"contracts/LiskGarden.sol\":7580:8553  function updatePlantStage(uint256 plantId) public {... */\n    tag_97:\n        /* \"contracts/LiskGarden.sol\":7669:7691  Plant storage thePlant */\n      0x00\n        /* \"contracts/LiskGarden.sol\":7694:7700  plants */\n      0x00\n        /* \"contracts/LiskGarden.sol\":7694:7709  plants[plantId] */\n      0x00\n        /* \"contracts/LiskGarden.sol\":7701:7708  plantId */\n      dup4\n        /* \"contracts/LiskGarden.sol\":7694:7709  plants[plantId] */\n      dup2\n      mstore\n      0x20\n      add\n      swap1\n      dup2\n      mstore\n      0x20\n      add\n      0x00\n      keccak256\n        /* \"contracts/LiskGarden.sol\":7669:7709  Plant storage thePlant = plants[plantId] */\n      swap1\n      pop\n        /* \"contracts/LiskGarden.sol\":7720:7740  GrowthStage oldStage */\n      0x00\n        /* \"contracts/LiskGarden.sol\":7743:7751  thePlant */\n      dup2\n        /* \"contracts/LiskGarden.sol\":7743:7757  thePlant.stage */\n      0x01\n      add\n      0x14\n      swap1\n      sload\n      swap1\n      0x0100\n      exp\n      swap1\n      div\n      0xff\n      and\n        /* \"contracts/LiskGarden.sol\":7720:7757  GrowthStage oldStage = thePlant.stage */\n      swap1\n      pop\n        /* \"contracts/LiskGarden.sol\":7776:7784  thePlant */\n      dup2\n        /* \"contracts/LiskGarden.sol\":7776:7791  thePlant.exists */\n      0x05\n      add\n      0x00\n      swap1\n      sload\n      swap1\n      0x0100\n      exp\n      swap1\n      div\n      0xff\n      and\n        /* \"contracts/LiskGarden.sol\":7768:7818  require(thePlant.exists, \"The Plant doesnt exist\") */\n      tag_164\n      jumpi\n      mload(0x40)\n      0x08c379a000000000000000000000000000000000000000000000000000000000\n      dup2\n      mstore\n      0x04\n      add\n      tag_165\n      swap1\n      tag_153\n      jump\t// in\n    tag_165:\n      mload(0x40)\n      dup1\n      swap2\n      sub\n      swap1\n      revert\n    tag_164:\n        /* \"contracts/LiskGarden.sol\":7829:7854  updateWaterLevel(plantId) */\n      tag_166\n        /* \"contracts/LiskGarden.sol\":7846:7853  plantId */\n      dup4\n        /* \"contracts/LiskGarden.sol\":7829:7845  updateWaterLevel */\n      tag_167\n        /* \"contracts/LiskGarden.sol\":7829:7854  updateWaterLevel(plantId) */\n      jump\t// in\n    tag_166:\n        /* \"contracts/LiskGarden.sol\":7869:7877  thePlant */\n      dup2\n        /* \"contracts/LiskGarden.sol\":7869:7884  thePlant.isDead */\n      0x05\n      add\n      0x01\n      swap1\n      sload\n      swap1\n      0x0100\n      exp\n      swap1\n      div\n      0xff\n      and\n        /* \"contracts/LiskGarden.sol\":7865:7919  if (thePlant.isDead){... */\n      iszero\n      tag_168\n      jumpi\n        /* \"contracts/LiskGarden.sol\":7900:7908  return ; */\n      pop\n      pop\n      jump(tag_163)\n        /* \"contracts/LiskGarden.sol\":7865:7919  if (thePlant.isDead){... */\n    tag_168:\n        /* \"contracts/LiskGarden.sol\":7929:7953  uint256 timeSincePlanted */\n      0x00\n        /* \"contracts/LiskGarden.sol\":7974:7982  thePlant */\n      dup3\n        /* \"contracts/LiskGarden.sol\":7974:7994  thePlant.lastWatered */\n      0x03\n      add\n      sload\n        /* \"contracts/LiskGarden.sol\":7956:7971  block.timestamp */\n      timestamp\n        /* \"contracts/LiskGarden.sol\":7956:7994  block.timestamp - thePlant.lastWatered */\n      tag_169\n      swap2\n      swap1\n      tag_141\n      jump\t// in\n    tag_169:\n        /* \"contracts/LiskGarden.sol\":7929:7994  uint256 timeSincePlanted = block.timestamp - thePlant.lastWatered */\n      swap1\n      pop\n        /* \"contracts/LiskGarden.sol\":8028:8037  4 minutes */\n      0xf0\n        /* \"contracts/LiskGarden.sol\":8008:8024  timeSincePlanted */\n      dup2\n        /* \"contracts/LiskGarden.sol\":8008:8037  timeSincePlanted >= 4 minutes */\n      lt\n        /* \"contracts/LiskGarden.sol\":8005:8435  if(timeSincePlanted >= 4 minutes){... */\n      tag_170\n      jumpi\n        /* \"contracts/LiskGarden.sol\":8070:8090  GrowthStage.BLOOMING */\n      0x03\n        /* \"contracts/LiskGarden.sol\":8053:8061  thePlant */\n      dup4\n        /* \"contracts/LiskGarden.sol\":8053:8067  thePlant.stage */\n      0x01\n      add\n      0x14\n        /* \"contracts/LiskGarden.sol\":8053:8090  thePlant.stage = GrowthStage.BLOOMING */\n      0x0100\n      exp\n      dup2\n      sload\n      dup2\n      0xff\n      mul\n      not\n      and\n      swap1\n      dup4\n      0x03\n      dup2\n      gt\n      iszero\n      tag_171\n      jumpi\n      tag_172\n      tag_129\n      jump\t// in\n    tag_172:\n    tag_171:\n      mul\n      or\n      swap1\n      sstore\n      pop\n        /* \"contracts/LiskGarden.sol\":8005:8435  if(timeSincePlanted >= 4 minutes){... */\n      jump(tag_173)\n    tag_170:\n        /* \"contracts/LiskGarden.sol\":8141:8150  3 minutes */\n      0xb4\n        /* \"contracts/LiskGarden.sol\":8121:8137  timeSincePlanted */\n      dup2\n        /* \"contracts/LiskGarden.sol\":8121:8150  timeSincePlanted >= 3 minutes */\n      lt\n        /* \"contracts/LiskGarden.sol\":8118:8435  if(timeSincePlanted >= 3 minutes){... */\n      tag_174\n      jumpi\n        /* \"contracts/LiskGarden.sol\":8183:8202  GrowthStage.GROWING */\n      0x02\n        /* \"contracts/LiskGarden.sol\":8166:8174  thePlant */\n      dup4\n        /* \"contracts/LiskGarden.sol\":8166:8180  thePlant.stage */\n      0x01\n      add\n      0x14\n        /* \"contracts/LiskGarden.sol\":8166:8202  thePlant.stage = GrowthStage.GROWING */\n      0x0100\n      exp\n      dup2\n      sload\n      dup2\n      0xff\n      mul\n      not\n      and\n      swap1\n      dup4\n      0x03\n      dup2\n      gt\n      iszero\n      tag_175\n      jumpi\n      tag_176\n      tag_129\n      jump\t// in\n    tag_176:\n    tag_175:\n      mul\n      or\n      swap1\n      sstore\n      pop\n        /* \"contracts/LiskGarden.sol\":8118:8435  if(timeSincePlanted >= 3 minutes){... */\n      jump(tag_177)\n    tag_174:\n        /* \"contracts/LiskGarden.sol\":8253:8262  2 minutes */\n      0x78\n        /* \"contracts/LiskGarden.sol\":8233:8249  timeSincePlanted */\n      dup2\n        /* \"contracts/LiskGarden.sol\":8233:8262  timeSincePlanted >= 2 minutes */\n      lt\n        /* \"contracts/LiskGarden.sol\":8230:8435  if(timeSincePlanted >= 2 minutes){... */\n      tag_178\n      jumpi\n        /* \"contracts/LiskGarden.sol\":8295:8313  GrowthStage.SPROUT */\n      0x01\n        /* \"contracts/LiskGarden.sol\":8278:8286  thePlant */\n      dup4\n        /* \"contracts/LiskGarden.sol\":8278:8292  thePlant.stage */\n      0x01\n      add\n      0x14\n        /* \"contracts/LiskGarden.sol\":8278:8313  thePlant.stage = GrowthStage.SPROUT */\n      0x0100\n      exp\n      dup2\n      sload\n      dup2\n      0xff\n      mul\n      not\n      and\n      swap1\n      dup4\n      0x03\n      dup2\n      gt\n      iszero\n      tag_179\n      jumpi\n      tag_180\n      tag_129\n      jump\t// in\n    tag_180:\n    tag_179:\n      mul\n      or\n      swap1\n      sstore\n      pop\n        /* \"contracts/LiskGarden.sol\":8230:8435  if(timeSincePlanted >= 2 minutes){... */\n      jump(tag_181)\n    tag_178:\n        /* \"contracts/LiskGarden.sol\":8365:8374  1 minutes */\n      0x3c\n        /* \"contracts/LiskGarden.sol\":8345:8361  timeSincePlanted */\n      dup2\n        /* \"contracts/LiskGarden.sol\":8345:8374  timeSincePlanted >= 1 minutes */\n      lt\n        /* \"contracts/LiskGarden.sol\":8341:8435  if (timeSincePlanted >= 1 minutes){... */\n      tag_182\n      jumpi\n        /* \"contracts/LiskGarden.sol\":8407:8423  GrowthStage.SEED */\n      0x00\n        /* \"contracts/LiskGarden.sol\":8390:8398  thePlant */\n      dup4\n        /* \"contracts/LiskGarden.sol\":8390:8404  thePlant.stage */\n      0x01\n      add\n      0x14\n        /* \"contracts/LiskGarden.sol\":8390:8423  thePlant.stage = GrowthStage.SEED */\n      0x0100\n      exp\n      dup2\n      sload\n      dup2\n      0xff\n      mul\n      not\n      and\n      swap1\n      dup4\n      0x03\n      dup2\n      gt\n      iszero\n      tag_183\n      jumpi\n      tag_184\n      tag_129\n      jump\t// in\n    tag_184:\n    tag_183:\n      mul\n      or\n      swap1\n      sstore\n      pop\n        /* \"contracts/LiskGarden.sol\":8341:8435  if (timeSincePlanted >= 1 minutes){... */\n    tag_182:\n        /* \"contracts/LiskGarden.sol\":8230:8435  if(timeSincePlanted >= 2 minutes){... */\n    tag_181:\n        /* \"contracts/LiskGarden.sol\":8118:8435  if(timeSincePlanted >= 3 minutes){... */\n    tag_177:\n        /* \"contracts/LiskGarden.sol\":8005:8435  if(timeSincePlanted >= 4 minutes){... */\n    tag_173:\n        /* \"contracts/LiskGarden.sol\":8467:8475  oldStage */\n      dup2\n        /* \"contracts/LiskGarden.sol\":8449:8475  thePlant.stage != oldStage */\n      0x03\n      dup2\n      gt\n      iszero\n      tag_185\n      jumpi\n      tag_186\n      tag_129\n      jump\t// in\n    tag_186:\n    tag_185:\n        /* \"contracts/LiskGarden.sol\":8449:8457  thePlant */\n      dup4\n        /* \"contracts/LiskGarden.sol\":8449:8463  thePlant.stage */\n      0x01\n      add\n      0x14\n      swap1\n      sload\n      swap1\n      0x0100\n      exp\n      swap1\n      div\n      0xff\n      and\n        /* \"contracts/LiskGarden.sol\":8449:8475  thePlant.stage != oldStage */\n      0x03\n      dup2\n      gt\n      iszero\n      tag_187\n      jumpi\n      tag_188\n      tag_129\n      jump\t// in\n    tag_188:\n    tag_187:\n      eq\n        /* \"contracts/LiskGarden.sol\":8445:8546  if (thePlant.stage != oldStage){... */\n      tag_189\n      jumpi\n        /* \"contracts/LiskGarden.sol\":8510:8517  plantId */\n      dup4\n        /* \"contracts/LiskGarden.sol\":8496:8534  StageAdvanced(plantId, thePlant.stage) */\n      0x338b8976706f9da67298dddfa1ea4ff7d99cce68b9ca39c4f348994f8e2124a8\n        /* \"contracts/LiskGarden.sol\":8519:8527  thePlant */\n      dup5\n        /* \"contracts/LiskGarden.sol\":8519:8533  thePlant.stage */\n      0x01\n      add\n      0x14\n      swap1\n      sload\n      swap1\n      0x0100\n      exp\n      swap1\n      div\n      0xff\n      and\n        /* \"contracts/LiskGarden.sol\":8496:8534  StageAdvanced(plantId, thePlant.stage) */\n      mload(0x40)\n      tag_190\n      swap2\n      swap1\n      tag_191\n      jump\t// in\n    tag_190:\n      mload(0x40)\n      dup1\n      swap2\n      sub\n      swap1\n      log2\n        /* \"contracts/LiskGarden.sol\":8445:8546  if (thePlant.stage != oldStage){... */\n    tag_189:\n        /* \"contracts/LiskGarden.sol\":7630:8553  {... */\n      pop\n      pop\n      pop\n        /* \"contracts/LiskGarden.sol\":7580:8553  function updatePlantStage(uint256 plantId) public {... */\n    tag_163:\n      pop\n      jump\t// out\n        /* \"contracts/LiskGarden.sol\":8904:9562  function harvestPlant(uint256 plantId) external {... */\n    tag_101:\n        /* \"contracts/LiskGarden.sol\":8991:9013  Plant storage thePlant */\n      0x00\n        /* \"contracts/LiskGarden.sol\":9016:9022  plants */\n      0x00\n        /* \"contracts/LiskGarden.sol\":9016:9031  plants[plantId] */\n      0x00\n        /* \"contracts/LiskGarden.sol\":9023:9030  plantId */\n      dup4\n        /* \"contracts/LiskGarden.sol\":9016:9031  plants[plantId] */\n      dup2\n      mstore\n      0x20\n      add\n      swap1\n      dup2\n      mstore\n      0x20\n      add\n      0x00\n      keccak256\n        /* \"contracts/LiskGarden.sol\":8991:9031  Plant storage thePlant = plants[plantId] */\n      swap1\n      pop\n        /* \"contracts/LiskGarden.sol\":9050:9058  thePlant */\n      dup1\n        /* \"contracts/LiskGarden.sol\":9050:9065  thePlant.exists */\n      0x05\n      add\n      0x00\n      swap1\n      sload\n      swap1\n      0x0100\n      exp\n      swap1\n      div\n      0xff\n      and\n        /* \"contracts/LiskGarden.sol\":9042:9092  require(thePlant.exists, \"The Plant doesnt exist\") */\n      tag_193\n      jumpi\n      mload(0x40)\n      0x08c379a000000000000000000000000000000000000000000000000000000000\n      dup2\n      mstore\n      0x04\n      add\n      tag_194\n      swap1\n      tag_153\n      jump\t// in\n    tag_194:\n      mload(0x40)\n      dup1\n      swap2\n      sub\n      swap1\n      revert\n    tag_193:\n        /* \"contracts/LiskGarden.sol\":9125:9133  thePlant */\n      dup1\n        /* \"contracts/LiskGarden.sol\":9125:9139  thePlant.owner */\n      0x01\n      add\n      0x00\n      swap1\n      sload\n      swap1\n      0x0100\n      exp\n      swap1\n      div\n      0xffffffffffffffffffffffffffffffffffffffff\n      and\n        /* \"contracts/LiskGarden.sol\":9111:9139  msg.sender == thePlant.owner */\n      0xffffffffffffffffffffffffffffffffffffffff\n      and\n        /* \"contracts/LiskGarden.sol\":9111:9121  msg.sender */\n      caller\n        /* \"contracts/LiskGarden.sol\":9111:9139  msg.sender == thePlant.owner */\n      0xffffffffffffffffffffffffffffffffffffffff\n      and\n      eq\n        /* \"contracts/LiskGarden.sol\":9103:9164  require(msg.sender == thePlant.owner, \"This plant not yours\") */\n      tag_195\n      jumpi\n      mload(0x40)\n      0x08c379a000000000000000000000000000000000000000000000000000000000\n      dup2\n      mstore\n      0x04\n      add\n      tag_196\n      swap1\n      tag_156\n      jump\t// in\n    tag_196:\n      mload(0x40)\n      dup1\n      swap2\n      sub\n      swap1\n      revert\n    tag_195:\n        /* \"contracts/LiskGarden.sol\":9184:9192  thePlant */\n      dup1\n        /* \"contracts/LiskGarden.sol\":9184:9199  thePlant.isDead */\n      0x05\n      add\n      0x01\n      swap1\n      sload\n      swap1\n      0x0100\n      exp\n      swap1\n      div\n      0xff\n      and\n        /* \"contracts/LiskGarden.sol\":9183:9199  !thePlant.isDead */\n      iszero\n        /* \"contracts/LiskGarden.sol\":9175:9221  require(!thePlant.isDead, \"The Plant is dead\") */\n      tag_197\n      jumpi\n      mload(0x40)\n      0x08c379a000000000000000000000000000000000000000000000000000000000\n      dup2\n      mstore\n      0x04\n      add\n      tag_198\n      swap1\n      tag_159\n      jump\t// in\n    tag_198:\n      mload(0x40)\n      dup1\n      swap2\n      sub\n      swap1\n      revert\n    tag_197:\n        /* \"contracts/LiskGarden.sol\":9232:9257  updatePlantStage(plantId) */\n      tag_199\n        /* \"contracts/LiskGarden.sol\":9249:9256  plantId */\n      dup3\n        /* \"contracts/LiskGarden.sol\":9232:9248  updatePlantStage */\n      tag_97\n        /* \"contracts/LiskGarden.sol\":9232:9257  updatePlantStage(plantId) */\n      jump\t// in\n    tag_199:\n        /* \"contracts/LiskGarden.sol\":9294:9314  GrowthStage.BLOOMING */\n      0x03\n        /* \"contracts/LiskGarden.sol\":9276:9314  thePlant.stage == GrowthStage.BLOOMING */\n      dup1\n      dup2\n      gt\n      iszero\n      tag_200\n      jumpi\n      tag_201\n      tag_129\n      jump\t// in\n    tag_201:\n    tag_200:\n        /* \"contracts/LiskGarden.sol\":9276:9284  thePlant */\n      dup2\n        /* \"contracts/LiskGarden.sol\":9276:9290  thePlant.stage */\n      0x01\n      add\n      0x14\n      swap1\n      sload\n      swap1\n      0x0100\n      exp\n      swap1\n      div\n      0xff\n      and\n        /* \"contracts/LiskGarden.sol\":9276:9314  thePlant.stage == GrowthStage.BLOOMING */\n      0x03\n      dup2\n      gt\n      iszero\n      tag_202\n      jumpi\n      tag_203\n      tag_129\n      jump\t// in\n    tag_203:\n    tag_202:\n      eq\n        /* \"contracts/LiskGarden.sol\":9268:9341  require(thePlant.stage == GrowthStage.BLOOMING, \"The stage doesnt macth\") */\n      tag_204\n      jumpi\n      mload(0x40)\n      0x08c379a000000000000000000000000000000000000000000000000000000000\n      dup2\n      mstore\n      0x04\n      add\n      tag_205\n      swap1\n      tag_206\n      jump\t// in\n    tag_205:\n      mload(0x40)\n      dup1\n      swap2\n      sub\n      swap1\n      revert\n    tag_204:\n        /* \"contracts/LiskGarden.sol\":9370:9375  false */\n      0x00\n        /* \"contracts/LiskGarden.sol\":9352:9360  thePlant */\n      dup2\n        /* \"contracts/LiskGarden.sol\":9352:9367  thePlant.exists */\n      0x05\n      add\n      0x00\n        /* \"contracts/LiskGarden.sol\":9352:9375  thePlant.exists = false */\n      0x0100\n      exp\n      dup2\n      sload\n      dup2\n      0xff\n      mul\n      not\n      and\n      swap1\n      dup4\n      iszero\n      iszero\n      mul\n      or\n      swap1\n      sstore\n      pop\n        /* \"contracts/LiskGarden.sol\":9415:9420  owner */\n      0x03\n      0x00\n      swap1\n      sload\n      swap1\n      0x0100\n      exp\n      swap1\n      div\n      0xffffffffffffffffffffffffffffffffffffffff\n      and\n        /* \"contracts/LiskGarden.sol\":9391:9437  PlantHarvested(plantId, owner, HARVEST_REWARD) */\n      0xffffffffffffffffffffffffffffffffffffffff\n      and\n        /* \"contracts/LiskGarden.sol\":9406:9413  plantId */\n      dup3\n        /* \"contracts/LiskGarden.sol\":9391:9437  PlantHarvested(plantId, owner, HARVEST_REWARD) */\n      0x79f2138ea100070ff95b59c265da7aa3c7a0f61595fe1bb2f5fda2762f398847\n        /* \"contracts/LiskGarden.sol\":1514:1525  0.003 ether */\n      0x0aa87bee538000\n        /* \"contracts/LiskGarden.sol\":9391:9437  PlantHarvested(plantId, owner, HARVEST_REWARD) */\n      mload(0x40)\n      tag_207\n      swap2\n      swap1\n      tag_40\n      jump\t// in\n    tag_207:\n      mload(0x40)\n      dup1\n      swap2\n      sub\n      swap1\n      log3\n        /* \"contracts/LiskGarden.sol\":9449:9461  bool success */\n      0x00\n        /* \"contracts/LiskGarden.sol\":9467:9477  msg.sender */\n      caller\n        /* \"contracts/LiskGarden.sol\":9467:9482  msg.sender.call */\n      0xffffffffffffffffffffffffffffffffffffffff\n      and\n        /* \"contracts/LiskGarden.sol\":1514:1525  0.003 ether */\n      0x0aa87bee538000\n        /* \"contracts/LiskGarden.sol\":9467:9509  msg.sender.call{value: HARVEST_REWARD}(\"\") */\n      mload(0x40)\n      tag_208\n      swap1\n      tag_116\n      jump\t// in\n    tag_208:\n      0x00\n      mload(0x40)\n      dup1\n      dup4\n      sub\n      dup2\n      dup6\n      dup8\n      gas\n      call\n      swap3\n      pop\n      pop\n      pop\n      returndatasize\n      dup1\n      0x00\n      dup2\n      eq\n      tag_211\n      jumpi\n      mload(0x40)\n      swap2\n      pop\n      and(add(returndatasize, 0x3f), not(0x1f))\n      dup3\n      add\n      0x40\n      mstore\n      returndatasize\n      dup3\n      mstore\n      returndatasize\n      0x00\n      0x20\n      dup5\n      add\n      returndatacopy\n      jump(tag_210)\n    tag_211:\n      0x60\n      swap2\n      pop\n    tag_210:\n      pop\n        /* \"contracts/LiskGarden.sol\":9448:9509  (bool success, ) = msg.sender.call{value: HARVEST_REWARD}(\"\") */\n      pop\n      swap1\n      pop\n        /* \"contracts/LiskGarden.sol\":9528:9535  success */\n      dup1\n        /* \"contracts/LiskGarden.sol\":9520:9554  require(success, \"Transfer gagal\") */\n      tag_212\n      jumpi\n      mload(0x40)\n      0x08c379a000000000000000000000000000000000000000000000000000000000\n      dup2\n      mstore\n      0x04\n      add\n      tag_213\n      swap1\n      tag_122\n      jump\t// in\n    tag_213:\n      mload(0x40)\n      dup1\n      swap2\n      sub\n      swap1\n      revert\n    tag_212:\n        /* \"contracts/LiskGarden.sol\":8952:9562  {... */\n      pop\n      pop\n        /* \"contracts/LiskGarden.sol\":8904:9562  function harvestPlant(uint256 plantId) external {... */\n      pop\n      jump\t// out\n        /* \"contracts/LiskGarden.sol\":9719:9927  function getPlant(uint256 plantId) external view returns (Plant memory) {... */\n    tag_105:\n        /* \"contracts/LiskGarden.sol\":9777:9789  Plant memory */\n      tag_214\n      tag_215\n      jump\t// in\n    tag_214:\n        /* \"contracts/LiskGarden.sol\":9802:9820  Plant memory plant */\n      0x00\n        /* \"contracts/LiskGarden.sol\":9823:9829  plants */\n      0x00\n        /* \"contracts/LiskGarden.sol\":9823:9838  plants[plantId] */\n      0x00\n        /* \"contracts/LiskGarden.sol\":9830:9837  plantId */\n      dup5\n        /* \"contracts/LiskGarden.sol\":9823:9838  plants[plantId] */\n      dup2\n      mstore\n      0x20\n      add\n      swap1\n      dup2\n      mstore\n      0x20\n      add\n      0x00\n      keccak256\n        /* \"contracts/LiskGarden.sol\":9802:9838  Plant memory plant = plants[plantId] */\n      mload(0x40)\n      dup1\n      0x0100\n      add\n      0x40\n      mstore\n      swap1\n      dup2\n      0x00\n      dup3\n      add\n      sload\n      dup2\n      mstore\n      0x20\n      add\n      0x01\n      dup3\n      add\n      0x00\n      swap1\n      sload\n      swap1\n      0x0100\n      exp\n      swap1\n      div\n      0xffffffffffffffffffffffffffffffffffffffff\n      and\n      0xffffffffffffffffffffffffffffffffffffffff\n      and\n      0xffffffffffffffffffffffffffffffffffffffff\n      and\n      dup2\n      mstore\n      0x20\n      add\n      0x01\n      dup3\n      add\n      0x14\n      swap1\n      sload\n      swap1\n      0x0100\n      exp\n      swap1\n      div\n      0xff\n      and\n      0x03\n      dup2\n      gt\n      iszero\n      tag_217\n      jumpi\n      tag_218\n      tag_129\n      jump\t// in\n    tag_218:\n    tag_217:\n      0x03\n      dup2\n      gt\n      iszero\n      tag_219\n      jumpi\n      tag_220\n      tag_129\n      jump\t// in\n    tag_220:\n    tag_219:\n      dup2\n      mstore\n      0x20\n      add\n      0x02\n      dup3\n      add\n      sload\n      dup2\n      mstore\n      0x20\n      add\n      0x03\n      dup3\n      add\n      sload\n      dup2\n      mstore\n      0x20\n      add\n      0x04\n      dup3\n      add\n      sload\n      dup2\n      mstore\n      0x20\n      add\n      0x05\n      dup3\n      add\n      0x00\n      swap1\n      sload\n      swap1\n      0x0100\n      exp\n      swap1\n      div\n      0xff\n      and\n      iszero\n      iszero\n      iszero\n      iszero\n      dup2\n      mstore\n      0x20\n      add\n      0x05\n      dup3\n      add\n      0x01\n      swap1\n      sload\n      swap1\n      0x0100\n      exp\n      swap1\n      div\n      0xff\n      and\n      iszero\n      iszero\n      iszero\n      iszero\n      dup2\n      mstore\n      pop\n      pop\n      swap1\n      pop\n        /* \"contracts/LiskGarden.sol\":9868:9896  calculateWaterLevel(plantId) */\n      tag_221\n        /* \"contracts/LiskGarden.sol\":9888:9895  plantId */\n      dup4\n        /* \"contracts/LiskGarden.sol\":9868:9887  calculateWaterLevel */\n      tag_48\n        /* \"contracts/LiskGarden.sol\":9868:9896  calculateWaterLevel(plantId) */\n      jump\t// in\n    tag_221:\n        /* \"contracts/LiskGarden.sol\":9849:9854  plant */\n      dup2\n        /* \"contracts/LiskGarden.sol\":9849:9865  plant.waterLevel */\n      0xa0\n      add\n        /* \"contracts/LiskGarden.sol\":9849:9896  plant.waterLevel = calculateWaterLevel(plantId) */\n      dup2\n      dup2\n      mstore\n      pop\n      pop\n        /* \"contracts/LiskGarden.sol\":9914:9919  plant */\n      dup1\n        /* \"contracts/LiskGarden.sol\":9907:9919  return plant */\n      swap2\n      pop\n      pop\n        /* \"contracts/LiskGarden.sol\":9719:9927  function getPlant(uint256 plantId) external view returns (Plant memory) {... */\n      swap2\n      swap1\n      pop\n      jump\t// out\n        /* \"contracts/LiskGarden.sol\":5913:6298  function updateWaterLevel(uint256 plantId) internal {... */\n    tag_167:\n        /* \"contracts/LiskGarden.sol\":6004:6026  Plant storage thePlant */\n      0x00\n        /* \"contracts/LiskGarden.sol\":6029:6035  plants */\n      0x00\n        /* \"contracts/LiskGarden.sol\":6029:6044  plants[plantId] */\n      0x00\n        /* \"contracts/LiskGarden.sol\":6036:6043  plantId */\n      dup4\n        /* \"contracts/LiskGarden.sol\":6029:6044  plants[plantId] */\n      dup2\n      mstore\n      0x20\n      add\n      swap1\n      dup2\n      mstore\n      0x20\n      add\n      0x00\n      keccak256\n        /* \"contracts/LiskGarden.sol\":6004:6044  Plant storage thePlant = plants[plantId] */\n      swap1\n      pop\n        /* \"contracts/LiskGarden.sol\":6055:6075  uint256 currentWater */\n      0x00\n        /* \"contracts/LiskGarden.sol\":6078:6106  calculateWaterLevel(plantId) */\n      tag_223\n        /* \"contracts/LiskGarden.sol\":6098:6105  plantId */\n      dup4\n        /* \"contracts/LiskGarden.sol\":6078:6097  calculateWaterLevel */\n      tag_48\n        /* \"contracts/LiskGarden.sol\":6078:6106  calculateWaterLevel(plantId) */\n      jump\t// in\n    tag_223:\n        /* \"contracts/LiskGarden.sol\":6055:6106  uint256 currentWater = calculateWaterLevel(plantId) */\n      swap1\n      pop\n        /* \"contracts/LiskGarden.sol\":6139:6151  currentWater */\n      dup1\n        /* \"contracts/LiskGarden.sol\":6117:6125  thePlant */\n      dup3\n        /* \"contracts/LiskGarden.sol\":6117:6136  thePlant.waterLevel */\n      0x04\n      add\n        /* \"contracts/LiskGarden.sol\":6117:6151  thePlant.waterLevel = currentWater */\n      dup2\n      swap1\n      sstore\n      pop\n        /* \"contracts/LiskGarden.sol\":6182:6183  0 */\n      0x00\n        /* \"contracts/LiskGarden.sol\":6166:6178  currentWater */\n      dup2\n        /* \"contracts/LiskGarden.sol\":6166:6183  currentWater == 0 */\n      eq\n        /* \"contracts/LiskGarden.sol\":6166:6203  currentWater == 0 && !thePlant.isDead */\n      dup1\n      iszero\n      tag_224\n      jumpi\n      pop\n        /* \"contracts/LiskGarden.sol\":6188:6196  thePlant */\n      dup2\n        /* \"contracts/LiskGarden.sol\":6188:6203  thePlant.isDead */\n      0x05\n      add\n      0x01\n      swap1\n      sload\n      swap1\n      0x0100\n      exp\n      swap1\n      div\n      0xff\n      and\n        /* \"contracts/LiskGarden.sol\":6187:6203  !thePlant.isDead */\n      iszero\n        /* \"contracts/LiskGarden.sol\":6166:6203  currentWater == 0 && !thePlant.isDead */\n    tag_224:\n        /* \"contracts/LiskGarden.sol\":6162:6291  if (currentWater == 0 && !thePlant.isDead){... */\n      iszero\n      tag_225\n      jumpi\n        /* \"contracts/LiskGarden.sol\":6237:6241  true */\n      0x01\n        /* \"contracts/LiskGarden.sol\":6219:6227  thePlant */\n      dup3\n        /* \"contracts/LiskGarden.sol\":6219:6234  thePlant.isDead */\n      0x05\n      add\n      0x01\n        /* \"contracts/LiskGarden.sol\":6219:6241  thePlant.isDead = true */\n      0x0100\n      exp\n      dup2\n      sload\n      dup2\n      0xff\n      mul\n      not\n      and\n      swap1\n      dup4\n      iszero\n      iszero\n      mul\n      or\n      swap1\n      sstore\n      pop\n        /* \"contracts/LiskGarden.sol\":6271:6278  plantId */\n      dup3\n        /* \"contracts/LiskGarden.sol\":6261:6279  PlantDied(plantId) */\n      0xcc296a21951f3e57f21afb08547d835a0a9f0f06cc2867009cbe0cae44d36be9\n      mload(0x40)\n      mload(0x40)\n      dup1\n      swap2\n      sub\n      swap1\n      log2\n        /* \"contracts/LiskGarden.sol\":6162:6291  if (currentWater == 0 && !thePlant.isDead){... */\n    tag_225:\n        /* \"contracts/LiskGarden.sol\":5965:6298  {... */\n      pop\n      pop\n        /* \"contracts/LiskGarden.sol\":5913:6298  function updateWaterLevel(uint256 plantId) internal {... */\n      pop\n      jump\t// out\n    tag_215:\n      mload(0x40)\n      dup1\n      0x0100\n      add\n      0x40\n      mstore\n      dup1\n      0x00\n      dup2\n      mstore\n      0x20\n      add\n      and(0xffffffffffffffffffffffffffffffffffffffff, 0x00)\n      dup2\n      mstore\n      0x20\n      add\n      0x00\n      0x03\n      dup2\n      gt\n      iszero\n      tag_226\n      jumpi\n      tag_227\n      tag_129\n      jump\t// in\n    tag_227:\n    tag_226:\n      dup2\n      mstore\n      0x20\n      add\n      0x00\n      dup2\n      mstore\n      0x20\n      add\n      0x00\n      dup2\n      mstore\n      0x20\n      add\n      0x00\n      dup2\n      mstore\n      0x20\n      add\n      iszero(iszero(0x00))\n      dup2\n      mstore\n      0x20\n      add\n      iszero(iszero(0x00))\n      dup2\n      mstore\n      pop\n      swap1\n      jump\t// out\n        /* \"#utility.yul\":88:205   */\n    tag_229:\n        /* \"#utility.yul\":197:198   */\n      0x00\n        /* \"#utility.yul\":194:195   */\n      0x00\n        /* \"#utility.yul\":187:199   */\n      revert\n        /* \"#utility.yul\":334:460   */\n    tag_231:\n        /* \"#utility.yul\":371:378   */\n      0x00\n        /* \"#utility.yul\":411:453   */\n      0xffffffffffffffffffffffffffffffffffffffff\n        /* \"#utility.yul\":404:409   */\n      dup3\n        /* \"#utility.yul\":400:454   */\n      and\n        /* \"#utility.yul\":389:454   */\n      swap1\n      pop\n        /* \"#utility.yul\":334:460   */\n      swap2\n      swap1\n      pop\n      jump\t// out\n        /* \"#utility.yul\":466:562   */\n    tag_232:\n        /* \"#utility.yul\":503:510   */\n      0x00\n        /* \"#utility.yul\":532:556   */\n      tag_283\n        /* \"#utility.yul\":550:555   */\n      dup3\n        /* \"#utility.yul\":532:556   */\n      tag_231\n      jump\t// in\n    tag_283:\n        /* \"#utility.yul\":521:556   */\n      swap1\n      pop\n        /* \"#utility.yul\":466:562   */\n      swap2\n      swap1\n      pop\n      jump\t// out\n        /* \"#utility.yul\":568:690   */\n    tag_233:\n        /* \"#utility.yul\":641:665   */\n      tag_285\n        /* \"#utility.yul\":659:664   */\n      dup2\n        /* \"#utility.yul\":641:665   */\n      tag_232\n      jump\t// in\n    tag_285:\n        /* \"#utility.yul\":634:639   */\n      dup2\n        /* \"#utility.yul\":631:666   */\n      eq\n        /* \"#utility.yul\":621:684   */\n      tag_286\n      jumpi\n        /* \"#utility.yul\":680:681   */\n      0x00\n        /* \"#utility.yul\":677:678   */\n      0x00\n        /* \"#utility.yul\":670:682   */\n      revert\n        /* \"#utility.yul\":621:684   */\n    tag_286:\n        /* \"#utility.yul\":568:690   */\n      pop\n      jump\t// out\n        /* \"#utility.yul\":696:835   */\n    tag_234:\n        /* \"#utility.yul\":742:747   */\n      0x00\n        /* \"#utility.yul\":780:786   */\n      dup2\n        /* \"#utility.yul\":767:787   */\n      calldataload\n        /* \"#utility.yul\":758:787   */\n      swap1\n      pop\n        /* \"#utility.yul\":796:829   */\n      tag_288\n        /* \"#utility.yul\":823:828   */\n      dup2\n        /* \"#utility.yul\":796:829   */\n      tag_233\n      jump\t// in\n    tag_288:\n        /* \"#utility.yul\":696:835   */\n      swap3\n      swap2\n      pop\n      pop\n      jump\t// out\n        /* \"#utility.yul\":841:1170   */\n    tag_29:\n        /* \"#utility.yul\":900:906   */\n      0x00\n        /* \"#utility.yul\":949:951   */\n      0x20\n        /* \"#utility.yul\":937:946   */\n      dup3\n        /* \"#utility.yul\":928:935   */\n      dup5\n        /* \"#utility.yul\":924:947   */\n      sub\n        /* \"#utility.yul\":920:952   */\n      slt\n        /* \"#utility.yul\":917:1036   */\n      iszero\n      tag_290\n      jumpi\n        /* \"#utility.yul\":955:1034   */\n      tag_291\n      tag_229\n      jump\t// in\n    tag_291:\n        /* \"#utility.yul\":917:1036   */\n    tag_290:\n        /* \"#utility.yul\":1075:1076   */\n      0x00\n        /* \"#utility.yul\":1100:1153   */\n      tag_292\n        /* \"#utility.yul\":1145:1152   */\n      dup5\n        /* \"#utility.yul\":1136:1142   */\n      dup3\n        /* \"#utility.yul\":1125:1134   */\n      dup6\n        /* \"#utility.yul\":1121:1143   */\n      add\n        /* \"#utility.yul\":1100:1153   */\n      tag_234\n      jump\t// in\n    tag_292:\n        /* \"#utility.yul\":1090:1153   */\n      swap2\n      pop\n        /* \"#utility.yul\":1046:1163   */\n      pop\n        /* \"#utility.yul\":841:1170   */\n      swap3\n      swap2\n      pop\n      pop\n      jump\t// out\n        /* \"#utility.yul\":1176:1290   */\n    tag_235:\n        /* \"#utility.yul\":1243:1249   */\n      0x00\n        /* \"#utility.yul\":1277:1282   */\n      dup2\n        /* \"#utility.yul\":1271:1283   */\n      mload\n        /* \"#utility.yul\":1261:1283   */\n      swap1\n      pop\n        /* \"#utility.yul\":1176:1290   */\n      swap2\n      swap1\n      pop\n      jump\t// out\n        /* \"#utility.yul\":1296:1480   */\n    tag_236:\n        /* \"#utility.yul\":1395:1406   */\n      0x00\n        /* \"#utility.yul\":1429:1435   */\n      dup3\n        /* \"#utility.yul\":1424:1427   */\n      dup3\n        /* \"#utility.yul\":1417:1436   */\n      mstore\n        /* \"#utility.yul\":1469:1473   */\n      0x20\n        /* \"#utility.yul\":1464:1467   */\n      dup3\n        /* \"#utility.yul\":1460:1474   */\n      add\n        /* \"#utility.yul\":1445:1474   */\n      swap1\n      pop\n        /* \"#utility.yul\":1296:1480   */\n      swap3\n      swap2\n      pop\n      pop\n      jump\t// out\n        /* \"#utility.yul\":1486:1618   */\n    tag_237:\n        /* \"#utility.yul\":1553:1557   */\n      0x00\n        /* \"#utility.yul\":1576:1579   */\n      dup2\n        /* \"#utility.yul\":1568:1579   */\n      swap1\n      pop\n        /* \"#utility.yul\":1606:1610   */\n      0x20\n        /* \"#utility.yul\":1601:1604   */\n      dup3\n        /* \"#utility.yul\":1597:1611   */\n      add\n        /* \"#utility.yul\":1589:1611   */\n      swap1\n      pop\n        /* \"#utility.yul\":1486:1618   */\n      swap2\n      swap1\n      pop\n      jump\t// out\n        /* \"#utility.yul\":1624:1701   */\n    tag_238:\n        /* \"#utility.yul\":1661:1668   */\n      0x00\n        /* \"#utility.yul\":1690:1695   */\n      dup2\n        /* \"#utility.yul\":1679:1695   */\n      swap1\n      pop\n        /* \"#utility.yul\":1624:1701   */\n      swap2\n      swap1\n      pop\n      jump\t// out\n        /* \"#utility.yul\":1707:1815   */\n    tag_239:\n        /* \"#utility.yul\":1784:1808   */\n      tag_298\n        /* \"#utility.yul\":1802:1807   */\n      dup2\n        /* \"#utility.yul\":1784:1808   */\n      tag_238\n      jump\t// in\n    tag_298:\n        /* \"#utility.yul\":1779:1782   */\n      dup3\n        /* \"#utility.yul\":1772:1809   */\n      mstore\n        /* \"#utility.yul\":1707:1815   */\n      pop\n      pop\n      jump\t// out\n        /* \"#utility.yul\":1821:2000   */\n    tag_240:\n        /* \"#utility.yul\":1890:1900   */\n      0x00\n        /* \"#utility.yul\":1911:1957   */\n      tag_300\n        /* \"#utility.yul\":1953:1956   */\n      dup4\n        /* \"#utility.yul\":1945:1951   */\n      dup4\n        /* \"#utility.yul\":1911:1957   */\n      tag_239\n      jump\t// in\n    tag_300:\n        /* \"#utility.yul\":1989:1993   */\n      0x20\n        /* \"#utility.yul\":1984:1987   */\n      dup4\n        /* \"#utility.yul\":1980:1994   */\n      add\n        /* \"#utility.yul\":1966:1994   */\n      swap1\n      pop\n        /* \"#utility.yul\":1821:2000   */\n      swap3\n      swap2\n      pop\n      pop\n      jump\t// out\n        /* \"#utility.yul\":2006:2119   */\n    tag_241:\n        /* \"#utility.yul\":2076:2080   */\n      0x00\n        /* \"#utility.yul\":2108:2112   */\n      0x20\n        /* \"#utility.yul\":2103:2106   */\n      dup3\n        /* \"#utility.yul\":2099:2113   */\n      add\n        /* \"#utility.yul\":2091:2113   */\n      swap1\n      pop\n        /* \"#utility.yul\":2006:2119   */\n      swap2\n      swap1\n      pop\n      jump\t// out\n        /* \"#utility.yul\":2155:2887   */\n    tag_242:\n        /* \"#utility.yul\":2274:2277   */\n      0x00\n        /* \"#utility.yul\":2303:2357   */\n      tag_303\n        /* \"#utility.yul\":2351:2356   */\n      dup3\n        /* \"#utility.yul\":2303:2357   */\n      tag_235\n      jump\t// in\n    tag_303:\n        /* \"#utility.yul\":2373:2459   */\n      tag_304\n        /* \"#utility.yul\":2452:2458   */\n      dup2\n        /* \"#utility.yul\":2447:2450   */\n      dup6\n        /* \"#utility.yul\":2373:2459   */\n      tag_236\n      jump\t// in\n    tag_304:\n        /* \"#utility.yul\":2366:2459   */\n      swap4\n      pop\n        /* \"#utility.yul\":2483:2539   */\n      tag_305\n        /* \"#utility.yul\":2533:2538   */\n      dup4\n        /* \"#utility.yul\":2483:2539   */\n      tag_237\n      jump\t// in\n    tag_305:\n        /* \"#utility.yul\":2562:2569   */\n      dup1\n        /* \"#utility.yul\":2593:2594   */\n      0x00\n        /* \"#utility.yul\":2578:2862   */\n    tag_306:\n        /* \"#utility.yul\":2603:2609   */\n      dup4\n        /* \"#utility.yul\":2600:2601   */\n      dup2\n        /* \"#utility.yul\":2597:2610   */\n      lt\n        /* \"#utility.yul\":2578:2862   */\n      iszero\n      tag_308\n      jumpi\n        /* \"#utility.yul\":2679:2685   */\n      dup2\n        /* \"#utility.yul\":2673:2686   */\n      mload\n        /* \"#utility.yul\":2706:2769   */\n      tag_309\n        /* \"#utility.yul\":2765:2768   */\n      dup9\n        /* \"#utility.yul\":2750:2763   */\n      dup3\n        /* \"#utility.yul\":2706:2769   */\n      tag_240\n      jump\t// in\n    tag_309:\n        /* \"#utility.yul\":2699:2769   */\n      swap8\n      pop\n        /* \"#utility.yul\":2792:2852   */\n      tag_310\n        /* \"#utility.yul\":2845:2851   */\n      dup4\n        /* \"#utility.yul\":2792:2852   */\n      tag_241\n      jump\t// in\n    tag_310:\n        /* \"#utility.yul\":2782:2852   */\n      swap3\n      pop\n        /* \"#utility.yul\":2638:2862   */\n      pop\n        /* \"#utility.yul\":2625:2626   */\n      0x01\n        /* \"#utility.yul\":2622:2623   */\n      dup2\n        /* \"#utility.yul\":2618:2627   */\n      add\n        /* \"#utility.yul\":2613:2627   */\n      swap1\n      pop\n        /* \"#utility.yul\":2578:2862   */\n      jump(tag_306)\n    tag_308:\n        /* \"#utility.yul\":2582:2596   */\n      pop\n        /* \"#utility.yul\":2878:2881   */\n      dup6\n        /* \"#utility.yul\":2871:2881   */\n      swap4\n      pop\n        /* \"#utility.yul\":2279:2887   */\n      pop\n      pop\n      pop\n        /* \"#utility.yul\":2155:2887   */\n      swap3\n      swap2\n      pop\n      pop\n      jump\t// out\n        /* \"#utility.yul\":2893:3266   */\n    tag_32:\n        /* \"#utility.yul\":3036:3040   */\n      0x00\n        /* \"#utility.yul\":3074:3076   */\n      0x20\n        /* \"#utility.yul\":3063:3072   */\n      dup3\n        /* \"#utility.yul\":3059:3077   */\n      add\n        /* \"#utility.yul\":3051:3077   */\n      swap1\n      pop\n        /* \"#utility.yul\":3123:3132   */\n      dup2\n        /* \"#utility.yul\":3117:3121   */\n      dup2\n        /* \"#utility.yul\":3113:3133   */\n      sub\n        /* \"#utility.yul\":3109:3110   */\n      0x00\n        /* \"#utility.yul\":3098:3107   */\n      dup4\n        /* \"#utility.yul\":3094:3111   */\n      add\n        /* \"#utility.yul\":3087:3134   */\n      mstore\n        /* \"#utility.yul\":3151:3259   */\n      tag_312\n        /* \"#utility.yul\":3254:3258   */\n      dup2\n        /* \"#utility.yul\":3245:3251   */\n      dup5\n        /* \"#utility.yul\":3151:3259   */\n      tag_242\n      jump\t// in\n    tag_312:\n        /* \"#utility.yul\":3143:3259   */\n      swap1\n      pop\n        /* \"#utility.yul\":2893:3266   */\n      swap3\n      swap2\n      pop\n      pop\n      jump\t// out\n        /* \"#utility.yul\":3272:3390   */\n    tag_243:\n        /* \"#utility.yul\":3359:3383   */\n      tag_314\n        /* \"#utility.yul\":3377:3382   */\n      dup2\n        /* \"#utility.yul\":3359:3383   */\n      tag_238\n      jump\t// in\n    tag_314:\n        /* \"#utility.yul\":3354:3357   */\n      dup3\n        /* \"#utility.yul\":3347:3384   */\n      mstore\n        /* \"#utility.yul\":3272:3390   */\n      pop\n      pop\n      jump\t// out\n        /* \"#utility.yul\":3396:3618   */\n    tag_40:\n        /* \"#utility.yul\":3489:3493   */\n      0x00\n        /* \"#utility.yul\":3527:3529   */\n      0x20\n        /* \"#utility.yul\":3516:3525   */\n      dup3\n        /* \"#utility.yul\":3512:3530   */\n      add\n        /* \"#utility.yul\":3504:3530   */\n      swap1\n      pop\n        /* \"#utility.yul\":3540:3611   */\n      tag_316\n        /* \"#utility.yul\":3608:3609   */\n      0x00\n        /* \"#utility.yul\":3597:3606   */\n      dup4\n        /* \"#utility.yul\":3593:3610   */\n      add\n        /* \"#utility.yul\":3584:3590   */\n      dup5\n        /* \"#utility.yul\":3540:3611   */\n      tag_243\n      jump\t// in\n    tag_316:\n        /* \"#utility.yul\":3396:3618   */\n      swap3\n      swap2\n      pop\n      pop\n      jump\t// out\n        /* \"#utility.yul\":3624:3746   */\n    tag_244:\n        /* \"#utility.yul\":3697:3721   */\n      tag_318\n        /* \"#utility.yul\":3715:3720   */\n      dup2\n        /* \"#utility.yul\":3697:3721   */\n      tag_238\n      jump\t// in\n    tag_318:\n        /* \"#utility.yul\":3690:3695   */\n      dup2\n        /* \"#utility.yul\":3687:3722   */\n      eq\n        /* \"#utility.yul\":3677:3740   */\n      tag_319\n      jumpi\n        /* \"#utility.yul\":3736:3737   */\n      0x00\n        /* \"#utility.yul\":3733:3734   */\n      0x00\n        /* \"#utility.yul\":3726:3738   */\n      revert\n        /* \"#utility.yul\":3677:3740   */\n    tag_319:\n        /* \"#utility.yul\":3624:3746   */\n      pop\n      jump\t// out\n        /* \"#utility.yul\":3752:3891   */\n    tag_245:\n        /* \"#utility.yul\":3798:3803   */\n      0x00\n        /* \"#utility.yul\":3836:3842   */\n      dup2\n        /* \"#utility.yul\":3823:3843   */\n      calldataload\n        /* \"#utility.yul\":3814:3843   */\n      swap1\n      pop\n        /* \"#utility.yul\":3852:3885   */\n      tag_321\n        /* \"#utility.yul\":3879:3884   */\n      dup2\n        /* \"#utility.yul\":3852:3885   */\n      tag_244\n      jump\t// in\n    tag_321:\n        /* \"#utility.yul\":3752:3891   */\n      swap3\n      swap2\n      pop\n      pop\n      jump\t// out\n        /* \"#utility.yul\":3897:4226   */\n    tag_47:\n        /* \"#utility.yul\":3956:3962   */\n      0x00\n        /* \"#utility.yul\":4005:4007   */\n      0x20\n        /* \"#utility.yul\":3993:4002   */\n      dup3\n        /* \"#utility.yul\":3984:3991   */\n      dup5\n        /* \"#utility.yul\":3980:4003   */\n      sub\n        /* \"#utility.yul\":3976:4008   */\n      slt\n        /* \"#utility.yul\":3973:4092   */\n      iszero\n      tag_323\n      jumpi\n        /* \"#utility.yul\":4011:4090   */\n      tag_324\n      tag_229\n      jump\t// in\n    tag_324:\n        /* \"#utility.yul\":3973:4092   */\n    tag_323:\n        /* \"#utility.yul\":4131:4132   */\n      0x00\n        /* \"#utility.yul\":4156:4209   */\n      tag_325\n        /* \"#utility.yul\":4201:4208   */\n      dup5\n        /* \"#utility.yul\":4192:4198   */\n      dup3\n        /* \"#utility.yul\":4181:4190   */\n      dup6\n        /* \"#utility.yul\":4177:4199   */\n      add\n        /* \"#utility.yul\":4156:4209   */\n      tag_245\n      jump\t// in\n    tag_325:\n        /* \"#utility.yul\":4146:4209   */\n      swap2\n      pop\n        /* \"#utility.yul\":4102:4219   */\n      pop\n        /* \"#utility.yul\":3897:4226   */\n      swap3\n      swap2\n      pop\n      pop\n      jump\t// out\n        /* \"#utility.yul\":4232:4706   */\n    tag_61:\n        /* \"#utility.yul\":4300:4306   */\n      0x00\n        /* \"#utility.yul\":4308:4314   */\n      0x00\n        /* \"#utility.yul\":4357:4359   */\n      0x40\n        /* \"#utility.yul\":4345:4354   */\n      dup4\n        /* \"#utility.yul\":4336:4343   */\n      dup6\n        /* \"#utility.yul\":4332:4355   */\n      sub\n        /* \"#utility.yul\":4328:4360   */\n      slt\n        /* \"#utility.yul\":4325:4444   */\n      iszero\n      tag_327\n      jumpi\n        /* \"#utility.yul\":4363:4442   */\n      tag_328\n      tag_229\n      jump\t// in\n    tag_328:\n        /* \"#utility.yul\":4325:4444   */\n    tag_327:\n        /* \"#utility.yul\":4483:4484   */\n      0x00\n        /* \"#utility.yul\":4508:4561   */\n      tag_329\n        /* \"#utility.yul\":4553:4560   */\n      dup6\n        /* \"#utility.yul\":4544:4550   */\n      dup3\n        /* \"#utility.yul\":4533:4542   */\n      dup7\n        /* \"#utility.yul\":4529:4551   */\n      add\n        /* \"#utility.yul\":4508:4561   */\n      tag_234\n      jump\t// in\n    tag_329:\n        /* \"#utility.yul\":4498:4561   */\n      swap3\n      pop\n        /* \"#utility.yul\":4454:4571   */\n      pop\n        /* \"#utility.yul\":4610:4612   */\n      0x20\n        /* \"#utility.yul\":4636:4689   */\n      tag_330\n        /* \"#utility.yul\":4681:4688   */\n      dup6\n        /* \"#utility.yul\":4672:4678   */\n      dup3\n        /* \"#utility.yul\":4661:4670   */\n      dup7\n        /* \"#utility.yul\":4657:4679   */\n      add\n        /* \"#utility.yul\":4636:4689   */\n      tag_245\n      jump\t// in\n    tag_330:\n        /* \"#utility.yul\":4626:4689   */\n      swap2\n      pop\n        /* \"#utility.yul\":4581:4699   */\n      pop\n        /* \"#utility.yul\":4232:4706   */\n      swap3\n      pop\n      swap3\n      swap1\n      pop\n      jump\t// out\n        /* \"#utility.yul\":4712:4830   */\n    tag_246:\n        /* \"#utility.yul\":4799:4823   */\n      tag_332\n        /* \"#utility.yul\":4817:4822   */\n      dup2\n        /* \"#utility.yul\":4799:4823   */\n      tag_232\n      jump\t// in\n    tag_332:\n        /* \"#utility.yul\":4794:4797   */\n      dup3\n        /* \"#utility.yul\":4787:4824   */\n      mstore\n        /* \"#utility.yul\":4712:4830   */\n      pop\n      pop\n      jump\t// out\n        /* \"#utility.yul\":4836:5058   */\n    tag_68:\n        /* \"#utility.yul\":4929:4933   */\n      0x00\n        /* \"#utility.yul\":4967:4969   */\n      0x20\n        /* \"#utility.yul\":4956:4965   */\n      dup3\n        /* \"#utility.yul\":4952:4970   */\n      add\n        /* \"#utility.yul\":4944:4970   */\n      swap1\n      pop\n        /* \"#utility.yul\":4980:5051   */\n      tag_334\n        /* \"#utility.yul\":5048:5049   */\n      0x00\n        /* \"#utility.yul\":5037:5046   */\n      dup4\n        /* \"#utility.yul\":5033:5050   */\n      add\n        /* \"#utility.yul\":5024:5030   */\n      dup5\n        /* \"#utility.yul\":4980:5051   */\n      tag_246\n      jump\t// in\n    tag_334:\n        /* \"#utility.yul\":4836:5058   */\n      swap3\n      swap2\n      pop\n      pop\n      jump\t// out\n        /* \"#utility.yul\":5064:5244   */\n    tag_129:\n        /* \"#utility.yul\":5112:5189   */\n      0x4e487b7100000000000000000000000000000000000000000000000000000000\n        /* \"#utility.yul\":5109:5110   */\n      0x00\n        /* \"#utility.yul\":5102:5190   */\n      mstore\n        /* \"#utility.yul\":5209:5213   */\n      0x21\n        /* \"#utility.yul\":5206:5207   */\n      0x04\n        /* \"#utility.yul\":5199:5214   */\n      mstore\n        /* \"#utility.yul\":5233:5237   */\n      0x24\n        /* \"#utility.yul\":5230:5231   */\n      0x00\n        /* \"#utility.yul\":5223:5238   */\n      revert\n        /* \"#utility.yul\":5250:5368   */\n    tag_247:\n        /* \"#utility.yul\":5336:5337   */\n      0x04\n        /* \"#utility.yul\":5329:5334   */\n      dup2\n        /* \"#utility.yul\":5326:5338   */\n      lt\n        /* \"#utility.yul\":5316:5362   */\n      tag_337\n      jumpi\n        /* \"#utility.yul\":5342:5360   */\n      tag_338\n      tag_129\n      jump\t// in\n    tag_338:\n        /* \"#utility.yul\":5316:5362   */\n    tag_337:\n        /* \"#utility.yul\":5250:5368   */\n      pop\n      jump\t// out\n        /* \"#utility.yul\":5374:5511   */\n    tag_248:\n        /* \"#utility.yul\":5424:5431   */\n      0x00\n        /* \"#utility.yul\":5453:5458   */\n      dup2\n        /* \"#utility.yul\":5442:5458   */\n      swap1\n      pop\n        /* \"#utility.yul\":5459:5505   */\n      tag_340\n        /* \"#utility.yul\":5499:5504   */\n      dup3\n        /* \"#utility.yul\":5459:5505   */\n      tag_247\n      jump\t// in\n    tag_340:\n        /* \"#utility.yul\":5374:5511   */\n      swap2\n      swap1\n      pop\n      jump\t// out\n        /* \"#utility.yul\":5517:5654   */\n    tag_249:\n        /* \"#utility.yul\":5578:5587   */\n      0x00\n        /* \"#utility.yul\":5611:5648   */\n      tag_342\n        /* \"#utility.yul\":5642:5647   */\n      dup3\n        /* \"#utility.yul\":5611:5648   */\n      tag_248\n      jump\t// in\n    tag_342:\n        /* \"#utility.yul\":5598:5648   */\n      swap1\n      pop\n        /* \"#utility.yul\":5517:5654   */\n      swap2\n      swap1\n      pop\n      jump\t// out\n        /* \"#utility.yul\":5660:5813   */\n    tag_250:\n        /* \"#utility.yul\":5758:5806   */\n      tag_344\n        /* \"#utility.yul\":5800:5805   */\n      dup2\n        /* \"#utility.yul\":5758:5806   */\n      tag_249\n      jump\t// in\n    tag_344:\n        /* \"#utility.yul\":5753:5756   */\n      dup3\n        /* \"#utility.yul\":5746:5807   */\n      mstore\n        /* \"#utility.yul\":5660:5813   */\n      pop\n      pop\n      jump\t// out\n        /* \"#utility.yul\":5819:5909   */\n    tag_251:\n        /* \"#utility.yul\":5853:5860   */\n      0x00\n        /* \"#utility.yul\":5896:5901   */\n      dup2\n        /* \"#utility.yul\":5889:5902   */\n      iszero\n        /* \"#utility.yul\":5882:5903   */\n      iszero\n        /* \"#utility.yul\":5871:5903   */\n      swap1\n      pop\n        /* \"#utility.yul\":5819:5909   */\n      swap2\n      swap1\n      pop\n      jump\t// out\n        /* \"#utility.yul\":5915:6024   */\n    tag_252:\n        /* \"#utility.yul\":5996:6017   */\n      tag_347\n        /* \"#utility.yul\":6011:6016   */\n      dup2\n        /* \"#utility.yul\":5996:6017   */\n      tag_251\n      jump\t// in\n    tag_347:\n        /* \"#utility.yul\":5991:5994   */\n      dup3\n        /* \"#utility.yul\":5984:6018   */\n      mstore\n        /* \"#utility.yul\":5915:6024   */\n      pop\n      pop\n      jump\t// out\n        /* \"#utility.yul\":6030:7025   */\n    tag_74:\n        /* \"#utility.yul\":6318:6322   */\n      0x00\n        /* \"#utility.yul\":6356:6359   */\n      0x0100\n        /* \"#utility.yul\":6345:6354   */\n      dup3\n        /* \"#utility.yul\":6341:6360   */\n      add\n        /* \"#utility.yul\":6333:6360   */\n      swap1\n      pop\n        /* \"#utility.yul\":6370:6441   */\n      tag_349\n        /* \"#utility.yul\":6438:6439   */\n      0x00\n        /* \"#utility.yul\":6427:6436   */\n      dup4\n        /* \"#utility.yul\":6423:6440   */\n      add\n        /* \"#utility.yul\":6414:6420   */\n      dup12\n        /* \"#utility.yul\":6370:6441   */\n      tag_243\n      jump\t// in\n    tag_349:\n        /* \"#utility.yul\":6451:6523   */\n      tag_350\n        /* \"#utility.yul\":6519:6521   */\n      0x20\n        /* \"#utility.yul\":6508:6517   */\n      dup4\n        /* \"#utility.yul\":6504:6522   */\n      add\n        /* \"#utility.yul\":6495:6501   */\n      dup11\n        /* \"#utility.yul\":6451:6523   */\n      tag_246\n      jump\t// in\n    tag_350:\n        /* \"#utility.yul\":6533:6616   */\n      tag_351\n        /* \"#utility.yul\":6612:6614   */\n      0x40\n        /* \"#utility.yul\":6601:6610   */\n      dup4\n        /* \"#utility.yul\":6597:6615   */\n      add\n        /* \"#utility.yul\":6588:6594   */\n      dup10\n        /* \"#utility.yul\":6533:6616   */\n      tag_250\n      jump\t// in\n    tag_351:\n        /* \"#utility.yul\":6626:6698   */\n      tag_352\n        /* \"#utility.yul\":6694:6696   */\n      0x60\n        /* \"#utility.yul\":6683:6692   */\n      dup4\n        /* \"#utility.yul\":6679:6697   */\n      add\n        /* \"#utility.yul\":6670:6676   */\n      dup9\n        /* \"#utility.yul\":6626:6698   */\n      tag_243\n      jump\t// in\n    tag_352:\n        /* \"#utility.yul\":6708:6781   */\n      tag_353\n        /* \"#utility.yul\":6776:6779   */\n      0x80\n        /* \"#utility.yul\":6765:6774   */\n      dup4\n        /* \"#utility.yul\":6761:6780   */\n      add\n        /* \"#utility.yul\":6752:6758   */\n      dup8\n        /* \"#utility.yul\":6708:6781   */\n      tag_243\n      jump\t// in\n    tag_353:\n        /* \"#utility.yul\":6791:6864   */\n      tag_354\n        /* \"#utility.yul\":6859:6862   */\n      0xa0\n        /* \"#utility.yul\":6848:6857   */\n      dup4\n        /* \"#utility.yul\":6844:6863   */\n      add\n        /* \"#utility.yul\":6835:6841   */\n      dup7\n        /* \"#utility.yul\":6791:6864   */\n      tag_243\n      jump\t// in\n    tag_354:\n        /* \"#utility.yul\":6874:6941   */\n      tag_355\n        /* \"#utility.yul\":6936:6939   */\n      0xc0\n        /* \"#utility.yul\":6925:6934   */\n      dup4\n        /* \"#utility.yul\":6921:6940   */\n      add\n        /* \"#utility.yul\":6912:6918   */\n      dup6\n        /* \"#utility.yul\":6874:6941   */\n      tag_252\n      jump\t// in\n    tag_355:\n        /* \"#utility.yul\":6951:7018   */\n      tag_356\n        /* \"#utility.yul\":7013:7016   */\n      0xe0\n        /* \"#utility.yul\":7002:7011   */\n      dup4\n        /* \"#utility.yul\":6998:7017   */\n      add\n        /* \"#utility.yul\":6989:6995   */\n      dup5\n        /* \"#utility.yul\":6951:7018   */\n      tag_252\n      jump\t// in\n    tag_356:\n        /* \"#utility.yul\":6030:7025   */\n      swap10\n      swap9\n      pop\n      pop\n      pop\n      pop\n      pop\n      pop\n      pop\n      pop\n      pop\n      jump\t// out\n        /* \"#utility.yul\":7031:7117   */\n    tag_253:\n        /* \"#utility.yul\":7066:7073   */\n      0x00\n        /* \"#utility.yul\":7106:7110   */\n      0xff\n        /* \"#utility.yul\":7099:7104   */\n      dup3\n        /* \"#utility.yul\":7095:7111   */\n      and\n        /* \"#utility.yul\":7084:7111   */\n      swap1\n      pop\n        /* \"#utility.yul\":7031:7117   */\n      swap2\n      swap1\n      pop\n      jump\t// out\n        /* \"#utility.yul\":7123:7235   */\n    tag_254:\n        /* \"#utility.yul\":7206:7228   */\n      tag_359\n        /* \"#utility.yul\":7222:7227   */\n      dup2\n        /* \"#utility.yul\":7206:7228   */\n      tag_253\n      jump\t// in\n    tag_359:\n        /* \"#utility.yul\":7201:7204   */\n      dup3\n        /* \"#utility.yul\":7194:7229   */\n      mstore\n        /* \"#utility.yul\":7123:7235   */\n      pop\n      pop\n      jump\t// out\n        /* \"#utility.yul\":7241:7455   */\n    tag_87:\n        /* \"#utility.yul\":7330:7334   */\n      0x00\n        /* \"#utility.yul\":7368:7370   */\n      0x20\n        /* \"#utility.yul\":7357:7366   */\n      dup3\n        /* \"#utility.yul\":7353:7371   */\n      add\n        /* \"#utility.yul\":7345:7371   */\n      swap1\n      pop\n        /* \"#utility.yul\":7381:7448   */\n      tag_361\n        /* \"#utility.yul\":7445:7446   */\n      0x00\n        /* \"#utility.yul\":7434:7443   */\n      dup4\n        /* \"#utility.yul\":7430:7447   */\n      add\n        /* \"#utility.yul\":7421:7427   */\n      dup5\n        /* \"#utility.yul\":7381:7448   */\n      tag_254\n      jump\t// in\n    tag_361:\n        /* \"#utility.yul\":7241:7455   */\n      swap3\n      swap2\n      pop\n      pop\n      jump\t// out\n        /* \"#utility.yul\":7461:7569   */\n    tag_255:\n        /* \"#utility.yul\":7538:7562   */\n      tag_363\n        /* \"#utility.yul\":7556:7561   */\n      dup2\n        /* \"#utility.yul\":7538:7562   */\n      tag_232\n      jump\t// in\n    tag_363:\n        /* \"#utility.yul\":7533:7536   */\n      dup3\n        /* \"#utility.yul\":7526:7563   */\n      mstore\n        /* \"#utility.yul\":7461:7569   */\n      pop\n      pop\n      jump\t// out\n        /* \"#utility.yul\":7575:7718   */\n    tag_256:\n        /* \"#utility.yul\":7663:7711   */\n      tag_365\n        /* \"#utility.yul\":7705:7710   */\n      dup2\n        /* \"#utility.yul\":7663:7711   */\n      tag_249\n      jump\t// in\n    tag_365:\n        /* \"#utility.yul\":7658:7661   */\n      dup3\n        /* \"#utility.yul\":7651:7712   */\n      mstore\n        /* \"#utility.yul\":7575:7718   */\n      pop\n      pop\n      jump\t// out\n        /* \"#utility.yul\":7724:7823   */\n    tag_257:\n        /* \"#utility.yul\":7795:7816   */\n      tag_367\n        /* \"#utility.yul\":7810:7815   */\n      dup2\n        /* \"#utility.yul\":7795:7816   */\n      tag_251\n      jump\t// in\n    tag_367:\n        /* \"#utility.yul\":7790:7793   */\n      dup3\n        /* \"#utility.yul\":7783:7817   */\n      mstore\n        /* \"#utility.yul\":7724:7823   */\n      pop\n      pop\n      jump\t// out\n        /* \"#utility.yul\":7887:9455   */\n    tag_258:\n        /* \"#utility.yul\":8026:8032   */\n      0x0100\n        /* \"#utility.yul\":8021:8024   */\n      dup3\n        /* \"#utility.yul\":8017:8033   */\n      add\n        /* \"#utility.yul\":8113:8117   */\n      0x00\n        /* \"#utility.yul\":8106:8111   */\n      dup3\n        /* \"#utility.yul\":8102:8118   */\n      add\n        /* \"#utility.yul\":8096:8119   */\n      mload\n        /* \"#utility.yul\":8132:8195   */\n      tag_369\n        /* \"#utility.yul\":8189:8193   */\n      0x00\n        /* \"#utility.yul\":8184:8187   */\n      dup6\n        /* \"#utility.yul\":8180:8194   */\n      add\n        /* \"#utility.yul\":8166:8178   */\n      dup3\n        /* \"#utility.yul\":8132:8195   */\n      tag_239\n      jump\t// in\n    tag_369:\n        /* \"#utility.yul\":8043:8205   */\n      pop\n        /* \"#utility.yul\":8288:8292   */\n      0x20\n        /* \"#utility.yul\":8281:8286   */\n      dup3\n        /* \"#utility.yul\":8277:8293   */\n      add\n        /* \"#utility.yul\":8271:8294   */\n      mload\n        /* \"#utility.yul\":8307:8370   */\n      tag_370\n        /* \"#utility.yul\":8364:8368   */\n      0x20\n        /* \"#utility.yul\":8359:8362   */\n      dup6\n        /* \"#utility.yul\":8355:8369   */\n      add\n        /* \"#utility.yul\":8341:8353   */\n      dup3\n        /* \"#utility.yul\":8307:8370   */\n      tag_255\n      jump\t// in\n    tag_370:\n        /* \"#utility.yul\":8215:8380   */\n      pop\n        /* \"#utility.yul\":8463:8467   */\n      0x40\n        /* \"#utility.yul\":8456:8461   */\n      dup3\n        /* \"#utility.yul\":8452:8468   */\n      add\n        /* \"#utility.yul\":8446:8469   */\n      mload\n        /* \"#utility.yul\":8482:8556   */\n      tag_371\n        /* \"#utility.yul\":8550:8554   */\n      0x40\n        /* \"#utility.yul\":8545:8548   */\n      dup6\n        /* \"#utility.yul\":8541:8555   */\n      add\n        /* \"#utility.yul\":8527:8539   */\n      dup3\n        /* \"#utility.yul\":8482:8556   */\n      tag_256\n      jump\t// in\n    tag_371:\n        /* \"#utility.yul\":8390:8566   */\n      pop\n        /* \"#utility.yul\":8655:8659   */\n      0x60\n        /* \"#utility.yul\":8648:8653   */\n      dup3\n        /* \"#utility.yul\":8644:8660   */\n      add\n        /* \"#utility.yul\":8638:8661   */\n      mload\n        /* \"#utility.yul\":8674:8737   */\n      tag_372\n        /* \"#utility.yul\":8731:8735   */\n      0x60\n        /* \"#utility.yul\":8726:8729   */\n      dup6\n        /* \"#utility.yul\":8722:8736   */\n      add\n        /* \"#utility.yul\":8708:8720   */\n      dup3\n        /* \"#utility.yul\":8674:8737   */\n      tag_239\n      jump\t// in\n    tag_372:\n        /* \"#utility.yul\":8576:8747   */\n      pop\n        /* \"#utility.yul\":8836:8840   */\n      0x80\n        /* \"#utility.yul\":8829:8834   */\n      dup3\n        /* \"#utility.yul\":8825:8841   */\n      add\n        /* \"#utility.yul\":8819:8842   */\n      mload\n        /* \"#utility.yul\":8855:8918   */\n      tag_373\n        /* \"#utility.yul\":8912:8916   */\n      0x80\n        /* \"#utility.yul\":8907:8910   */\n      dup6\n        /* \"#utility.yul\":8903:8917   */\n      add\n        /* \"#utility.yul\":8889:8901   */\n      dup3\n        /* \"#utility.yul\":8855:8918   */\n      tag_239\n      jump\t// in\n    tag_373:\n        /* \"#utility.yul\":8757:8928   */\n      pop\n        /* \"#utility.yul\":9016:9020   */\n      0xa0\n        /* \"#utility.yul\":9009:9014   */\n      dup3\n        /* \"#utility.yul\":9005:9021   */\n      add\n        /* \"#utility.yul\":8999:9022   */\n      mload\n        /* \"#utility.yul\":9035:9098   */\n      tag_374\n        /* \"#utility.yul\":9092:9096   */\n      0xa0\n        /* \"#utility.yul\":9087:9090   */\n      dup6\n        /* \"#utility.yul\":9083:9097   */\n      add\n        /* \"#utility.yul\":9069:9081   */\n      dup3\n        /* \"#utility.yul\":9035:9098   */\n      tag_239\n      jump\t// in\n    tag_374:\n        /* \"#utility.yul\":8938:9108   */\n      pop\n        /* \"#utility.yul\":9192:9196   */\n      0xc0\n        /* \"#utility.yul\":9185:9190   */\n      dup3\n        /* \"#utility.yul\":9181:9197   */\n      add\n        /* \"#utility.yul\":9175:9198   */\n      mload\n        /* \"#utility.yul\":9211:9268   */\n      tag_375\n        /* \"#utility.yul\":9262:9266   */\n      0xc0\n        /* \"#utility.yul\":9257:9260   */\n      dup6\n        /* \"#utility.yul\":9253:9267   */\n      add\n        /* \"#utility.yul\":9239:9251   */\n      dup3\n        /* \"#utility.yul\":9211:9268   */\n      tag_257\n      jump\t// in\n    tag_375:\n        /* \"#utility.yul\":9118:9278   */\n      pop\n        /* \"#utility.yul\":9362:9366   */\n      0xe0\n        /* \"#utility.yul\":9355:9360   */\n      dup3\n        /* \"#utility.yul\":9351:9367   */\n      add\n        /* \"#utility.yul\":9345:9368   */\n      mload\n        /* \"#utility.yul\":9381:9438   */\n      tag_376\n        /* \"#utility.yul\":9432:9436   */\n      0xe0\n        /* \"#utility.yul\":9427:9430   */\n      dup6\n        /* \"#utility.yul\":9423:9437   */\n      add\n        /* \"#utility.yul\":9409:9421   */\n      dup3\n        /* \"#utility.yul\":9381:9438   */\n      tag_257\n      jump\t// in\n    tag_376:\n        /* \"#utility.yul\":9288:9448   */\n      pop\n        /* \"#utility.yul\":7995:9455   */\n      pop\n        /* \"#utility.yul\":7887:9455   */\n      pop\n      pop\n      jump\t// out\n        /* \"#utility.yul\":9461:9768   */\n    tag_107:\n        /* \"#utility.yul\":9596:9600   */\n      0x00\n        /* \"#utility.yul\":9634:9637   */\n      0x0100\n        /* \"#utility.yul\":9623:9632   */\n      dup3\n        /* \"#utility.yul\":9619:9638   */\n      add\n        /* \"#utility.yul\":9611:9638   */\n      swap1\n      pop\n        /* \"#utility.yul\":9648:9761   */\n      tag_378\n        /* \"#utility.yul\":9758:9759   */\n      0x00\n        /* \"#utility.yul\":9747:9756   */\n      dup4\n        /* \"#utility.yul\":9743:9760   */\n      add\n        /* \"#utility.yul\":9734:9740   */\n      dup5\n        /* \"#utility.yul\":9648:9761   */\n      tag_258\n      jump\t// in\n    tag_378:\n        /* \"#utility.yul\":9461:9768   */\n      swap3\n      swap2\n      pop\n      pop\n      jump\t// out\n        /* \"#utility.yul\":9774:9943   */\n    tag_259:\n        /* \"#utility.yul\":9858:9869   */\n      0x00\n        /* \"#utility.yul\":9892:9898   */\n      dup3\n        /* \"#utility.yul\":9887:9890   */\n      dup3\n        /* \"#utility.yul\":9880:9899   */\n      mstore\n        /* \"#utility.yul\":9932:9936   */\n      0x20\n        /* \"#utility.yul\":9927:9930   */\n      dup3\n        /* \"#utility.yul\":9923:9937   */\n      add\n        /* \"#utility.yul\":9908:9937   */\n      swap1\n      pop\n        /* \"#utility.yul\":9774:9943   */\n      swap3\n      swap2\n      pop\n      pop\n      jump\t// out\n        /* \"#utility.yul\":9949:10110   */\n    tag_260:\n        /* \"#utility.yul\":10089:10102   */\n      0x42756b616e206f776e6572000000000000000000000000000000000000000000\n        /* \"#utility.yul\":10085:10086   */\n      0x00\n        /* \"#utility.yul\":10077:10083   */\n      dup3\n        /* \"#utility.yul\":10073:10087   */\n      add\n        /* \"#utility.yul\":10066:10103   */\n      mstore\n        /* \"#utility.yul\":9949:10110   */\n      pop\n      jump\t// out\n        /* \"#utility.yul\":10116:10482   */\n    tag_261:\n        /* \"#utility.yul\":10258:10261   */\n      0x00\n        /* \"#utility.yul\":10279:10346   */\n      tag_382\n        /* \"#utility.yul\":10343:10345   */\n      0x0b\n        /* \"#utility.yul\":10338:10341   */\n      dup4\n        /* \"#utility.yul\":10279:10346   */\n      tag_259\n      jump\t// in\n    tag_382:\n        /* \"#utility.yul\":10272:10346   */\n      swap2\n      pop\n        /* \"#utility.yul\":10355:10448   */\n      tag_383\n        /* \"#utility.yul\":10444:10447   */\n      dup3\n        /* \"#utility.yul\":10355:10448   */\n      tag_260\n      jump\t// in\n    tag_383:\n        /* \"#utility.yul\":10473:10475   */\n      0x20\n        /* \"#utility.yul\":10468:10471   */\n      dup3\n        /* \"#utility.yul\":10464:10476   */\n      add\n        /* \"#utility.yul\":10457:10476   */\n      swap1\n      pop\n        /* \"#utility.yul\":10116:10482   */\n      swap2\n      swap1\n      pop\n      jump\t// out\n        /* \"#utility.yul\":10488:10907   */\n    tag_114:\n        /* \"#utility.yul\":10654:10658   */\n      0x00\n        /* \"#utility.yul\":10692:10694   */\n      0x20\n        /* \"#utility.yul\":10681:10690   */\n      dup3\n        /* \"#utility.yul\":10677:10695   */\n      add\n        /* \"#utility.yul\":10669:10695   */\n      swap1\n      pop\n        /* \"#utility.yul\":10741:10750   */\n      dup2\n        /* \"#utility.yul\":10735:10739   */\n      dup2\n        /* \"#utility.yul\":10731:10751   */\n      sub\n        /* \"#utility.yul\":10727:10728   */\n      0x00\n        /* \"#utility.yul\":10716:10725   */\n      dup4\n        /* \"#utility.yul\":10712:10729   */\n      add\n        /* \"#utility.yul\":10705:10752   */\n      mstore\n        /* \"#utility.yul\":10769:10900   */\n      tag_385\n        /* \"#utility.yul\":10895:10899   */\n      dup2\n        /* \"#utility.yul\":10769:10900   */\n      tag_261\n      jump\t// in\n    tag_385:\n        /* \"#utility.yul\":10761:10900   */\n      swap1\n      pop\n        /* \"#utility.yul\":10488:10907   */\n      swap2\n      swap1\n      pop\n      jump\t// out\n        /* \"#utility.yul\":10913:11060   */\n    tag_262:\n        /* \"#utility.yul\":11014:11025   */\n      0x00\n        /* \"#utility.yul\":11051:11054   */\n      dup2\n        /* \"#utility.yul\":11036:11054   */\n      swap1\n      pop\n        /* \"#utility.yul\":10913:11060   */\n      swap3\n      swap2\n      pop\n      pop\n      jump\t// out\n        /* \"#utility.yul\":11066:11180   */\n    tag_263:\n      pop\n      jump\t// out\n        /* \"#utility.yul\":11186:11584   */\n    tag_264:\n        /* \"#utility.yul\":11345:11348   */\n      0x00\n        /* \"#utility.yul\":11366:11449   */\n      tag_389\n        /* \"#utility.yul\":11447:11448   */\n      0x00\n        /* \"#utility.yul\":11442:11445   */\n      dup4\n        /* \"#utility.yul\":11366:11449   */\n      tag_262\n      jump\t// in\n    tag_389:\n        /* \"#utility.yul\":11359:11449   */\n      swap2\n      pop\n        /* \"#utility.yul\":11458:11551   */\n      tag_390\n        /* \"#utility.yul\":11547:11550   */\n      dup3\n        /* \"#utility.yul\":11458:11551   */\n      tag_263\n      jump\t// in\n    tag_390:\n        /* \"#utility.yul\":11576:11577   */\n      0x00\n        /* \"#utility.yul\":11571:11574   */\n      dup3\n        /* \"#utility.yul\":11567:11578   */\n      add\n        /* \"#utility.yul\":11560:11578   */\n      swap1\n      pop\n        /* \"#utility.yul\":11186:11584   */\n      swap2\n      swap1\n      pop\n      jump\t// out\n        /* \"#utility.yul\":11590:11969   */\n    tag_116:\n        /* \"#utility.yul\":11774:11777   */\n      0x00\n        /* \"#utility.yul\":11796:11943   */\n      tag_392\n        /* \"#utility.yul\":11939:11942   */\n      dup3\n        /* \"#utility.yul\":11796:11943   */\n      tag_264\n      jump\t// in\n    tag_392:\n        /* \"#utility.yul\":11789:11943   */\n      swap2\n      pop\n        /* \"#utility.yul\":11960:11963   */\n      dup2\n        /* \"#utility.yul\":11953:11963   */\n      swap1\n      pop\n        /* \"#utility.yul\":11590:11969   */\n      swap2\n      swap1\n      pop\n      jump\t// out\n        /* \"#utility.yul\":11975:12139   */\n    tag_265:\n        /* \"#utility.yul\":12115:12131   */\n      0x5472616e7366657220676167616c000000000000000000000000000000000000\n        /* \"#utility.yul\":12111:12112   */\n      0x00\n        /* \"#utility.yul\":12103:12109   */\n      dup3\n        /* \"#utility.yul\":12099:12113   */\n      add\n        /* \"#utility.yul\":12092:12132   */\n      mstore\n        /* \"#utility.yul\":11975:12139   */\n      pop\n      jump\t// out\n        /* \"#utility.yul\":12145:12511   */\n    tag_266:\n        /* \"#utility.yul\":12287:12290   */\n      0x00\n        /* \"#utility.yul\":12308:12375   */\n      tag_395\n        /* \"#utility.yul\":12372:12374   */\n      0x0e\n        /* \"#utility.yul\":12367:12370   */\n      dup4\n        /* \"#utility.yul\":12308:12375   */\n      tag_259\n      jump\t// in\n    tag_395:\n        /* \"#utility.yul\":12301:12375   */\n      swap2\n      pop\n        /* \"#utility.yul\":12384:12477   */\n      tag_396\n        /* \"#utility.yul\":12473:12476   */\n      dup3\n        /* \"#utility.yul\":12384:12477   */\n      tag_265\n      jump\t// in\n    tag_396:\n        /* \"#utility.yul\":12502:12504   */\n      0x20\n        /* \"#utility.yul\":12497:12500   */\n      dup3\n        /* \"#utility.yul\":12493:12505   */\n      add\n        /* \"#utility.yul\":12486:12505   */\n      swap1\n      pop\n        /* \"#utility.yul\":12145:12511   */\n      swap2\n      swap1\n      pop\n      jump\t// out\n        /* \"#utility.yul\":12517:12936   */\n    tag_122:\n        /* \"#utility.yul\":12683:12687   */\n      0x00\n        /* \"#utility.yul\":12721:12723   */\n      0x20\n        /* \"#utility.yul\":12710:12719   */\n      dup3\n        /* \"#utility.yul\":12706:12724   */\n      add\n        /* \"#utility.yul\":12698:12724   */\n      swap1\n      pop\n        /* \"#utility.yul\":12770:12779   */\n      dup2\n        /* \"#utility.yul\":12764:12768   */\n      dup2\n        /* \"#utility.yul\":12760:12780   */\n      sub\n        /* \"#utility.yul\":12756:12757   */\n      0x00\n        /* \"#utility.yul\":12745:12754   */\n      dup4\n        /* \"#utility.yul\":12741:12758   */\n      add\n        /* \"#utility.yul\":12734:12781   */\n      mstore\n        /* \"#utility.yul\":12798:12929   */\n      tag_398\n        /* \"#utility.yul\":12924:12928   */\n      dup2\n        /* \"#utility.yul\":12798:12929   */\n      tag_266\n      jump\t// in\n    tag_398:\n        /* \"#utility.yul\":12790:12929   */\n      swap1\n      pop\n        /* \"#utility.yul\":12517:12936   */\n      swap2\n      swap1\n      pop\n      jump\t// out\n        /* \"#utility.yul\":12942:13122   */\n    tag_267:\n        /* \"#utility.yul\":12990:13067   */\n      0x4e487b7100000000000000000000000000000000000000000000000000000000\n        /* \"#utility.yul\":12987:12988   */\n      0x00\n        /* \"#utility.yul\":12980:13068   */\n      mstore\n        /* \"#utility.yul\":13087:13091   */\n      0x11\n        /* \"#utility.yul\":13084:13085   */\n      0x04\n        /* \"#utility.yul\":13077:13092   */\n      mstore\n        /* \"#utility.yul\":13111:13115   */\n      0x24\n        /* \"#utility.yul\":13108:13109   */\n      0x00\n        /* \"#utility.yul\":13101:13116   */\n      revert\n        /* \"#utility.yul\":13128:13361   */\n    tag_126:\n        /* \"#utility.yul\":13167:13170   */\n      0x00\n        /* \"#utility.yul\":13190:13214   */\n      tag_401\n        /* \"#utility.yul\":13208:13213   */\n      dup3\n        /* \"#utility.yul\":13190:13214   */\n      tag_238\n      jump\t// in\n    tag_401:\n        /* \"#utility.yul\":13181:13214   */\n      swap2\n      pop\n        /* \"#utility.yul\":13236:13302   */\n      0xffffffffffffffffffffffffffffffffffffffffffffffffffffffffffffffff\n        /* \"#utility.yul\":13229:13234   */\n      dup3\n        /* \"#utility.yul\":13226:13303   */\n      sub\n        /* \"#utility.yul\":13223:13326   */\n      tag_402\n      jumpi\n        /* \"#utility.yul\":13306:13324   */\n      tag_403\n      tag_267\n      jump\t// in\n    tag_403:\n        /* \"#utility.yul\":13223:13326   */\n    tag_402:\n        /* \"#utility.yul\":13353:13354   */\n      0x01\n        /* \"#utility.yul\":13346:13351   */\n      dup3\n        /* \"#utility.yul\":13342:13355   */\n      add\n        /* \"#utility.yul\":13335:13355   */\n      swap1\n      pop\n        /* \"#utility.yul\":13128:13361   */\n      swap2\n      swap1\n      pop\n      jump\t// out\n        /* \"#utility.yul\":13367:13561   */\n    tag_141:\n        /* \"#utility.yul\":13407:13411   */\n      0x00\n        /* \"#utility.yul\":13427:13447   */\n      tag_405\n        /* \"#utility.yul\":13445:13446   */\n      dup3\n        /* \"#utility.yul\":13427:13447   */\n      tag_238\n      jump\t// in\n    tag_405:\n        /* \"#utility.yul\":13422:13447   */\n      swap2\n      pop\n        /* \"#utility.yul\":13461:13481   */\n      tag_406\n        /* \"#utility.yul\":13479:13480   */\n      dup4\n        /* \"#utility.yul\":13461:13481   */\n      tag_238\n      jump\t// in\n    tag_406:\n        /* \"#utility.yul\":13456:13481   */\n      swap3\n      pop\n        /* \"#utility.yul\":13505:13506   */\n      dup3\n        /* \"#utility.yul\":13502:13503   */\n      dup3\n        /* \"#utility.yul\":13498:13507   */\n      sub\n        /* \"#utility.yul\":13490:13507   */\n      swap1\n      pop\n        /* \"#utility.yul\":13529:13530   */\n      dup2\n        /* \"#utility.yul\":13523:13527   */\n      dup2\n        /* \"#utility.yul\":13520:13531   */\n      gt\n        /* \"#utility.yul\":13517:13554   */\n      iszero\n      tag_407\n      jumpi\n        /* \"#utility.yul\":13534:13552   */\n      tag_408\n      tag_267\n      jump\t// in\n    tag_408:\n        /* \"#utility.yul\":13517:13554   */\n    tag_407:\n        /* \"#utility.yul\":13367:13561   */\n      swap3\n      swap2\n      pop\n      pop\n      jump\t// out\n        /* \"#utility.yul\":13567:13747   */\n    tag_268:\n        /* \"#utility.yul\":13615:13692   */\n      0x4e487b7100000000000000000000000000000000000000000000000000000000\n        /* \"#utility.yul\":13612:13613   */\n      0x00\n        /* \"#utility.yul\":13605:13693   */\n      mstore\n        /* \"#utility.yul\":13712:13716   */\n      0x12\n        /* \"#utility.yul\":13709:13710   */\n      0x04\n        /* \"#utility.yul\":13702:13717   */\n      mstore\n        /* \"#utility.yul\":13736:13740   */\n      0x24\n        /* \"#utility.yul\":13733:13734   */\n      0x00\n        /* \"#utility.yul\":13726:13741   */\n      revert\n        /* \"#utility.yul\":13753:13938   */\n    tag_143:\n        /* \"#utility.yul\":13793:13794   */\n      0x00\n        /* \"#utility.yul\":13810:13830   */\n      tag_411\n        /* \"#utility.yul\":13828:13829   */\n      dup3\n        /* \"#utility.yul\":13810:13830   */\n      tag_238\n      jump\t// in\n    tag_411:\n        /* \"#utility.yul\":13805:13830   */\n      swap2\n      pop\n        /* \"#utility.yul\":13844:13864   */\n      tag_412\n        /* \"#utility.yul\":13862:13863   */\n      dup4\n        /* \"#utility.yul\":13844:13864   */\n      tag_238\n      jump\t// in\n    tag_412:\n        /* \"#utility.yul\":13839:13864   */\n      swap3\n      pop\n        /* \"#utility.yul\":13883:13884   */\n      dup3\n        /* \"#utility.yul\":13873:13908   */\n      tag_413\n      jumpi\n        /* \"#utility.yul\":13888:13906   */\n      tag_414\n      tag_268\n      jump\t// in\n    tag_414:\n        /* \"#utility.yul\":13873:13908   */\n    tag_413:\n        /* \"#utility.yul\":13930:13931   */\n      dup3\n        /* \"#utility.yul\":13927:13928   */\n      dup3\n        /* \"#utility.yul\":13923:13932   */\n      div\n        /* \"#utility.yul\":13918:13932   */\n      swap1\n      pop\n        /* \"#utility.yul\":13753:13938   */\n      swap3\n      swap2\n      pop\n      pop\n      jump\t// out\n        /* \"#utility.yul\":13944:14354   */\n    tag_145:\n        /* \"#utility.yul\":13984:13991   */\n      0x00\n        /* \"#utility.yul\":14007:14027   */\n      tag_416\n        /* \"#utility.yul\":14025:14026   */\n      dup3\n        /* \"#utility.yul\":14007:14027   */\n      tag_238\n      jump\t// in\n    tag_416:\n        /* \"#utility.yul\":14002:14027   */\n      swap2\n      pop\n        /* \"#utility.yul\":14041:14061   */\n      tag_417\n        /* \"#utility.yul\":14059:14060   */\n      dup4\n        /* \"#utility.yul\":14041:14061   */\n      tag_238\n      jump\t// in\n    tag_417:\n        /* \"#utility.yul\":14036:14061   */\n      swap3\n      pop\n        /* \"#utility.yul\":14096:14097   */\n      dup3\n        /* \"#utility.yul\":14093:14094   */\n      dup3\n        /* \"#utility.yul\":14089:14098   */\n      mul\n        /* \"#utility.yul\":14118:14148   */\n      tag_418\n        /* \"#utility.yul\":14136:14147   */\n      dup2\n        /* \"#utility.yul\":14118:14148   */\n      tag_238\n      jump\t// in\n    tag_418:\n        /* \"#utility.yul\":14107:14148   */\n      swap2\n      pop\n        /* \"#utility.yul\":14297:14298   */\n      dup3\n        /* \"#utility.yul\":14288:14295   */\n      dup3\n        /* \"#utility.yul\":14284:14299   */\n      div\n        /* \"#utility.yul\":14281:14282   */\n      dup5\n        /* \"#utility.yul\":14278:14300   */\n      eq\n        /* \"#utility.yul\":14258:14259   */\n      dup4\n        /* \"#utility.yul\":14251:14260   */\n      iszero\n        /* \"#utility.yul\":14231:14314   */\n      or\n        /* \"#utility.yul\":14208:14347   */\n      tag_419\n      jumpi\n        /* \"#utility.yul\":14327:14345   */\n      tag_420\n      tag_267\n      jump\t// in\n    tag_420:\n        /* \"#utility.yul\":14208:14347   */\n    tag_419:\n        /* \"#utility.yul\":13992:14354   */\n      pop\n        /* \"#utility.yul\":13944:14354   */\n      swap3\n      swap2\n      pop\n      pop\n      jump\t// out\n        /* \"#utility.yul\":14360:14532   */\n    tag_269:\n        /* \"#utility.yul\":14500:14524   */\n      0x54686520506c616e7420646f65736e7420657869737400000000000000000000\n        /* \"#utility.yul\":14496:14497   */\n      0x00\n        /* \"#utility.yul\":14488:14494   */\n      dup3\n        /* \"#utility.yul\":14484:14498   */\n      add\n        /* \"#utility.yul\":14477:14525   */\n      mstore\n        /* \"#utility.yul\":14360:14532   */\n      pop\n      jump\t// out\n        /* \"#utility.yul\":14538:14904   */\n    tag_270:\n        /* \"#utility.yul\":14680:14683   */\n      0x00\n        /* \"#utility.yul\":14701:14768   */\n      tag_423\n        /* \"#utility.yul\":14765:14767   */\n      0x16\n        /* \"#utility.yul\":14760:14763   */\n      dup4\n        /* \"#utility.yul\":14701:14768   */\n      tag_259\n      jump\t// in\n    tag_423:\n        /* \"#utility.yul\":14694:14768   */\n      swap2\n      pop\n        /* \"#utility.yul\":14777:14870   */\n      tag_424\n        /* \"#utility.yul\":14866:14869   */\n      dup3\n        /* \"#utility.yul\":14777:14870   */\n      tag_269\n      jump\t// in\n    tag_424:\n        /* \"#utility.yul\":14895:14897   */\n      0x20\n        /* \"#utility.yul\":14890:14893   */\n      dup3\n        /* \"#utility.yul\":14886:14898   */\n      add\n        /* \"#utility.yul\":14879:14898   */\n      swap1\n      pop\n        /* \"#utility.yul\":14538:14904   */\n      swap2\n      swap1\n      pop\n      jump\t// out\n        /* \"#utility.yul\":14910:15329   */\n    tag_153:\n        /* \"#utility.yul\":15076:15080   */\n      0x00\n        /* \"#utility.yul\":15114:15116   */\n      0x20\n        /* \"#utility.yul\":15103:15112   */\n      dup3\n        /* \"#utility.yul\":15099:15117   */\n      add\n        /* \"#utility.yul\":15091:15117   */\n      swap1\n      pop\n        /* \"#utility.yul\":15163:15172   */\n      dup2\n        /* \"#utility.yul\":15157:15161   */\n      dup2\n        /* \"#utility.yul\":15153:15173   */\n      sub\n        /* \"#utility.yul\":15149:15150   */\n      0x00\n        /* \"#utility.yul\":15138:15147   */\n      dup4\n        /* \"#utility.yul\":15134:15151   */\n      add\n        /* \"#utility.yul\":15127:15174   */\n      mstore\n        /* \"#utility.yul\":15191:15322   */\n      tag_426\n        /* \"#utility.yul\":15317:15321   */\n      dup2\n        /* \"#utility.yul\":15191:15322   */\n      tag_270\n      jump\t// in\n    tag_426:\n        /* \"#utility.yul\":15183:15322   */\n      swap1\n      pop\n        /* \"#utility.yul\":14910:15329   */\n      swap2\n      swap1\n      pop\n      jump\t// out\n        /* \"#utility.yul\":15335:15505   */\n    tag_271:\n        /* \"#utility.yul\":15475:15497   */\n      0x5468697320706c616e74206e6f7420796f757273000000000000000000000000\n        /* \"#utility.yul\":15471:15472   */\n      0x00\n        /* \"#utility.yul\":15463:15469   */\n      dup3\n        /* \"#utility.yul\":15459:15473   */\n      add\n        /* \"#utility.yul\":15452:15498   */\n      mstore\n        /* \"#utility.yul\":15335:15505   */\n      pop\n      jump\t// out\n        /* \"#utility.yul\":15511:15877   */\n    tag_272:\n        /* \"#utility.yul\":15653:15656   */\n      0x00\n        /* \"#utility.yul\":15674:15741   */\n      tag_429\n        /* \"#utility.yul\":15738:15740   */\n      0x14\n        /* \"#utility.yul\":15733:15736   */\n      dup4\n        /* \"#utility.yul\":15674:15741   */\n      tag_259\n      jump\t// in\n    tag_429:\n        /* \"#utility.yul\":15667:15741   */\n      swap2\n      pop\n        /* \"#utility.yul\":15750:15843   */\n      tag_430\n        /* \"#utility.yul\":15839:15842   */\n      dup3\n        /* \"#utility.yul\":15750:15843   */\n      tag_271\n      jump\t// in\n    tag_430:\n        /* \"#utility.yul\":15868:15870   */\n      0x20\n        /* \"#utility.yul\":15863:15866   */\n      dup3\n        /* \"#utility.yul\":15859:15871   */\n      add\n        /* \"#utility.yul\":15852:15871   */\n      swap1\n      pop\n        /* \"#utility.yul\":15511:15877   */\n      swap2\n      swap1\n      pop\n      jump\t// out\n        /* \"#utility.yul\":15883:16302   */\n    tag_156:\n        /* \"#utility.yul\":16049:16053   */\n      0x00\n        /* \"#utility.yul\":16087:16089   */\n      0x20\n        /* \"#utility.yul\":16076:16085   */\n      dup3\n        /* \"#utility.yul\":16072:16090   */\n      add\n        /* \"#utility.yul\":16064:16090   */\n      swap1\n      pop\n        /* \"#utility.yul\":16136:16145   */\n      dup2\n        /* \"#utility.yul\":16130:16134   */\n      dup2\n        /* \"#utility.yul\":16126:16146   */\n      sub\n        /* \"#utility.yul\":16122:16123   */\n      0x00\n        /* \"#utility.yul\":16111:16120   */\n      dup4\n        /* \"#utility.yul\":16107:16124   */\n      add\n        /* \"#utility.yul\":16100:16147   */\n      mstore\n        /* \"#utility.yul\":16164:16295   */\n      tag_432\n        /* \"#utility.yul\":16290:16294   */\n      dup2\n        /* \"#utility.yul\":16164:16295   */\n      tag_272\n      jump\t// in\n    tag_432:\n        /* \"#utility.yul\":16156:16295   */\n      swap1\n      pop\n        /* \"#utility.yul\":15883:16302   */\n      swap2\n      swap1\n      pop\n      jump\t// out\n        /* \"#utility.yul\":16308:16475   */\n    tag_273:\n        /* \"#utility.yul\":16448:16467   */\n      0x54686520506c616e742069732064656164000000000000000000000000000000\n        /* \"#utility.yul\":16444:16445   */\n      0x00\n        /* \"#utility.yul\":16436:16442   */\n      dup3\n        /* \"#utility.yul\":16432:16446   */\n      add\n        /* \"#utility.yul\":16425:16468   */\n      mstore\n        /* \"#utility.yul\":16308:16475   */\n      pop\n      jump\t// out\n        /* \"#utility.yul\":16481:16847   */\n    tag_274:\n        /* \"#utility.yul\":16623:16626   */\n      0x00\n        /* \"#utility.yul\":16644:16711   */\n      tag_435\n        /* \"#utility.yul\":16708:16710   */\n      0x11\n        /* \"#utility.yul\":16703:16706   */\n      dup4\n        /* \"#utility.yul\":16644:16711   */\n      tag_259\n      jump\t// in\n    tag_435:\n        /* \"#utility.yul\":16637:16711   */\n      swap2\n      pop\n        /* \"#utility.yul\":16720:16813   */\n      tag_436\n        /* \"#utility.yul\":16809:16812   */\n      dup3\n        /* \"#utility.yul\":16720:16813   */\n      tag_273\n      jump\t// in\n    tag_436:\n        /* \"#utility.yul\":16838:16840   */\n      0x20\n        /* \"#utility.yul\":16833:16836   */\n      dup3\n        /* \"#utility.yul\":16829:16841   */\n      add\n        /* \"#utility.yul\":16822:16841   */\n      swap1\n      pop\n        /* \"#utility.yul\":16481:16847   */\n      swap2\n      swap1\n      pop\n      jump\t// out\n        /* \"#utility.yul\":16853:17272   */\n    tag_159:\n        /* \"#utility.yul\":17019:17023   */\n      0x00\n        /* \"#utility.yul\":17057:17059   */\n      0x20\n        /* \"#utility.yul\":17046:17055   */\n      dup3\n        /* \"#utility.yul\":17042:17060   */\n      add\n        /* \"#utility.yul\":17034:17060   */\n      swap1\n      pop\n        /* \"#utility.yul\":17106:17115   */\n      dup2\n        /* \"#utility.yul\":17100:17104   */\n      dup2\n        /* \"#utility.yul\":17096:17116   */\n      sub\n        /* \"#utility.yul\":17092:17093   */\n      0x00\n        /* \"#utility.yul\":17081:17090   */\n      dup4\n        /* \"#utility.yul\":17077:17094   */\n      add\n        /* \"#utility.yul\":17070:17117   */\n      mstore\n        /* \"#utility.yul\":17134:17265   */\n      tag_438\n        /* \"#utility.yul\":17260:17264   */\n      dup2\n        /* \"#utility.yul\":17134:17265   */\n      tag_274\n      jump\t// in\n    tag_438:\n        /* \"#utility.yul\":17126:17265   */\n      swap1\n      pop\n        /* \"#utility.yul\":16853:17272   */\n      swap2\n      swap1\n      pop\n      jump\t// out\n        /* \"#utility.yul\":17278:17522   */\n    tag_191:\n        /* \"#utility.yul\":17382:17386   */\n      0x00\n        /* \"#utility.yul\":17420:17422   */\n      0x20\n        /* \"#utility.yul\":17409:17418   */\n      dup3\n        /* \"#utility.yul\":17405:17423   */\n      add\n        /* \"#utility.yul\":17397:17423   */\n      swap1\n      pop\n        /* \"#utility.yul\":17433:17515   */\n      tag_440\n        /* \"#utility.yul\":17512:17513   */\n      0x00\n        /* \"#utility.yul\":17501:17510   */\n      dup4\n        /* \"#utility.yul\":17497:17514   */\n      add\n        /* \"#utility.yul\":17488:17494   */\n      dup5\n        /* \"#utility.yul\":17433:17515   */\n      tag_250\n      jump\t// in\n    tag_440:\n        /* \"#utility.yul\":17278:17522   */\n      swap3\n      swap2\n      pop\n      pop\n      jump\t// out\n        /* \"#utility.yul\":17528:17700   */\n    tag_275:\n        /* \"#utility.yul\":17668:17692   */\n      0x54686520737461676520646f65736e74206d6163746800000000000000000000\n        /* \"#utility.yul\":17664:17665   */\n      0x00\n        /* \"#utility.yul\":17656:17662   */\n      dup3\n        /* \"#utility.yul\":17652:17666   */\n      add\n        /* \"#utility.yul\":17645:17693   */\n      mstore\n        /* \"#utility.yul\":17528:17700   */\n      pop\n      jump\t// out\n        /* \"#utility.yul\":17706:18072   */\n    tag_276:\n        /* \"#utility.yul\":17848:17851   */\n      0x00\n        /* \"#utility.yul\":17869:17936   */\n      tag_443\n        /* \"#utility.yul\":17933:17935   */\n      0x16\n        /* \"#utility.yul\":17928:17931   */\n      dup4\n        /* \"#utility.yul\":17869:17936   */\n      tag_259\n      jump\t// in\n    tag_443:\n        /* \"#utility.yul\":17862:17936   */\n      swap2\n      pop\n        /* \"#utility.yul\":17945:18038   */\n      tag_444\n        /* \"#utility.yul\":18034:18037   */\n      dup3\n        /* \"#utility.yul\":17945:18038   */\n      tag_275\n      jump\t// in\n    tag_444:\n        /* \"#utility.yul\":18063:18065   */\n      0x20\n        /* \"#utility.yul\":18058:18061   */\n      dup3\n        /* \"#utility.yul\":18054:18066   */\n      add\n        /* \"#utility.yul\":18047:18066   */\n      swap1\n      pop\n        /* \"#utility.yul\":17706:18072   */\n      swap2\n      swap1\n      pop\n      jump\t// out\n        /* \"#utility.yul\":18078:18497   */\n    tag_206:\n        /* \"#utility.yul\":18244:18248   */\n      0x00\n        /* \"#utility.yul\":18282:18284   */\n      0x20\n        /* \"#utility.yul\":18271:18280   */\n      dup3\n        /* \"#utility.yul\":18267:18285   */\n      add\n        /* \"#utility.yul\":18259:18285   */\n      swap1\n      pop\n        /* \"#utility.yul\":18331:18340   */\n      dup2\n        /* \"#utility.yul\":18325:18329   */\n      dup2\n        /* \"#utility.yul\":18321:18341   */\n      sub\n        /* \"#utility.yul\":18317:18318   */\n      0x00\n        /* \"#utility.yul\":18306:18315   */\n      dup4\n        /* \"#utility.yul\":18302:18319   */\n      add\n        /* \"#utility.yul\":18295:18342   */\n      mstore\n        /* \"#utility.yul\":18359:18490   */\n      tag_446\n        /* \"#utility.yul\":18485:18489   */\n      dup2\n        /* \"#utility.yul\":18359:18490   */\n      tag_276\n      jump\t// in\n    tag_446:\n        /* \"#utility.yul\":18351:18490   */\n      swap1\n      pop\n        /* \"#utility.yul\":18078:18497   */\n      swap2\n      swap1\n      pop\n      jump\t// out\n\n    auxdata: 0xa264697066735822122042d965ed080da669c6fbbbe4f62b1ff12fc27d75d6d228114a0e4895f50126c564736f6c634300081e0033\n}\n",
				"bytecode": {
					"linkReferences": {},
					"object": "6080604052348015600e575f5ffd5b503360035f6101000a81548173ffffffffffffffffffffffffffffffffffffffff021916908373ffffffffffffffffffffffffffffffffffffffff1602179055505f600281905550611cae806100635f395ff3fe60806040526004361061010c575f3560e01c80638dd2361c11610094578063cfc9a5f811610063578063cfc9a5f814610366578063d0e30db014610390578063ddd425961461039a578063e38f8448146103c2578063ed0b1f5f146103ea57610113565b80638dd2361c146102a75780639886bcfa146102ea5780639c47174914610312578063bacb5ebd1461033c57610113565b8063754e150d116100db578063754e150d146101b15780637ed4c5be146101ed578063891c0785146102175780638aee578b146102415780638da5cb5b1461027d57610113565b806330cec0eb146101175780633ccfd60b1461015357806351f9efde1461016957806374119a381461019357610113565b3661011357005b5f5ffd5b348015610122575f5ffd5b5061013d60048036038101906101389190611447565b610426565b60405161014a9190611532565b60405180910390f35b34801561015e575f5ffd5b506101676104b9565b005b348015610174575f5ffd5b5061017d610614565b60405161018a9190611561565b60405180910390f35b61019b610619565b6040516101a89190611561565b60405180910390f35b3480156101bc575f5ffd5b506101d760048036038101906101d291906115a4565b61084f565b6040516101e49190611561565b60405180910390f35b3480156101f8575f5ffd5b506102016109e4565b60405161020e9190611561565b60405180910390f35b348015610222575f5ffd5b5061022b6109e9565b6040516102389190611561565b60405180910390f35b34801561024c575f5ffd5b50610267600480360381019061026291906115cf565b6109f4565b6040516102749190611561565b60405180910390f35b348015610288575f5ffd5b50610291610a1f565b60405161029e919061161c565b60405180910390f35b3480156102b2575f5ffd5b506102cd60048036038101906102c891906115a4565b610a44565b6040516102e19897969594939291906116c2565b60405180910390f35b3480156102f5575f5ffd5b50610310600480360381019061030b91906115a4565b610acc565b005b34801561031d575f5ffd5b50610326610c6e565b6040516103339190611561565b60405180910390f35b348015610347575f5ffd5b50610350610c74565b60405161035d9190611759565b60405180910390f35b348015610371575f5ffd5b5061037a610c79565b6040516103879190611561565b60405180910390f35b610398610c84565b005b3480156103a5575f5ffd5b506103c060048036038101906103bb91906115a4565b610c86565b005b3480156103cd575f5ffd5b506103e860048036038101906103e391906115a4565b610eab565b005b3480156103f5575f5ffd5b50610410600480360381019061040b91906115a4565b6111b7565b60405161041d919061183f565b60405180910390f35b606060015f8373ffffffffffffffffffffffffffffffffffffffff1673ffffffffffffffffffffffffffffffffffffffff1681526020019081526020015f208054806020026020016040519081016040528092919081815260200182805480156104ad57602002820191905f5260205f20905b815481526020019060010190808311610499575b50505050509050919050565b60035f9054906101000a900473ffffffffffffffffffffffffffffffffffffffff1673ffffffffffffffffffffffffffffffffffffffff163373ffffffffffffffffffffffffffffffffffffffff1614610548576040517f08c379a000000000000000000000000000000000000000000000000000000000815260040161053f906118b3565b60405180910390fd5b5f60035f9054906101000a900473ffffffffffffffffffffffffffffffffffffffff1673ffffffffffffffffffffffffffffffffffffffff164760405161058e906118fe565b5f6040518083038185875af1925050503d805f81146105c8576040519150601f19603f3d011682016040523d82523d5f602084013e6105cd565b606091505b5050905080610611576040517f08c379a00000000000000000000000000000000000000000000000000000000081526004016106089061195c565b60405180910390fd5b50565b603c81565b5f66038d7ea4c6800034101561062d575f5ffd5b60025f81548092919061063f906119a7565b919050555060405180610100016040528060025481526020013373ffffffffffffffffffffffffffffffffffffffff1681526020015f600381111561068757610686611635565b5b8152602001428152602001428152602001606481526020016001151581526020015f15158152505f5f60025481526020019081526020015f205f820151815f01556020820151816001015f6101000a81548173ffffffffffffffffffffffffffffffffffffffff021916908373ffffffffffffffffffffffffffffffffffffffff16021790555060408201518160010160146101000a81548160ff0219169083600381111561073957610738611635565b5b0217905550606082015181600201556080820151816003015560a0820151816004015560c0820151816005015f6101000a81548160ff02191690831515021790555060e08201518160050160016101000a81548160ff02191690831515021790555090505060015f3373ffffffffffffffffffffffffffffffffffffffff1673ffffffffffffffffffffffffffffffffffffffff1681526020019081526020015f20600254908060018154018082558091505060019003905f5260205f20015f90919091909150556002543373ffffffffffffffffffffffffffffffffffffffff167f4f5b22082ac57121703b0b6c1203ef527cfbfa5069616fee6deb979d124adbf060405160405180910390a3600254905090565b5f5f5f5f8481526020019081526020015f20604051806101000160405290815f8201548152602001600182015f9054906101000a900473ffffffffffffffffffffffffffffffffffffffff1673ffffffffffffffffffffffffffffffffffffffff1673ffffffffffffffffffffffffffffffffffffffff1681526020016001820160149054906101000a900460ff1660038111156108f0576108ef611635565b5b600381111561090257610901611635565b5b8152602001600282015481526020016003820154815260200160048201548152602001600582015f9054906101000a900460ff161515151581526020016005820160019054906101000a900460ff16151515158152505090508060c00151158061096d57508060e001515b1561097b575f9150506109df565b5f81608001514261098c91906119ee565b90505f601e8261099c9190611a4e565b90505f600260ff16826109af9190611a7e565b90508360a0015181106109c8575f9450505050506109df565b808460a001516109d891906119ee565b9450505050505b919050565b601e81565b660aa87bee53800081565b6001602052815f5260405f208181548110610a0d575f80fd5b905f5260205f20015f91509150505481565b60035f9054906101000a900473ffffffffffffffffffffffffffffffffffffffff1681565b5f602052805f5260405f205f91509050805f015490806001015f9054906101000a900473ffffffffffffffffffffffffffffffffffffffff16908060010160149054906101000a900460ff1690806002015490806003015490806004015490806005015f9054906101000a900460ff16908060050160019054906101000a900460ff16905088565b5f5f5f8381526020019081526020015f209050806005015f9054906101000a900460ff16610b2f576040517f08c379a0000000000000000000000000000000000000000000000000000000008152600401610b2690611b09565b60405180910390fd5b3373ffffffffffffffffffffffffffffffffffffffff16816001015f9054906101000a900473ffffffffffffffffffffffffffffffffffffffff1673ffffffffffffffffffffffffffffffffffffffff1614610bc0576040517f08c379a0000000000000000000000000000000000000000000000000000000008152600401610bb790611b71565b60405180910390fd5b8060050160019054906101000a900460ff1615610c12576040517f08c379a0000000000000000000000000000000000000000000000000000000008152600401610c0990611bd9565b60405180910390fd5b60648160040181905550428160030181905550817ffa682feb3090180eda377672ba020dae237bd124aee1085e233d47762b7e4e818260040154604051610c599190611561565b60405180910390a2610c6a82610c86565b5050565b60025481565b600281565b66038d7ea4c6800081565b565b5f5f5f8381526020019081526020015f2090505f8160010160149054906101000a900460ff169050816005015f9054906101000a900460ff16610cfe576040517f08c379a0000000000000000000000000000000000000000000000000000000008152600401610cf590611b09565b60405180910390fd5b610d07836112e5565b8160050160019054906101000a900460ff1615610d25575050610ea8565b5f826003015442610d3691906119ee565b905060f08110610d725760038360010160146101000a81548160ff02191690836003811115610d6857610d67611635565b5b0217905550610e1e565b60b48110610dac5760028360010160146101000a81548160ff02191690836003811115610da257610da1611635565b5b0217905550610e1d565b60788110610de65760018360010160146101000a81548160ff02191690836003811115610ddc57610ddb611635565b5b0217905550610e1c565b603c8110610e1b575f8360010160146101000a81548160ff02191690836003811115610e1557610e14611635565b5b02179055505b5b5b5b816003811115610e3157610e30611635565b5b8360010160149054906101000a900460ff166003811115610e5557610e54611635565b5b14610ea457837f338b8976706f9da67298dddfa1ea4ff7d99cce68b9ca39c4f348994f8e2124a88460010160149054906101000a900460ff16604051610e9b9190611bf7565b60405180910390a25b5050505b50565b5f5f5f8381526020019081526020015f209050806005015f9054906101000a900460ff16610f0e576040517f08c379a0000000000000000000000000000000000000000000000000000000008152600401610f0590611b09565b60405180910390fd5b806001015f9054906101000a900473ffffffffffffffffffffffffffffffffffffffff1673ffffffffffffffffffffffffffffffffffffffff163373ffffffffffffffffffffffffffffffffffffffff1614610f9f576040517f08c379a0000000000000000000000000000000000000000000000000000000008152600401610f9690611b71565b60405180910390fd5b8060050160019054906101000a900460ff1615610ff1576040517f08c379a0000000000000000000000000000000000000000000000000000000008152600401610fe890611bd9565b60405180910390fd5b610ffa82610c86565b60038081111561100d5761100c611635565b5b8160010160149054906101000a900460ff16600381111561103157611030611635565b5b14611071576040517f08c379a000000000000000000000000000000000000000000000000000000000815260040161106890611c5a565b60405180910390fd5b5f816005015f6101000a81548160ff02191690831515021790555060035f9054906101000a900473ffffffffffffffffffffffffffffffffffffffff1673ffffffffffffffffffffffffffffffffffffffff16827f79f2138ea100070ff95b59c265da7aa3c7a0f61595fe1bb2f5fda2762f398847660aa87bee5380006040516110fb9190611561565b60405180910390a35f3373ffffffffffffffffffffffffffffffffffffffff16660aa87bee53800060405161112f906118fe565b5f6040518083038185875af1925050503d805f8114611169576040519150601f19603f3d011682016040523d82523d5f602084013e61116e565b606091505b50509050806111b2576040517f08c379a00000000000000000000000000000000000000000000000000000000081526004016111a99061195c565b60405180910390fd5b505050565b6111bf611380565b5f5f5f8481526020019081526020015f20604051806101000160405290815f8201548152602001600182015f9054906101000a900473ffffffffffffffffffffffffffffffffffffffff1673ffffffffffffffffffffffffffffffffffffffff1673ffffffffffffffffffffffffffffffffffffffff1681526020016001820160149054906101000a900460ff16600381111561125f5761125e611635565b5b600381111561127157611270611635565b5b8152602001600282015481526020016003820154815260200160048201548152602001600582015f9054906101000a900460ff161515151581526020016005820160019054906101000a900460ff16151515158152505090506112d38361084f565b8160a001818152505080915050919050565b5f5f5f8381526020019081526020015f2090505f6113028361084f565b90508082600401819055505f8114801561132b57508160050160019054906101000a900460ff16155b1561137b5760018260050160016101000a81548160ff021916908315150217905550827fcc296a21951f3e57f21afb08547d835a0a9f0f06cc2867009cbe0cae44d36be960405160405180910390a25b505050565b6040518061010001604052805f81526020015f73ffffffffffffffffffffffffffffffffffffffff1681526020015f60038111156113c1576113c0611635565b5b81526020015f81526020015f81526020015f81526020015f151581526020015f151581525090565b5f5ffd5b5f73ffffffffffffffffffffffffffffffffffffffff82169050919050565b5f611416826113ed565b9050919050565b6114268161140c565b8114611430575f5ffd5b50565b5f813590506114418161141d565b92915050565b5f6020828403121561145c5761145b6113e9565b5b5f61146984828501611433565b91505092915050565b5f81519050919050565b5f82825260208201905092915050565b5f819050602082019050919050565b5f819050919050565b6114ad8161149b565b82525050565b5f6114be83836114a4565b60208301905092915050565b5f602082019050919050565b5f6114e082611472565b6114ea818561147c565b93506114f58361148c565b805f5b8381101561152557815161150c88826114b3565b9750611517836114ca565b9250506001810190506114f8565b5085935050505092915050565b5f6020820190508181035f83015261154a81846114d6565b905092915050565b61155b8161149b565b82525050565b5f6020820190506115745f830184611552565b92915050565b6115838161149b565b811461158d575f5ffd5b50565b5f8135905061159e8161157a565b92915050565b5f602082840312156115b9576115b86113e9565b5b5f6115c684828501611590565b91505092915050565b5f5f604083850312156115e5576115e46113e9565b5b5f6115f285828601611433565b925050602061160385828601611590565b9150509250929050565b6116168161140c565b82525050565b5f60208201905061162f5f83018461160d565b92915050565b7f4e487b71000000000000000000000000000000000000000000000000000000005f52602160045260245ffd5b6004811061167357611672611635565b5b50565b5f81905061168382611662565b919050565b5f61169282611676565b9050919050565b6116a281611688565b82525050565b5f8115159050919050565b6116bc816116a8565b82525050565b5f610100820190506116d65f83018b611552565b6116e3602083018a61160d565b6116f06040830189611699565b6116fd6060830188611552565b61170a6080830187611552565b61171760a0830186611552565b61172460c08301856116b3565b61173160e08301846116b3565b9998505050505050505050565b5f60ff82169050919050565b6117538161173e565b82525050565b5f60208201905061176c5f83018461174a565b92915050565b61177b8161140c565b82525050565b61178a81611688565b82525050565b611799816116a8565b82525050565b61010082015f8201516117b45f8501826114a4565b5060208201516117c76020850182611772565b5060408201516117da6040850182611781565b5060608201516117ed60608501826114a4565b50608082015161180060808501826114a4565b5060a082015161181360a08501826114a4565b5060c082015161182660c0850182611790565b5060e082015161183960e0850182611790565b50505050565b5f610100820190506118535f83018461179f565b92915050565b5f82825260208201905092915050565b7f42756b616e206f776e65720000000000000000000000000000000000000000005f82015250565b5f61189d600b83611859565b91506118a882611869565b602082019050919050565b5f6020820190508181035f8301526118ca81611891565b9050919050565b5f81905092915050565b50565b5f6118e95f836118d1565b91506118f4826118db565b5f82019050919050565b5f611908826118de565b9150819050919050565b7f5472616e7366657220676167616c0000000000000000000000000000000000005f82015250565b5f611946600e83611859565b915061195182611912565b602082019050919050565b5f6020820190508181035f8301526119738161193a565b9050919050565b7f4e487b71000000000000000000000000000000000000000000000000000000005f52601160045260245ffd5b5f6119b18261149b565b91507fffffffffffffffffffffffffffffffffffffffffffffffffffffffffffffffff82036119e3576119e261197a565b5b600182019050919050565b5f6119f88261149b565b9150611a038361149b565b9250828203905081811115611a1b57611a1a61197a565b5b92915050565b7f4e487b71000000000000000000000000000000000000000000000000000000005f52601260045260245ffd5b5f611a588261149b565b9150611a638361149b565b925082611a7357611a72611a21565b5b828204905092915050565b5f611a888261149b565b9150611a938361149b565b9250828202611aa18161149b565b91508282048414831517611ab857611ab761197a565b5b5092915050565b7f54686520506c616e7420646f65736e74206578697374000000000000000000005f82015250565b5f611af3601683611859565b9150611afe82611abf565b602082019050919050565b5f6020820190508181035f830152611b2081611ae7565b9050919050565b7f5468697320706c616e74206e6f7420796f7572730000000000000000000000005f82015250565b5f611b5b601483611859565b9150611b6682611b27565b602082019050919050565b5f6020820190508181035f830152611b8881611b4f565b9050919050565b7f54686520506c616e7420697320646561640000000000000000000000000000005f82015250565b5f611bc3601183611859565b9150611bce82611b8f565b602082019050919050565b5f6020820190508181035f830152611bf081611bb7565b9050919050565b5f602082019050611c0a5f830184611699565b92915050565b7f54686520737461676520646f65736e74206d61637468000000000000000000005f82015250565b5f611c44601683611859565b9150611c4f82611c10565b602082019050919050565b5f6020820190508181035f830152611c7181611c38565b905091905056fea264697066735822122042d965ed080da669c6fbbbe4f62b1ff12fc27d75d6d228114a0e4895f50126c564736f6c634300081e0033",
					"opcodes": "PUSH1 0x80 PUSH1 0x40 MSTORE CALLVALUE DUP1 ISZERO PUSH1 0xE JUMPI PUSH0 PUSH0 REVERT JUMPDEST POP CALLER PUSH1 0x3 PUSH0 PUSH2 0x100 EXP DUP2 SLOAD DUP2 PUSH20 0xFFFFFFFFFFFFFFFFFFFFFFFFFFFFFFFFFFFFFFFF MUL NOT AND SWAP1 DUP4 PUSH20 0xFFFFFFFFFFFFFFFFFFFFFFFFFFFFFFFFFFFFFFFF AND MUL OR SWAP1 SSTORE POP PUSH0 PUSH1 0x2 DUP2 SWAP1 SSTORE POP PUSH2 0x1CAE DUP1 PUSH2 0x63 PUSH0 CODECOPY PUSH0 RETURN INVALID PUSH1 0x80 PUSH1 0x40 MSTORE PUSH1 0x4 CALLDATASIZE LT PUSH2 0x10C JUMPI PUSH0 CALLDATALOAD PUSH1 0xE0 SHR DUP1 PUSH4 0x8DD2361C GT PUSH2 0x94 JUMPI DUP1 PUSH4 0xCFC9A5F8 GT PUSH2 0x63 JUMPI DUP1 PUSH4 0xCFC9A5F8 EQ PUSH2 0x366 JUMPI DUP1 PUSH4 0xD0E30DB0 EQ PUSH2 0x390 JUMPI DUP1 PUSH4 0xDDD42596 EQ PUSH2 0x39A JUMPI DUP1 PUSH4 0xE38F8448 EQ PUSH2 0x3C2 JUMPI DUP1 PUSH4 0xED0B1F5F EQ PUSH2 0x3EA JUMPI PUSH2 0x113 JUMP JUMPDEST DUP1 PUSH4 0x8DD2361C EQ PUSH2 0x2A7 JUMPI DUP1 PUSH4 0x9886BCFA EQ PUSH2 0x2EA JUMPI DUP1 PUSH4 0x9C471749 EQ PUSH2 0x312 JUMPI DUP1 PUSH4 0xBACB5EBD EQ PUSH2 0x33C JUMPI PUSH2 0x113 JUMP JUMPDEST DUP1 PUSH4 0x754E150D GT PUSH2 0xDB JUMPI DUP1 PUSH4 0x754E150D EQ PUSH2 0x1B1 JUMPI DUP1 PUSH4 0x7ED4C5BE EQ PUSH2 0x1ED JUMPI DUP1 PUSH4 0x891C0785 EQ PUSH2 0x217 JUMPI DUP1 PUSH4 0x8AEE578B EQ PUSH2 0x241 JUMPI DUP1 PUSH4 0x8DA5CB5B EQ PUSH2 0x27D JUMPI PUSH2 0x113 JUMP JUMPDEST DUP1 PUSH4 0x30CEC0EB EQ PUSH2 0x117 JUMPI DUP1 PUSH4 0x3CCFD60B EQ PUSH2 0x153 JUMPI DUP1 PUSH4 0x51F9EFDE EQ PUSH2 0x169 JUMPI DUP1 PUSH4 0x74119A38 EQ PUSH2 0x193 JUMPI PUSH2 0x113 JUMP JUMPDEST CALLDATASIZE PUSH2 0x113 JUMPI STOP JUMPDEST PUSH0 PUSH0 REVERT JUMPDEST CALLVALUE DUP1 ISZERO PUSH2 0x122 JUMPI PUSH0 PUSH0 REVERT JUMPDEST POP PUSH2 0x13D PUSH1 0x4 DUP1 CALLDATASIZE SUB DUP2 ADD SWAP1 PUSH2 0x138 SWAP2 SWAP1 PUSH2 0x1447 JUMP JUMPDEST PUSH2 0x426 JUMP JUMPDEST PUSH1 0x40 MLOAD PUSH2 0x14A SWAP2 SWAP1 PUSH2 0x1532 JUMP JUMPDEST PUSH1 0x40 MLOAD DUP1 SWAP2 SUB SWAP1 RETURN JUMPDEST CALLVALUE DUP1 ISZERO PUSH2 0x15E JUMPI PUSH0 PUSH0 REVERT JUMPDEST POP PUSH2 0x167 PUSH2 0x4B9 JUMP JUMPDEST STOP JUMPDEST CALLVALUE DUP1 ISZERO PUSH2 0x174 JUMPI PUSH0 PUSH0 REVERT JUMPDEST POP PUSH2 0x17D PUSH2 0x614 JUMP JUMPDEST PUSH1 0x40 MLOAD PUSH2 0x18A SWAP2 SWAP1 PUSH2 0x1561 JUMP JUMPDEST PUSH1 0x40 MLOAD DUP1 SWAP2 SUB SWAP1 RETURN JUMPDEST PUSH2 0x19B PUSH2 0x619 JUMP JUMPDEST PUSH1 0x40 MLOAD PUSH2 0x1A8 SWAP2 SWAP1 PUSH2 0x1561 JUMP JUMPDEST PUSH1 0x40 MLOAD DUP1 SWAP2 SUB SWAP1 RETURN JUMPDEST CALLVALUE DUP1 ISZERO PUSH2 0x1BC JUMPI PUSH0 PUSH0 REVERT JUMPDEST POP PUSH2 0x1D7 PUSH1 0x4 DUP1 CALLDATASIZE SUB DUP2 ADD SWAP1 PUSH2 0x1D2 SWAP2 SWAP1 PUSH2 0x15A4 JUMP JUMPDEST PUSH2 0x84F JUMP JUMPDEST PUSH1 0x40 MLOAD PUSH2 0x1E4 SWAP2 SWAP1 PUSH2 0x1561 JUMP JUMPDEST PUSH1 0x40 MLOAD DUP1 SWAP2 SUB SWAP1 RETURN JUMPDEST CALLVALUE DUP1 ISZERO PUSH2 0x1F8 JUMPI PUSH0 PUSH0 REVERT JUMPDEST POP PUSH2 0x201 PUSH2 0x9E4 JUMP JUMPDEST PUSH1 0x40 MLOAD PUSH2 0x20E SWAP2 SWAP1 PUSH2 0x1561 JUMP JUMPDEST PUSH1 0x40 MLOAD DUP1 SWAP2 SUB SWAP1 RETURN JUMPDEST CALLVALUE DUP1 ISZERO PUSH2 0x222 JUMPI PUSH0 PUSH0 REVERT JUMPDEST POP PUSH2 0x22B PUSH2 0x9E9 JUMP JUMPDEST PUSH1 0x40 MLOAD PUSH2 0x238 SWAP2 SWAP1 PUSH2 0x1561 JUMP JUMPDEST PUSH1 0x40 MLOAD DUP1 SWAP2 SUB SWAP1 RETURN JUMPDEST CALLVALUE DUP1 ISZERO PUSH2 0x24C JUMPI PUSH0 PUSH0 REVERT JUMPDEST POP PUSH2 0x267 PUSH1 0x4 DUP1 CALLDATASIZE SUB DUP2 ADD SWAP1 PUSH2 0x262 SWAP2 SWAP1 PUSH2 0x15CF JUMP JUMPDEST PUSH2 0x9F4 JUMP JUMPDEST PUSH1 0x40 MLOAD PUSH2 0x274 SWAP2 SWAP1 PUSH2 0x1561 JUMP JUMPDEST PUSH1 0x40 MLOAD DUP1 SWAP2 SUB SWAP1 RETURN JUMPDEST CALLVALUE DUP1 ISZERO PUSH2 0x288 JUMPI PUSH0 PUSH0 REVERT JUMPDEST POP PUSH2 0x291 PUSH2 0xA1F JUMP JUMPDEST PUSH1 0x40 MLOAD PUSH2 0x29E SWAP2 SWAP1 PUSH2 0x161C JUMP JUMPDEST PUSH1 0x40 MLOAD DUP1 SWAP2 SUB SWAP1 RETURN JUMPDEST CALLVALUE DUP1 ISZERO PUSH2 0x2B2 JUMPI PUSH0 PUSH0 REVERT JUMPDEST POP PUSH2 0x2CD PUSH1 0x4 DUP1 CALLDATASIZE SUB DUP2 ADD SWAP1 PUSH2 0x2C8 SWAP2 SWAP1 PUSH2 0x15A4 JUMP JUMPDEST PUSH2 0xA44 JUMP JUMPDEST PUSH1 0x40 MLOAD PUSH2 0x2E1 SWAP9 SWAP8 SWAP7 SWAP6 SWAP5 SWAP4 SWAP3 SWAP2 SWAP1 PUSH2 0x16C2 JUMP JUMPDEST PUSH1 0x40 MLOAD DUP1 SWAP2 SUB SWAP1 RETURN JUMPDEST CALLVALUE DUP1 ISZERO PUSH2 0x2F5 JUMPI PUSH0 PUSH0 REVERT JUMPDEST POP PUSH2 0x310 PUSH1 0x4 DUP1 CALLDATASIZE SUB DUP2 ADD SWAP1 PUSH2 0x30B SWAP2 SWAP1 PUSH2 0x15A4 JUMP JUMPDEST PUSH2 0xACC JUMP JUMPDEST STOP JUMPDEST CALLVALUE DUP1 ISZERO PUSH2 0x31D JUMPI PUSH0 PUSH0 REVERT JUMPDEST POP PUSH2 0x326 PUSH2 0xC6E JUMP JUMPDEST PUSH1 0x40 MLOAD PUSH2 0x333 SWAP2 SWAP1 PUSH2 0x1561 JUMP JUMPDEST PUSH1 0x40 MLOAD DUP1 SWAP2 SUB SWAP1 RETURN JUMPDEST CALLVALUE DUP1 ISZERO PUSH2 0x347 JUMPI PUSH0 PUSH0 REVERT JUMPDEST POP PUSH2 0x350 PUSH2 0xC74 JUMP JUMPDEST PUSH1 0x40 MLOAD PUSH2 0x35D SWAP2 SWAP1 PUSH2 0x1759 JUMP JUMPDEST PUSH1 0x40 MLOAD DUP1 SWAP2 SUB SWAP1 RETURN JUMPDEST CALLVALUE DUP1 ISZERO PUSH2 0x371 JUMPI PUSH0 PUSH0 REVERT JUMPDEST POP PUSH2 0x37A PUSH2 0xC79 JUMP JUMPDEST PUSH1 0x40 MLOAD PUSH2 0x387 SWAP2 SWAP1 PUSH2 0x1561 JUMP JUMPDEST PUSH1 0x40 MLOAD DUP1 SWAP2 SUB SWAP1 RETURN JUMPDEST PUSH2 0x398 PUSH2 0xC84 JUMP JUMPDEST STOP JUMPDEST CALLVALUE DUP1 ISZERO PUSH2 0x3A5 JUMPI PUSH0 PUSH0 REVERT JUMPDEST POP PUSH2 0x3C0 PUSH1 0x4 DUP1 CALLDATASIZE SUB DUP2 ADD SWAP1 PUSH2 0x3BB SWAP2 SWAP1 PUSH2 0x15A4 JUMP JUMPDEST PUSH2 0xC86 JUMP JUMPDEST STOP JUMPDEST CALLVALUE DUP1 ISZERO PUSH2 0x3CD JUMPI PUSH0 PUSH0 REVERT JUMPDEST POP PUSH2 0x3E8 PUSH1 0x4 DUP1 CALLDATASIZE SUB DUP2 ADD SWAP1 PUSH2 0x3E3 SWAP2 SWAP1 PUSH2 0x15A4 JUMP JUMPDEST PUSH2 0xEAB JUMP JUMPDEST STOP JUMPDEST CALLVALUE DUP1 ISZERO PUSH2 0x3F5 JUMPI PUSH0 PUSH0 REVERT JUMPDEST POP PUSH2 0x410 PUSH1 0x4 DUP1 CALLDATASIZE SUB DUP2 ADD SWAP1 PUSH2 0x40B SWAP2 SWAP1 PUSH2 0x15A4 JUMP JUMPDEST PUSH2 0x11B7 JUMP JUMPDEST PUSH1 0x40 MLOAD PUSH2 0x41D SWAP2 SWAP1 PUSH2 0x183F JUMP JUMPDEST PUSH1 0x40 MLOAD DUP1 SWAP2 SUB SWAP1 RETURN JUMPDEST PUSH1 0x60 PUSH1 0x1 PUSH0 DUP4 PUSH20 0xFFFFFFFFFFFFFFFFFFFFFFFFFFFFFFFFFFFFFFFF AND PUSH20 0xFFFFFFFFFFFFFFFFFFFFFFFFFFFFFFFFFFFFFFFF AND DUP2 MSTORE PUSH1 0x20 ADD SWAP1 DUP2 MSTORE PUSH1 0x20 ADD PUSH0 KECCAK256 DUP1 SLOAD DUP1 PUSH1 0x20 MUL PUSH1 0x20 ADD PUSH1 0x40 MLOAD SWAP1 DUP2 ADD PUSH1 0x40 MSTORE DUP1 SWAP3 SWAP2 SWAP1 DUP2 DUP2 MSTORE PUSH1 0x20 ADD DUP3 DUP1 SLOAD DUP1 ISZERO PUSH2 0x4AD JUMPI PUSH1 0x20 MUL DUP3 ADD SWAP2 SWAP1 PUSH0 MSTORE PUSH1 0x20 PUSH0 KECCAK256 SWAP1 JUMPDEST DUP2 SLOAD DUP2 MSTORE PUSH1 0x20 ADD SWAP1 PUSH1 0x1 ADD SWAP1 DUP1 DUP4 GT PUSH2 0x499 JUMPI JUMPDEST POP POP POP POP POP SWAP1 POP SWAP2 SWAP1 POP JUMP JUMPDEST PUSH1 0x3 PUSH0 SWAP1 SLOAD SWAP1 PUSH2 0x100 EXP SWAP1 DIV PUSH20 0xFFFFFFFFFFFFFFFFFFFFFFFFFFFFFFFFFFFFFFFF AND PUSH20 0xFFFFFFFFFFFFFFFFFFFFFFFFFFFFFFFFFFFFFFFF AND CALLER PUSH20 0xFFFFFFFFFFFFFFFFFFFFFFFFFFFFFFFFFFFFFFFF AND EQ PUSH2 0x548 JUMPI PUSH1 0x40 MLOAD PUSH32 0x8C379A000000000000000000000000000000000000000000000000000000000 DUP2 MSTORE PUSH1 0x4 ADD PUSH2 0x53F SWAP1 PUSH2 0x18B3 JUMP JUMPDEST PUSH1 0x40 MLOAD DUP1 SWAP2 SUB SWAP1 REVERT JUMPDEST PUSH0 PUSH1 0x3 PUSH0 SWAP1 SLOAD SWAP1 PUSH2 0x100 EXP SWAP1 DIV PUSH20 0xFFFFFFFFFFFFFFFFFFFFFFFFFFFFFFFFFFFFFFFF AND PUSH20 0xFFFFFFFFFFFFFFFFFFFFFFFFFFFFFFFFFFFFFFFF AND SELFBALANCE PUSH1 0x40 MLOAD PUSH2 0x58E SWAP1 PUSH2 0x18FE JUMP JUMPDEST PUSH0 PUSH1 0x40 MLOAD DUP1 DUP4 SUB DUP2 DUP6 DUP8 GAS CALL SWAP3 POP POP POP RETURNDATASIZE DUP1 PUSH0 DUP2 EQ PUSH2 0x5C8 JUMPI PUSH1 0x40 MLOAD SWAP2 POP PUSH1 0x1F NOT PUSH1 0x3F RETURNDATASIZE ADD AND DUP3 ADD PUSH1 0x40 MSTORE RETURNDATASIZE DUP3 MSTORE RETURNDATASIZE PUSH0 PUSH1 0x20 DUP5 ADD RETURNDATACOPY PUSH2 0x5CD JUMP JUMPDEST PUSH1 0x60 SWAP2 POP JUMPDEST POP POP SWAP1 POP DUP1 PUSH2 0x611 JUMPI PUSH1 0x40 MLOAD PUSH32 0x8C379A000000000000000000000000000000000000000000000000000000000 DUP2 MSTORE PUSH1 0x4 ADD PUSH2 0x608 SWAP1 PUSH2 0x195C JUMP JUMPDEST PUSH1 0x40 MLOAD DUP1 SWAP2 SUB SWAP1 REVERT JUMPDEST POP JUMP JUMPDEST PUSH1 0x3C DUP2 JUMP JUMPDEST PUSH0 PUSH7 0x38D7EA4C68000 CALLVALUE LT ISZERO PUSH2 0x62D JUMPI PUSH0 PUSH0 REVERT JUMPDEST PUSH1 0x2 PUSH0 DUP2 SLOAD DUP1 SWAP3 SWAP2 SWAP1 PUSH2 0x63F SWAP1 PUSH2 0x19A7 JUMP JUMPDEST SWAP2 SWAP1 POP SSTORE POP PUSH1 0x40 MLOAD DUP1 PUSH2 0x100 ADD PUSH1 0x40 MSTORE DUP1 PUSH1 0x2 SLOAD DUP2 MSTORE PUSH1 0x20 ADD CALLER PUSH20 0xFFFFFFFFFFFFFFFFFFFFFFFFFFFFFFFFFFFFFFFF AND DUP2 MSTORE PUSH1 0x20 ADD PUSH0 PUSH1 0x3 DUP2 GT ISZERO PUSH2 0x687 JUMPI PUSH2 0x686 PUSH2 0x1635 JUMP JUMPDEST JUMPDEST DUP2 MSTORE PUSH1 0x20 ADD TIMESTAMP DUP2 MSTORE PUSH1 0x20 ADD TIMESTAMP DUP2 MSTORE PUSH1 0x20 ADD PUSH1 0x64 DUP2 MSTORE PUSH1 0x20 ADD PUSH1 0x1 ISZERO ISZERO DUP2 MSTORE PUSH1 0x20 ADD PUSH0 ISZERO ISZERO DUP2 MSTORE POP PUSH0 PUSH0 PUSH1 0x2 SLOAD DUP2 MSTORE PUSH1 0x20 ADD SWAP1 DUP2 MSTORE PUSH1 0x20 ADD PUSH0 KECCAK256 PUSH0 DUP3 ADD MLOAD DUP2 PUSH0 ADD SSTORE PUSH1 0x20 DUP3 ADD MLOAD DUP2 PUSH1 0x1 ADD PUSH0 PUSH2 0x100 EXP DUP2 SLOAD DUP2 PUSH20 0xFFFFFFFFFFFFFFFFFFFFFFFFFFFFFFFFFFFFFFFF MUL NOT AND SWAP1 DUP4 PUSH20 0xFFFFFFFFFFFFFFFFFFFFFFFFFFFFFFFFFFFFFFFF AND MUL OR SWAP1 SSTORE POP PUSH1 0x40 DUP3 ADD MLOAD DUP2 PUSH1 0x1 ADD PUSH1 0x14 PUSH2 0x100 EXP DUP2 SLOAD DUP2 PUSH1 0xFF MUL NOT AND SWAP1 DUP4 PUSH1 0x3 DUP2 GT ISZERO PUSH2 0x739 JUMPI PUSH2 0x738 PUSH2 0x1635 JUMP JUMPDEST JUMPDEST MUL OR SWAP1 SSTORE POP PUSH1 0x60 DUP3 ADD MLOAD DUP2 PUSH1 0x2 ADD SSTORE PUSH1 0x80 DUP3 ADD MLOAD DUP2 PUSH1 0x3 ADD SSTORE PUSH1 0xA0 DUP3 ADD MLOAD DUP2 PUSH1 0x4 ADD SSTORE PUSH1 0xC0 DUP3 ADD MLOAD DUP2 PUSH1 0x5 ADD PUSH0 PUSH2 0x100 EXP DUP2 SLOAD DUP2 PUSH1 0xFF MUL NOT AND SWAP1 DUP4 ISZERO ISZERO MUL OR SWAP1 SSTORE POP PUSH1 0xE0 DUP3 ADD MLOAD DUP2 PUSH1 0x5 ADD PUSH1 0x1 PUSH2 0x100 EXP DUP2 SLOAD DUP2 PUSH1 0xFF MUL NOT AND SWAP1 DUP4 ISZERO ISZERO MUL OR SWAP1 SSTORE POP SWAP1 POP POP PUSH1 0x1 PUSH0 CALLER PUSH20 0xFFFFFFFFFFFFFFFFFFFFFFFFFFFFFFFFFFFFFFFF AND PUSH20 0xFFFFFFFFFFFFFFFFFFFFFFFFFFFFFFFFFFFFFFFF AND DUP2 MSTORE PUSH1 0x20 ADD SWAP1 DUP2 MSTORE PUSH1 0x20 ADD PUSH0 KECCAK256 PUSH1 0x2 SLOAD SWAP1 DUP1 PUSH1 0x1 DUP2 SLOAD ADD DUP1 DUP3 SSTORE DUP1 SWAP2 POP POP PUSH1 0x1 SWAP1 SUB SWAP1 PUSH0 MSTORE PUSH1 0x20 PUSH0 KECCAK256 ADD PUSH0 SWAP1 SWAP2 SWAP1 SWAP2 SWAP1 SWAP2 POP SSTORE PUSH1 0x2 SLOAD CALLER PUSH20 0xFFFFFFFFFFFFFFFFFFFFFFFFFFFFFFFFFFFFFFFF AND PUSH32 0x4F5B22082AC57121703B0B6C1203EF527CFBFA5069616FEE6DEB979D124ADBF0 PUSH1 0x40 MLOAD PUSH1 0x40 MLOAD DUP1 SWAP2 SUB SWAP1 LOG3 PUSH1 0x2 SLOAD SWAP1 POP SWAP1 JUMP JUMPDEST PUSH0 PUSH0 PUSH0 PUSH0 DUP5 DUP2 MSTORE PUSH1 0x20 ADD SWAP1 DUP2 MSTORE PUSH1 0x20 ADD PUSH0 KECCAK256 PUSH1 0x40 MLOAD DUP1 PUSH2 0x100 ADD PUSH1 0x40 MSTORE SWAP1 DUP2 PUSH0 DUP3 ADD SLOAD DUP2 MSTORE PUSH1 0x20 ADD PUSH1 0x1 DUP3 ADD PUSH0 SWAP1 SLOAD SWAP1 PUSH2 0x100 EXP SWAP1 DIV PUSH20 0xFFFFFFFFFFFFFFFFFFFFFFFFFFFFFFFFFFFFFFFF AND PUSH20 0xFFFFFFFFFFFFFFFFFFFFFFFFFFFFFFFFFFFFFFFF AND PUSH20 0xFFFFFFFFFFFFFFFFFFFFFFFFFFFFFFFFFFFFFFFF AND DUP2 MSTORE PUSH1 0x20 ADD PUSH1 0x1 DUP3 ADD PUSH1 0x14 SWAP1 SLOAD SWAP1 PUSH2 0x100 EXP SWAP1 DIV PUSH1 0xFF AND PUSH1 0x3 DUP2 GT ISZERO PUSH2 0x8F0 JUMPI PUSH2 0x8EF PUSH2 0x1635 JUMP JUMPDEST JUMPDEST PUSH1 0x3 DUP2 GT ISZERO PUSH2 0x902 JUMPI PUSH2 0x901 PUSH2 0x1635 JUMP JUMPDEST JUMPDEST DUP2 MSTORE PUSH1 0x20 ADD PUSH1 0x2 DUP3 ADD SLOAD DUP2 MSTORE PUSH1 0x20 ADD PUSH1 0x3 DUP3 ADD SLOAD DUP2 MSTORE PUSH1 0x20 ADD PUSH1 0x4 DUP3 ADD SLOAD DUP2 MSTORE PUSH1 0x20 ADD PUSH1 0x5 DUP3 ADD PUSH0 SWAP1 SLOAD SWAP1 PUSH2 0x100 EXP SWAP1 DIV PUSH1 0xFF AND ISZERO ISZERO ISZERO ISZERO DUP2 MSTORE PUSH1 0x20 ADD PUSH1 0x5 DUP3 ADD PUSH1 0x1 SWAP1 SLOAD SWAP1 PUSH2 0x100 EXP SWAP1 DIV PUSH1 0xFF AND ISZERO ISZERO ISZERO ISZERO DUP2 MSTORE POP POP SWAP1 POP DUP1 PUSH1 0xC0 ADD MLOAD ISZERO DUP1 PUSH2 0x96D JUMPI POP DUP1 PUSH1 0xE0 ADD MLOAD JUMPDEST ISZERO PUSH2 0x97B JUMPI PUSH0 SWAP2 POP POP PUSH2 0x9DF JUMP JUMPDEST PUSH0 DUP2 PUSH1 0x80 ADD MLOAD TIMESTAMP PUSH2 0x98C SWAP2 SWAP1 PUSH2 0x19EE JUMP JUMPDEST SWAP1 POP PUSH0 PUSH1 0x1E DUP3 PUSH2 0x99C SWAP2 SWAP1 PUSH2 0x1A4E JUMP JUMPDEST SWAP1 POP PUSH0 PUSH1 0x2 PUSH1 0xFF AND DUP3 PUSH2 0x9AF SWAP2 SWAP1 PUSH2 0x1A7E JUMP JUMPDEST SWAP1 POP DUP4 PUSH1 0xA0 ADD MLOAD DUP2 LT PUSH2 0x9C8 JUMPI PUSH0 SWAP5 POP POP POP POP POP PUSH2 0x9DF JUMP JUMPDEST DUP1 DUP5 PUSH1 0xA0 ADD MLOAD PUSH2 0x9D8 SWAP2 SWAP1 PUSH2 0x19EE JUMP JUMPDEST SWAP5 POP POP POP POP POP JUMPDEST SWAP2 SWAP1 POP JUMP JUMPDEST PUSH1 0x1E DUP2 JUMP JUMPDEST PUSH7 0xAA87BEE538000 DUP2 JUMP JUMPDEST PUSH1 0x1 PUSH1 0x20 MSTORE DUP2 PUSH0 MSTORE PUSH1 0x40 PUSH0 KECCAK256 DUP2 DUP2 SLOAD DUP2 LT PUSH2 0xA0D JUMPI PUSH0 DUP1 REVERT JUMPDEST SWAP1 PUSH0 MSTORE PUSH1 0x20 PUSH0 KECCAK256 ADD PUSH0 SWAP2 POP SWAP2 POP POP SLOAD DUP2 JUMP JUMPDEST PUSH1 0x3 PUSH0 SWAP1 SLOAD SWAP1 PUSH2 0x100 EXP SWAP1 DIV PUSH20 0xFFFFFFFFFFFFFFFFFFFFFFFFFFFFFFFFFFFFFFFF AND DUP2 JUMP JUMPDEST PUSH0 PUSH1 0x20 MSTORE DUP1 PUSH0 MSTORE PUSH1 0x40 PUSH0 KECCAK256 PUSH0 SWAP2 POP SWAP1 POP DUP1 PUSH0 ADD SLOAD SWAP1 DUP1 PUSH1 0x1 ADD PUSH0 SWAP1 SLOAD SWAP1 PUSH2 0x100 EXP SWAP1 DIV PUSH20 0xFFFFFFFFFFFFFFFFFFFFFFFFFFFFFFFFFFFFFFFF AND SWAP1 DUP1 PUSH1 0x1 ADD PUSH1 0x14 SWAP1 SLOAD SWAP1 PUSH2 0x100 EXP SWAP1 DIV PUSH1 0xFF AND SWAP1 DUP1 PUSH1 0x2 ADD SLOAD SWAP1 DUP1 PUSH1 0x3 ADD SLOAD SWAP1 DUP1 PUSH1 0x4 ADD SLOAD SWAP1 DUP1 PUSH1 0x5 ADD PUSH0 SWAP1 SLOAD SWAP1 PUSH2 0x100 EXP SWAP1 DIV PUSH1 0xFF AND SWAP1 DUP1 PUSH1 0x5 ADD PUSH1 0x1 SWAP1 SLOAD SWAP1 PUSH2 0x100 EXP SWAP1 DIV PUSH1 0xFF AND SWAP1 POP DUP9 JUMP JUMPDEST PUSH0 PUSH0 PUSH0 DUP4 DUP2 MSTORE PUSH1 0x20 ADD SWAP1 DUP2 MSTORE PUSH1 0x20 ADD PUSH0 KECCAK256 SWAP1 POP DUP1 PUSH1 0x5 ADD PUSH0 SWAP1 SLOAD SWAP1 PUSH2 0x100 EXP SWAP1 DIV PUSH1 0xFF AND PUSH2 0xB2F JUMPI PUSH1 0x40 MLOAD PUSH32 0x8C379A000000000000000000000000000000000000000000000000000000000 DUP2 MSTORE PUSH1 0x4 ADD PUSH2 0xB26 SWAP1 PUSH2 0x1B09 JUMP JUMPDEST PUSH1 0x40 MLOAD DUP1 SWAP2 SUB SWAP1 REVERT JUMPDEST CALLER PUSH20 0xFFFFFFFFFFFFFFFFFFFFFFFFFFFFFFFFFFFFFFFF AND DUP2 PUSH1 0x1 ADD PUSH0 SWAP1 SLOAD SWAP1 PUSH2 0x100 EXP SWAP1 DIV PUSH20 0xFFFFFFFFFFFFFFFFFFFFFFFFFFFFFFFFFFFFFFFF AND PUSH20 0xFFFFFFFFFFFFFFFFFFFFFFFFFFFFFFFFFFFFFFFF AND EQ PUSH2 0xBC0 JUMPI PUSH1 0x40 MLOAD PUSH32 0x8C379A000000000000000000000000000000000000000000000000000000000 DUP2 MSTORE PUSH1 0x4 ADD PUSH2 0xBB7 SWAP1 PUSH2 0x1B71 JUMP JUMPDEST PUSH1 0x40 MLOAD DUP1 SWAP2 SUB SWAP1 REVERT JUMPDEST DUP1 PUSH1 0x5 ADD PUSH1 0x1 SWAP1 SLOAD SWAP1 PUSH2 0x100 EXP SWAP1 DIV PUSH1 0xFF AND ISZERO PUSH2 0xC12 JUMPI PUSH1 0x40 MLOAD PUSH32 0x8C379A000000000000000000000000000000000000000000000000000000000 DUP2 MSTORE PUSH1 0x4 ADD PUSH2 0xC09 SWAP1 PUSH2 0x1BD9 JUMP JUMPDEST PUSH1 0x40 MLOAD DUP1 SWAP2 SUB SWAP1 REVERT JUMPDEST PUSH1 0x64 DUP2 PUSH1 0x4 ADD DUP2 SWAP1 SSTORE POP TIMESTAMP DUP2 PUSH1 0x3 ADD DUP2 SWAP1 SSTORE POP DUP2 PUSH32 0xFA682FEB3090180EDA377672BA020DAE237BD124AEE1085E233D47762B7E4E81 DUP3 PUSH1 0x4 ADD SLOAD PUSH1 0x40 MLOAD PUSH2 0xC59 SWAP2 SWAP1 PUSH2 0x1561 JUMP JUMPDEST PUSH1 0x40 MLOAD DUP1 SWAP2 SUB SWAP1 LOG2 PUSH2 0xC6A DUP3 PUSH2 0xC86 JUMP JUMPDEST POP POP JUMP JUMPDEST PUSH1 0x2 SLOAD DUP2 JUMP JUMPDEST PUSH1 0x2 DUP2 JUMP JUMPDEST PUSH7 0x38D7EA4C68000 DUP2 JUMP JUMPDEST JUMP JUMPDEST PUSH0 PUSH0 PUSH0 DUP4 DUP2 MSTORE PUSH1 0x20 ADD SWAP1 DUP2 MSTORE PUSH1 0x20 ADD PUSH0 KECCAK256 SWAP1 POP PUSH0 DUP2 PUSH1 0x1 ADD PUSH1 0x14 SWAP1 SLOAD SWAP1 PUSH2 0x100 EXP SWAP1 DIV PUSH1 0xFF AND SWAP1 POP DUP2 PUSH1 0x5 ADD PUSH0 SWAP1 SLOAD SWAP1 PUSH2 0x100 EXP SWAP1 DIV PUSH1 0xFF AND PUSH2 0xCFE JUMPI PUSH1 0x40 MLOAD PUSH32 0x8C379A000000000000000000000000000000000000000000000000000000000 DUP2 MSTORE PUSH1 0x4 ADD PUSH2 0xCF5 SWAP1 PUSH2 0x1B09 JUMP JUMPDEST PUSH1 0x40 MLOAD DUP1 SWAP2 SUB SWAP1 REVERT JUMPDEST PUSH2 0xD07 DUP4 PUSH2 0x12E5 JUMP JUMPDEST DUP2 PUSH1 0x5 ADD PUSH1 0x1 SWAP1 SLOAD SWAP1 PUSH2 0x100 EXP SWAP1 DIV PUSH1 0xFF AND ISZERO PUSH2 0xD25 JUMPI POP POP PUSH2 0xEA8 JUMP JUMPDEST PUSH0 DUP3 PUSH1 0x3 ADD SLOAD TIMESTAMP PUSH2 0xD36 SWAP2 SWAP1 PUSH2 0x19EE JUMP JUMPDEST SWAP1 POP PUSH1 0xF0 DUP2 LT PUSH2 0xD72 JUMPI PUSH1 0x3 DUP4 PUSH1 0x1 ADD PUSH1 0x14 PUSH2 0x100 EXP DUP2 SLOAD DUP2 PUSH1 0xFF MUL NOT AND SWAP1 DUP4 PUSH1 0x3 DUP2 GT ISZERO PUSH2 0xD68 JUMPI PUSH2 0xD67 PUSH2 0x1635 JUMP JUMPDEST JUMPDEST MUL OR SWAP1 SSTORE POP PUSH2 0xE1E JUMP JUMPDEST PUSH1 0xB4 DUP2 LT PUSH2 0xDAC JUMPI PUSH1 0x2 DUP4 PUSH1 0x1 ADD PUSH1 0x14 PUSH2 0x100 EXP DUP2 SLOAD DUP2 PUSH1 0xFF MUL NOT AND SWAP1 DUP4 PUSH1 0x3 DUP2 GT ISZERO PUSH2 0xDA2 JUMPI PUSH2 0xDA1 PUSH2 0x1635 JUMP JUMPDEST JUMPDEST MUL OR SWAP1 SSTORE POP PUSH2 0xE1D JUMP JUMPDEST PUSH1 0x78 DUP2 LT PUSH2 0xDE6 JUMPI PUSH1 0x1 DUP4 PUSH1 0x1 ADD PUSH1 0x14 PUSH2 0x100 EXP DUP2 SLOAD DUP2 PUSH1 0xFF MUL NOT AND SWAP1 DUP4 PUSH1 0x3 DUP2 GT ISZERO PUSH2 0xDDC JUMPI PUSH2 0xDDB PUSH2 0x1635 JUMP JUMPDEST JUMPDEST MUL OR SWAP1 SSTORE POP PUSH2 0xE1C JUMP JUMPDEST PUSH1 0x3C DUP2 LT PUSH2 0xE1B JUMPI PUSH0 DUP4 PUSH1 0x1 ADD PUSH1 0x14 PUSH2 0x100 EXP DUP2 SLOAD DUP2 PUSH1 0xFF MUL NOT AND SWAP1 DUP4 PUSH1 0x3 DUP2 GT ISZERO PUSH2 0xE15 JUMPI PUSH2 0xE14 PUSH2 0x1635 JUMP JUMPDEST JUMPDEST MUL OR SWAP1 SSTORE POP JUMPDEST JUMPDEST JUMPDEST JUMPDEST DUP2 PUSH1 0x3 DUP2 GT ISZERO PUSH2 0xE31 JUMPI PUSH2 0xE30 PUSH2 0x1635 JUMP JUMPDEST JUMPDEST DUP4 PUSH1 0x1 ADD PUSH1 0x14 SWAP1 SLOAD SWAP1 PUSH2 0x100 EXP SWAP1 DIV PUSH1 0xFF AND PUSH1 0x3 DUP2 GT ISZERO PUSH2 0xE55 JUMPI PUSH2 0xE54 PUSH2 0x1635 JUMP JUMPDEST JUMPDEST EQ PUSH2 0xEA4 JUMPI DUP4 PUSH32 0x338B8976706F9DA67298DDDFA1EA4FF7D99CCE68B9CA39C4F348994F8E2124A8 DUP5 PUSH1 0x1 ADD PUSH1 0x14 SWAP1 SLOAD SWAP1 PUSH2 0x100 EXP SWAP1 DIV PUSH1 0xFF AND PUSH1 0x40 MLOAD PUSH2 0xE9B SWAP2 SWAP1 PUSH2 0x1BF7 JUMP JUMPDEST PUSH1 0x40 MLOAD DUP1 SWAP2 SUB SWAP1 LOG2 JUMPDEST POP POP POP JUMPDEST POP JUMP JUMPDEST PUSH0 PUSH0 PUSH0 DUP4 DUP2 MSTORE PUSH1 0x20 ADD SWAP1 DUP2 MSTORE PUSH1 0x20 ADD PUSH0 KECCAK256 SWAP1 POP DUP1 PUSH1 0x5 ADD PUSH0 SWAP1 SLOAD SWAP1 PUSH2 0x100 EXP SWAP1 DIV PUSH1 0xFF AND PUSH2 0xF0E JUMPI PUSH1 0x40 MLOAD PUSH32 0x8C379A000000000000000000000000000000000000000000000000000000000 DUP2 MSTORE PUSH1 0x4 ADD PUSH2 0xF05 SWAP1 PUSH2 0x1B09 JUMP JUMPDEST PUSH1 0x40 MLOAD DUP1 SWAP2 SUB SWAP1 REVERT JUMPDEST DUP1 PUSH1 0x1 ADD PUSH0 SWAP1 SLOAD SWAP1 PUSH2 0x100 EXP SWAP1 DIV PUSH20 0xFFFFFFFFFFFFFFFFFFFFFFFFFFFFFFFFFFFFFFFF AND PUSH20 0xFFFFFFFFFFFFFFFFFFFFFFFFFFFFFFFFFFFFFFFF AND CALLER PUSH20 0xFFFFFFFFFFFFFFFFFFFFFFFFFFFFFFFFFFFFFFFF AND EQ PUSH2 0xF9F JUMPI PUSH1 0x40 MLOAD PUSH32 0x8C379A000000000000000000000000000000000000000000000000000000000 DUP2 MSTORE PUSH1 0x4 ADD PUSH2 0xF96 SWAP1 PUSH2 0x1B71 JUMP JUMPDEST PUSH1 0x40 MLOAD DUP1 SWAP2 SUB SWAP1 REVERT JUMPDEST DUP1 PUSH1 0x5 ADD PUSH1 0x1 SWAP1 SLOAD SWAP1 PUSH2 0x100 EXP SWAP1 DIV PUSH1 0xFF AND ISZERO PUSH2 0xFF1 JUMPI PUSH1 0x40 MLOAD PUSH32 0x8C379A000000000000000000000000000000000000000000000000000000000 DUP2 MSTORE PUSH1 0x4 ADD PUSH2 0xFE8 SWAP1 PUSH2 0x1BD9 JUMP JUMPDEST PUSH1 0x40 MLOAD DUP1 SWAP2 SUB SWAP1 REVERT JUMPDEST PUSH2 0xFFA DUP3 PUSH2 0xC86 JUMP JUMPDEST PUSH1 0x3 DUP1 DUP2 GT ISZERO PUSH2 0x100D JUMPI PUSH2 0x100C PUSH2 0x1635 JUMP JUMPDEST JUMPDEST DUP2 PUSH1 0x1 ADD PUSH1 0x14 SWAP1 SLOAD SWAP1 PUSH2 0x100 EXP SWAP1 DIV PUSH1 0xFF AND PUSH1 0x3 DUP2 GT ISZERO PUSH2 0x1031 JUMPI PUSH2 0x1030 PUSH2 0x1635 JUMP JUMPDEST JUMPDEST EQ PUSH2 0x1071 JUMPI PUSH1 0x40 MLOAD PUSH32 0x8C379A000000000000000000000000000000000000000000000000000000000 DUP2 MSTORE PUSH1 0x4 ADD PUSH2 0x1068 SWAP1 PUSH2 0x1C5A JUMP JUMPDEST PUSH1 0x40 MLOAD DUP1 SWAP2 SUB SWAP1 REVERT JUMPDEST PUSH0 DUP2 PUSH1 0x5 ADD PUSH0 PUSH2 0x100 EXP DUP2 SLOAD DUP2 PUSH1 0xFF MUL NOT AND SWAP1 DUP4 ISZERO ISZERO MUL OR SWAP1 SSTORE POP PUSH1 0x3 PUSH0 SWAP1 SLOAD SWAP1 PUSH2 0x100 EXP SWAP1 DIV PUSH20 0xFFFFFFFFFFFFFFFFFFFFFFFFFFFFFFFFFFFFFFFF AND PUSH20 0xFFFFFFFFFFFFFFFFFFFFFFFFFFFFFFFFFFFFFFFF AND DUP3 PUSH32 0x79F2138EA100070FF95B59C265DA7AA3C7A0F61595FE1BB2F5FDA2762F398847 PUSH7 0xAA87BEE538000 PUSH1 0x40 MLOAD PUSH2 0x10FB SWAP2 SWAP1 PUSH2 0x1561 JUMP JUMPDEST PUSH1 0x40 MLOAD DUP1 SWAP2 SUB SWAP1 LOG3 PUSH0 CALLER PUSH20 0xFFFFFFFFFFFFFFFFFFFFFFFFFFFFFFFFFFFFFFFF AND PUSH7 0xAA87BEE538000 PUSH1 0x40 MLOAD PUSH2 0x112F SWAP1 PUSH2 0x18FE JUMP JUMPDEST PUSH0 PUSH1 0x40 MLOAD DUP1 DUP4 SUB DUP2 DUP6 DUP8 GAS CALL SWAP3 POP POP POP RETURNDATASIZE DUP1 PUSH0 DUP2 EQ PUSH2 0x1169 JUMPI PUSH1 0x40 MLOAD SWAP2 POP PUSH1 0x1F NOT PUSH1 0x3F RETURNDATASIZE ADD AND DUP3 ADD PUSH1 0x40 MSTORE RETURNDATASIZE DUP3 MSTORE RETURNDATASIZE PUSH0 PUSH1 0x20 DUP5 ADD RETURNDATACOPY PUSH2 0x116E JUMP JUMPDEST PUSH1 0x60 SWAP2 POP JUMPDEST POP POP SWAP1 POP DUP1 PUSH2 0x11B2 JUMPI PUSH1 0x40 MLOAD PUSH32 0x8C379A000000000000000000000000000000000000000000000000000000000 DUP2 MSTORE PUSH1 0x4 ADD PUSH2 0x11A9 SWAP1 PUSH2 0x195C JUMP JUMPDEST PUSH1 0x40 MLOAD DUP1 SWAP2 SUB SWAP1 REVERT JUMPDEST POP POP POP JUMP JUMPDEST PUSH2 0x11BF PUSH2 0x1380 JUMP JUMPDEST PUSH0 PUSH0 PUSH0 DUP5 DUP2 MSTORE PUSH1 0x20 ADD SWAP1 DUP2 MSTORE PUSH1 0x20 ADD PUSH0 KECCAK256 PUSH1 0x40 MLOAD DUP1 PUSH2 0x100 ADD PUSH1 0x40 MSTORE SWAP1 DUP2 PUSH0 DUP3 ADD SLOAD DUP2 MSTORE PUSH1 0x20 ADD PUSH1 0x1 DUP3 ADD PUSH0 SWAP1 SLOAD SWAP1 PUSH2 0x100 EXP SWAP1 DIV PUSH20 0xFFFFFFFFFFFFFFFFFFFFFFFFFFFFFFFFFFFFFFFF AND PUSH20 0xFFFFFFFFFFFFFFFFFFFFFFFFFFFFFFFFFFFFFFFF AND PUSH20 0xFFFFFFFFFFFFFFFFFFFFFFFFFFFFFFFFFFFFFFFF AND DUP2 MSTORE PUSH1 0x20 ADD PUSH1 0x1 DUP3 ADD PUSH1 0x14 SWAP1 SLOAD SWAP1 PUSH2 0x100 EXP SWAP1 DIV PUSH1 0xFF AND PUSH1 0x3 DUP2 GT ISZERO PUSH2 0x125F JUMPI PUSH2 0x125E PUSH2 0x1635 JUMP JUMPDEST JUMPDEST PUSH1 0x3 DUP2 GT ISZERO PUSH2 0x1271 JUMPI PUSH2 0x1270 PUSH2 0x1635 JUMP JUMPDEST JUMPDEST DUP2 MSTORE PUSH1 0x20 ADD PUSH1 0x2 DUP3 ADD SLOAD DUP2 MSTORE PUSH1 0x20 ADD PUSH1 0x3 DUP3 ADD SLOAD DUP2 MSTORE PUSH1 0x20 ADD PUSH1 0x4 DUP3 ADD SLOAD DUP2 MSTORE PUSH1 0x20 ADD PUSH1 0x5 DUP3 ADD PUSH0 SWAP1 SLOAD SWAP1 PUSH2 0x100 EXP SWAP1 DIV PUSH1 0xFF AND ISZERO ISZERO ISZERO ISZERO DUP2 MSTORE PUSH1 0x20 ADD PUSH1 0x5 DUP3 ADD PUSH1 0x1 SWAP1 SLOAD SWAP1 PUSH2 0x100 EXP SWAP1 DIV PUSH1 0xFF AND ISZERO ISZERO ISZERO ISZERO DUP2 MSTORE POP POP SWAP1 POP PUSH2 0x12D3 DUP4 PUSH2 0x84F JUMP JUMPDEST DUP2 PUSH1 0xA0 ADD DUP2 DUP2 MSTORE POP POP DUP1 SWAP2 POP POP SWAP2 SWAP1 POP JUMP JUMPDEST PUSH0 PUSH0 PUSH0 DUP4 DUP2 MSTORE PUSH1 0x20 ADD SWAP1 DUP2 MSTORE PUSH1 0x20 ADD PUSH0 KECCAK256 SWAP1 POP PUSH0 PUSH2 0x1302 DUP4 PUSH2 0x84F JUMP JUMPDEST SWAP1 POP DUP1 DUP3 PUSH1 0x4 ADD DUP2 SWAP1 SSTORE POP PUSH0 DUP2 EQ DUP1 ISZERO PUSH2 0x132B JUMPI POP DUP2 PUSH1 0x5 ADD PUSH1 0x1 SWAP1 SLOAD SWAP1 PUSH2 0x100 EXP SWAP1 DIV PUSH1 0xFF AND ISZERO JUMPDEST ISZERO PUSH2 0x137B JUMPI PUSH1 0x1 DUP3 PUSH1 0x5 ADD PUSH1 0x1 PUSH2 0x100 EXP DUP2 SLOAD DUP2 PUSH1 0xFF MUL NOT AND SWAP1 DUP4 ISZERO ISZERO MUL OR SWAP1 SSTORE POP DUP3 PUSH32 0xCC296A21951F3E57F21AFB08547D835A0A9F0F06CC2867009CBE0CAE44D36BE9 PUSH1 0x40 MLOAD PUSH1 0x40 MLOAD DUP1 SWAP2 SUB SWAP1 LOG2 JUMPDEST POP POP POP JUMP JUMPDEST PUSH1 0x40 MLOAD DUP1 PUSH2 0x100 ADD PUSH1 0x40 MSTORE DUP1 PUSH0 DUP2 MSTORE PUSH1 0x20 ADD PUSH0 PUSH20 0xFFFFFFFFFFFFFFFFFFFFFFFFFFFFFFFFFFFFFFFF AND DUP2 MSTORE PUSH1 0x20 ADD PUSH0 PUSH1 0x3 DUP2 GT ISZERO PUSH2 0x13C1 JUMPI PUSH2 0x13C0 PUSH2 0x1635 JUMP JUMPDEST JUMPDEST DUP2 MSTORE PUSH1 0x20 ADD PUSH0 DUP2 MSTORE PUSH1 0x20 ADD PUSH0 DUP2 MSTORE PUSH1 0x20 ADD PUSH0 DUP2 MSTORE PUSH1 0x20 ADD PUSH0 ISZERO ISZERO DUP2 MSTORE PUSH1 0x20 ADD PUSH0 ISZERO ISZERO DUP2 MSTORE POP SWAP1 JUMP JUMPDEST PUSH0 PUSH0 REVERT JUMPDEST PUSH0 PUSH20 0xFFFFFFFFFFFFFFFFFFFFFFFFFFFFFFFFFFFFFFFF DUP3 AND SWAP1 POP SWAP2 SWAP1 POP JUMP JUMPDEST PUSH0 PUSH2 0x1416 DUP3 PUSH2 0x13ED JUMP JUMPDEST SWAP1 POP SWAP2 SWAP1 POP JUMP JUMPDEST PUSH2 0x1426 DUP2 PUSH2 0x140C JUMP JUMPDEST DUP2 EQ PUSH2 0x1430 JUMPI PUSH0 PUSH0 REVERT JUMPDEST POP JUMP JUMPDEST PUSH0 DUP2 CALLDATALOAD SWAP1 POP PUSH2 0x1441 DUP2 PUSH2 0x141D JUMP JUMPDEST SWAP3 SWAP2 POP POP JUMP JUMPDEST PUSH0 PUSH1 0x20 DUP3 DUP5 SUB SLT ISZERO PUSH2 0x145C JUMPI PUSH2 0x145B PUSH2 0x13E9 JUMP JUMPDEST JUMPDEST PUSH0 PUSH2 0x1469 DUP5 DUP3 DUP6 ADD PUSH2 0x1433 JUMP JUMPDEST SWAP2 POP POP SWAP3 SWAP2 POP POP JUMP JUMPDEST PUSH0 DUP2 MLOAD SWAP1 POP SWAP2 SWAP1 POP JUMP JUMPDEST PUSH0 DUP3 DUP3 MSTORE PUSH1 0x20 DUP3 ADD SWAP1 POP SWAP3 SWAP2 POP POP JUMP JUMPDEST PUSH0 DUP2 SWAP1 POP PUSH1 0x20 DUP3 ADD SWAP1 POP SWAP2 SWAP1 POP JUMP JUMPDEST PUSH0 DUP2 SWAP1 POP SWAP2 SWAP1 POP JUMP JUMPDEST PUSH2 0x14AD DUP2 PUSH2 0x149B JUMP JUMPDEST DUP3 MSTORE POP POP JUMP JUMPDEST PUSH0 PUSH2 0x14BE DUP4 DUP4 PUSH2 0x14A4 JUMP JUMPDEST PUSH1 0x20 DUP4 ADD SWAP1 POP SWAP3 SWAP2 POP POP JUMP JUMPDEST PUSH0 PUSH1 0x20 DUP3 ADD SWAP1 POP SWAP2 SWAP1 POP JUMP JUMPDEST PUSH0 PUSH2 0x14E0 DUP3 PUSH2 0x1472 JUMP JUMPDEST PUSH2 0x14EA DUP2 DUP6 PUSH2 0x147C JUMP JUMPDEST SWAP4 POP PUSH2 0x14F5 DUP4 PUSH2 0x148C JUMP JUMPDEST DUP1 PUSH0 JUMPDEST DUP4 DUP2 LT ISZERO PUSH2 0x1525 JUMPI DUP2 MLOAD PUSH2 0x150C DUP9 DUP3 PUSH2 0x14B3 JUMP JUMPDEST SWAP8 POP PUSH2 0x1517 DUP4 PUSH2 0x14CA JUMP JUMPDEST SWAP3 POP POP PUSH1 0x1 DUP2 ADD SWAP1 POP PUSH2 0x14F8 JUMP JUMPDEST POP DUP6 SWAP4 POP POP POP POP SWAP3 SWAP2 POP POP JUMP JUMPDEST PUSH0 PUSH1 0x20 DUP3 ADD SWAP1 POP DUP2 DUP2 SUB PUSH0 DUP4 ADD MSTORE PUSH2 0x154A DUP2 DUP5 PUSH2 0x14D6 JUMP JUMPDEST SWAP1 POP SWAP3 SWAP2 POP POP JUMP JUMPDEST PUSH2 0x155B DUP2 PUSH2 0x149B JUMP JUMPDEST DUP3 MSTORE POP POP JUMP JUMPDEST PUSH0 PUSH1 0x20 DUP3 ADD SWAP1 POP PUSH2 0x1574 PUSH0 DUP4 ADD DUP5 PUSH2 0x1552 JUMP JUMPDEST SWAP3 SWAP2 POP POP JUMP JUMPDEST PUSH2 0x1583 DUP2 PUSH2 0x149B JUMP JUMPDEST DUP2 EQ PUSH2 0x158D JUMPI PUSH0 PUSH0 REVERT JUMPDEST POP JUMP JUMPDEST PUSH0 DUP2 CALLDATALOAD SWAP1 POP PUSH2 0x159E DUP2 PUSH2 0x157A JUMP JUMPDEST SWAP3 SWAP2 POP POP JUMP JUMPDEST PUSH0 PUSH1 0x20 DUP3 DUP5 SUB SLT ISZERO PUSH2 0x15B9 JUMPI PUSH2 0x15B8 PUSH2 0x13E9 JUMP JUMPDEST JUMPDEST PUSH0 PUSH2 0x15C6 DUP5 DUP3 DUP6 ADD PUSH2 0x1590 JUMP JUMPDEST SWAP2 POP POP SWAP3 SWAP2 POP POP JUMP JUMPDEST PUSH0 PUSH0 PUSH1 0x40 DUP4 DUP6 SUB SLT ISZERO PUSH2 0x15E5 JUMPI PUSH2 0x15E4 PUSH2 0x13E9 JUMP JUMPDEST JUMPDEST PUSH0 PUSH2 0x15F2 DUP6 DUP3 DUP7 ADD PUSH2 0x1433 JUMP JUMPDEST SWAP3 POP POP PUSH1 0x20 PUSH2 0x1603 DUP6 DUP3 DUP7 ADD PUSH2 0x1590 JUMP JUMPDEST SWAP2 POP POP SWAP3 POP SWAP3 SWAP1 POP JUMP JUMPDEST PUSH2 0x1616 DUP2 PUSH2 0x140C JUMP JUMPDEST DUP3 MSTORE POP POP JUMP JUMPDEST PUSH0 PUSH1 0x20 DUP3 ADD SWAP1 POP PUSH2 0x162F PUSH0 DUP4 ADD DUP5 PUSH2 0x160D JUMP JUMPDEST SWAP3 SWAP2 POP POP JUMP JUMPDEST PUSH32 0x4E487B7100000000000000000000000000000000000000000000000000000000 PUSH0 MSTORE PUSH1 0x21 PUSH1 0x4 MSTORE PUSH1 0x24 PUSH0 REVERT JUMPDEST PUSH1 0x4 DUP2 LT PUSH2 0x1673 JUMPI PUSH2 0x1672 PUSH2 0x1635 JUMP JUMPDEST JUMPDEST POP JUMP JUMPDEST PUSH0 DUP2 SWAP1 POP PUSH2 0x1683 DUP3 PUSH2 0x1662 JUMP JUMPDEST SWAP2 SWAP1 POP JUMP JUMPDEST PUSH0 PUSH2 0x1692 DUP3 PUSH2 0x1676 JUMP JUMPDEST SWAP1 POP SWAP2 SWAP1 POP JUMP JUMPDEST PUSH2 0x16A2 DUP2 PUSH2 0x1688 JUMP JUMPDEST DUP3 MSTORE POP POP JUMP JUMPDEST PUSH0 DUP2 ISZERO ISZERO SWAP1 POP SWAP2 SWAP1 POP JUMP JUMPDEST PUSH2 0x16BC DUP2 PUSH2 0x16A8 JUMP JUMPDEST DUP3 MSTORE POP POP JUMP JUMPDEST PUSH0 PUSH2 0x100 DUP3 ADD SWAP1 POP PUSH2 0x16D6 PUSH0 DUP4 ADD DUP12 PUSH2 0x1552 JUMP JUMPDEST PUSH2 0x16E3 PUSH1 0x20 DUP4 ADD DUP11 PUSH2 0x160D JUMP JUMPDEST PUSH2 0x16F0 PUSH1 0x40 DUP4 ADD DUP10 PUSH2 0x1699 JUMP JUMPDEST PUSH2 0x16FD PUSH1 0x60 DUP4 ADD DUP9 PUSH2 0x1552 JUMP JUMPDEST PUSH2 0x170A PUSH1 0x80 DUP4 ADD DUP8 PUSH2 0x1552 JUMP JUMPDEST PUSH2 0x1717 PUSH1 0xA0 DUP4 ADD DUP7 PUSH2 0x1552 JUMP JUMPDEST PUSH2 0x1724 PUSH1 0xC0 DUP4 ADD DUP6 PUSH2 0x16B3 JUMP JUMPDEST PUSH2 0x1731 PUSH1 0xE0 DUP4 ADD DUP5 PUSH2 0x16B3 JUMP JUMPDEST SWAP10 SWAP9 POP POP POP POP POP POP POP POP POP JUMP JUMPDEST PUSH0 PUSH1 0xFF DUP3 AND SWAP1 POP SWAP2 SWAP1 POP JUMP JUMPDEST PUSH2 0x1753 DUP2 PUSH2 0x173E JUMP JUMPDEST DUP3 MSTORE POP POP JUMP JUMPDEST PUSH0 PUSH1 0x20 DUP3 ADD SWAP1 POP PUSH2 0x176C PUSH0 DUP4 ADD DUP5 PUSH2 0x174A JUMP JUMPDEST SWAP3 SWAP2 POP POP JUMP JUMPDEST PUSH2 0x177B DUP2 PUSH2 0x140C JUMP JUMPDEST DUP3 MSTORE POP POP JUMP JUMPDEST PUSH2 0x178A DUP2 PUSH2 0x1688 JUMP JUMPDEST DUP3 MSTORE POP POP JUMP JUMPDEST PUSH2 0x1799 DUP2 PUSH2 0x16A8 JUMP JUMPDEST DUP3 MSTORE POP POP JUMP JUMPDEST PUSH2 0x100 DUP3 ADD PUSH0 DUP3 ADD MLOAD PUSH2 0x17B4 PUSH0 DUP6 ADD DUP3 PUSH2 0x14A4 JUMP JUMPDEST POP PUSH1 0x20 DUP3 ADD MLOAD PUSH2 0x17C7 PUSH1 0x20 DUP6 ADD DUP3 PUSH2 0x1772 JUMP JUMPDEST POP PUSH1 0x40 DUP3 ADD MLOAD PUSH2 0x17DA PUSH1 0x40 DUP6 ADD DUP3 PUSH2 0x1781 JUMP JUMPDEST POP PUSH1 0x60 DUP3 ADD MLOAD PUSH2 0x17ED PUSH1 0x60 DUP6 ADD DUP3 PUSH2 0x14A4 JUMP JUMPDEST POP PUSH1 0x80 DUP3 ADD MLOAD PUSH2 0x1800 PUSH1 0x80 DUP6 ADD DUP3 PUSH2 0x14A4 JUMP JUMPDEST POP PUSH1 0xA0 DUP3 ADD MLOAD PUSH2 0x1813 PUSH1 0xA0 DUP6 ADD DUP3 PUSH2 0x14A4 JUMP JUMPDEST POP PUSH1 0xC0 DUP3 ADD MLOAD PUSH2 0x1826 PUSH1 0xC0 DUP6 ADD DUP3 PUSH2 0x1790 JUMP JUMPDEST POP PUSH1 0xE0 DUP3 ADD MLOAD PUSH2 0x1839 PUSH1 0xE0 DUP6 ADD DUP3 PUSH2 0x1790 JUMP JUMPDEST POP POP POP POP JUMP JUMPDEST PUSH0 PUSH2 0x100 DUP3 ADD SWAP1 POP PUSH2 0x1853 PUSH0 DUP4 ADD DUP5 PUSH2 0x179F JUMP JUMPDEST SWAP3 SWAP2 POP POP JUMP JUMPDEST PUSH0 DUP3 DUP3 MSTORE PUSH1 0x20 DUP3 ADD SWAP1 POP SWAP3 SWAP2 POP POP JUMP JUMPDEST PUSH32 0x42756B616E206F776E6572000000000000000000000000000000000000000000 PUSH0 DUP3 ADD MSTORE POP JUMP JUMPDEST PUSH0 PUSH2 0x189D PUSH1 0xB DUP4 PUSH2 0x1859 JUMP JUMPDEST SWAP2 POP PUSH2 0x18A8 DUP3 PUSH2 0x1869 JUMP JUMPDEST PUSH1 0x20 DUP3 ADD SWAP1 POP SWAP2 SWAP1 POP JUMP JUMPDEST PUSH0 PUSH1 0x20 DUP3 ADD SWAP1 POP DUP2 DUP2 SUB PUSH0 DUP4 ADD MSTORE PUSH2 0x18CA DUP2 PUSH2 0x1891 JUMP JUMPDEST SWAP1 POP SWAP2 SWAP1 POP JUMP JUMPDEST PUSH0 DUP2 SWAP1 POP SWAP3 SWAP2 POP POP JUMP JUMPDEST POP JUMP JUMPDEST PUSH0 PUSH2 0x18E9 PUSH0 DUP4 PUSH2 0x18D1 JUMP JUMPDEST SWAP2 POP PUSH2 0x18F4 DUP3 PUSH2 0x18DB JUMP JUMPDEST PUSH0 DUP3 ADD SWAP1 POP SWAP2 SWAP1 POP JUMP JUMPDEST PUSH0 PUSH2 0x1908 DUP3 PUSH2 0x18DE JUMP JUMPDEST SWAP2 POP DUP2 SWAP1 POP SWAP2 SWAP1 POP JUMP JUMPDEST PUSH32 0x5472616E7366657220676167616C000000000000000000000000000000000000 PUSH0 DUP3 ADD MSTORE POP JUMP JUMPDEST PUSH0 PUSH2 0x1946 PUSH1 0xE DUP4 PUSH2 0x1859 JUMP JUMPDEST SWAP2 POP PUSH2 0x1951 DUP3 PUSH2 0x1912 JUMP JUMPDEST PUSH1 0x20 DUP3 ADD SWAP1 POP SWAP2 SWAP1 POP JUMP JUMPDEST PUSH0 PUSH1 0x20 DUP3 ADD SWAP1 POP DUP2 DUP2 SUB PUSH0 DUP4 ADD MSTORE PUSH2 0x1973 DUP2 PUSH2 0x193A JUMP JUMPDEST SWAP1 POP SWAP2 SWAP1 POP JUMP JUMPDEST PUSH32 0x4E487B7100000000000000000000000000000000000000000000000000000000 PUSH0 MSTORE PUSH1 0x11 PUSH1 0x4 MSTORE PUSH1 0x24 PUSH0 REVERT JUMPDEST PUSH0 PUSH2 0x19B1 DUP3 PUSH2 0x149B JUMP JUMPDEST SWAP2 POP PUSH32 0xFFFFFFFFFFFFFFFFFFFFFFFFFFFFFFFFFFFFFFFFFFFFFFFFFFFFFFFFFFFFFFFF DUP3 SUB PUSH2 0x19E3 JUMPI PUSH2 0x19E2 PUSH2 0x197A JUMP JUMPDEST JUMPDEST PUSH1 0x1 DUP3 ADD SWAP1 POP SWAP2 SWAP1 POP JUMP JUMPDEST PUSH0 PUSH2 0x19F8 DUP3 PUSH2 0x149B JUMP JUMPDEST SWAP2 POP PUSH2 0x1A03 DUP4 PUSH2 0x149B JUMP JUMPDEST SWAP3 POP DUP3 DUP3 SUB SWAP1 POP DUP2 DUP2 GT ISZERO PUSH2 0x1A1B JUMPI PUSH2 0x1A1A PUSH2 0x197A JUMP JUMPDEST JUMPDEST SWAP3 SWAP2 POP POP JUMP JUMPDEST PUSH32 0x4E487B7100000000000000000000000000000000000000000000000000000000 PUSH0 MSTORE PUSH1 0x12 PUSH1 0x4 MSTORE PUSH1 0x24 PUSH0 REVERT JUMPDEST PUSH0 PUSH2 0x1A58 DUP3 PUSH2 0x149B JUMP JUMPDEST SWAP2 POP PUSH2 0x1A63 DUP4 PUSH2 0x149B JUMP JUMPDEST SWAP3 POP DUP3 PUSH2 0x1A73 JUMPI PUSH2 0x1A72 PUSH2 0x1A21 JUMP JUMPDEST JUMPDEST DUP3 DUP3 DIV SWAP1 POP SWAP3 SWAP2 POP POP JUMP JUMPDEST PUSH0 PUSH2 0x1A88 DUP3 PUSH2 0x149B JUMP JUMPDEST SWAP2 POP PUSH2 0x1A93 DUP4 PUSH2 0x149B JUMP JUMPDEST SWAP3 POP DUP3 DUP3 MUL PUSH2 0x1AA1 DUP2 PUSH2 0x149B JUMP JUMPDEST SWAP2 POP DUP3 DUP3 DIV DUP5 EQ DUP4 ISZERO OR PUSH2 0x1AB8 JUMPI PUSH2 0x1AB7 PUSH2 0x197A JUMP JUMPDEST JUMPDEST POP SWAP3 SWAP2 POP POP JUMP JUMPDEST PUSH32 0x54686520506C616E7420646F65736E7420657869737400000000000000000000 PUSH0 DUP3 ADD MSTORE POP JUMP JUMPDEST PUSH0 PUSH2 0x1AF3 PUSH1 0x16 DUP4 PUSH2 0x1859 JUMP JUMPDEST SWAP2 POP PUSH2 0x1AFE DUP3 PUSH2 0x1ABF JUMP JUMPDEST PUSH1 0x20 DUP3 ADD SWAP1 POP SWAP2 SWAP1 POP JUMP JUMPDEST PUSH0 PUSH1 0x20 DUP3 ADD SWAP1 POP DUP2 DUP2 SUB PUSH0 DUP4 ADD MSTORE PUSH2 0x1B20 DUP2 PUSH2 0x1AE7 JUMP JUMPDEST SWAP1 POP SWAP2 SWAP1 POP JUMP JUMPDEST PUSH32 0x5468697320706C616E74206E6F7420796F757273000000000000000000000000 PUSH0 DUP3 ADD MSTORE POP JUMP JUMPDEST PUSH0 PUSH2 0x1B5B PUSH1 0x14 DUP4 PUSH2 0x1859 JUMP JUMPDEST SWAP2 POP PUSH2 0x1B66 DUP3 PUSH2 0x1B27 JUMP JUMPDEST PUSH1 0x20 DUP3 ADD SWAP1 POP SWAP2 SWAP1 POP JUMP JUMPDEST PUSH0 PUSH1 0x20 DUP3 ADD SWAP1 POP DUP2 DUP2 SUB PUSH0 DUP4 ADD MSTORE PUSH2 0x1B88 DUP2 PUSH2 0x1B4F JUMP JUMPDEST SWAP1 POP SWAP2 SWAP1 POP JUMP JUMPDEST PUSH32 0x54686520506C616E742069732064656164000000000000000000000000000000 PUSH0 DUP3 ADD MSTORE POP JUMP JUMPDEST PUSH0 PUSH2 0x1BC3 PUSH1 0x11 DUP4 PUSH2 0x1859 JUMP JUMPDEST SWAP2 POP PUSH2 0x1BCE DUP3 PUSH2 0x1B8F JUMP JUMPDEST PUSH1 0x20 DUP3 ADD SWAP1 POP SWAP2 SWAP1 POP JUMP JUMPDEST PUSH0 PUSH1 0x20 DUP3 ADD SWAP1 POP DUP2 DUP2 SUB PUSH0 DUP4 ADD MSTORE PUSH2 0x1BF0 DUP2 PUSH2 0x1BB7 JUMP JUMPDEST SWAP1 POP SWAP2 SWAP1 POP JUMP JUMPDEST PUSH0 PUSH1 0x20 DUP3 ADD SWAP1 POP PUSH2 0x1C0A PUSH0 DUP4 ADD DUP5 PUSH2 0x1699 JUMP JUMPDEST SWAP3 SWAP2 POP POP JUMP JUMPDEST PUSH32 0x54686520737461676520646F65736E74206D6163746800000000000000000000 PUSH0 DUP3 ADD MSTORE POP JUMP JUMPDEST PUSH0 PUSH2 0x1C44 PUSH1 0x16 DUP4 PUSH2 0x1859 JUMP JUMPDEST SWAP2 POP PUSH2 0x1C4F DUP3 PUSH2 0x1C10 JUMP JUMPDEST PUSH1 0x20 DUP3 ADD SWAP1 POP SWAP2 SWAP1 POP JUMP JUMPDEST PUSH0 PUSH1 0x20 DUP3 ADD SWAP1 POP DUP2 DUP2 SUB PUSH0 DUP4 ADD MSTORE PUSH2 0x1C71 DUP2 PUSH2 0x1C38 JUMP JUMPDEST SWAP1 POP SWAP2 SWAP1 POP JUMP INVALID LOG2 PUSH5 0x6970667358 0x22 SLT KECCAK256 TIMESTAMP 0xD9 PUSH6 0xED080DA669C6 EXTSTATICCALL 0xBB RETF 0xF6 0x2B 0x1F CALL 0x2F 0xC2 PUSH30 0x75D6D228114A0E4895F50126C564736F6C634300081E0033000000000000 "
				},
				"gasEstimates": {
					"creation": {
						"codeDepositCost": "1468400",
						"executionCost": "30810",
						"totalCost": "1499210"
					},
					"external": {
						"HARVEST_REWARD()": "392",
						"PLANT_PRICE()": "347",
						"STAGE_DURATION()": "393",
						"WATER_DEPLETION_RATE()": "420",
						"WATER_DEPLETION_TIME()": "370",
						"calculateWaterLevel(uint256)": "infinite",
						"deposit()": "163",
						"getPlant(uint256)": "infinite",
						"getUserPlants(address)": "infinite",
						"harvestPlant(uint256)": "infinite",
						"owner()": "2619",
						"plantCounter()": "2492",
						"plantSeed()": "infinite",
						"plants(uint256)": "infinite",
						"updatePlantStage(uint256)": "infinite",
						"userPlants(address,uint256)": "infinite",
						"waterPlant(uint256)": "infinite",
						"withdraw()": "infinite"
					},
					"internal": {
						"updateWaterLevel(uint256)": "infinite"
					}
				},
				"methodIdentifiers": {
					"HARVEST_REWARD()": "891c0785",
					"PLANT_PRICE()": "cfc9a5f8",
					"STAGE_DURATION()": "51f9efde",
					"WATER_DEPLETION_RATE()": "bacb5ebd",
					"WATER_DEPLETION_TIME()": "7ed4c5be",
					"calculateWaterLevel(uint256)": "754e150d",
					"deposit()": "d0e30db0",
					"getPlant(uint256)": "ed0b1f5f",
					"getUserPlants(address)": "30cec0eb",
					"harvestPlant(uint256)": "e38f8448",
					"owner()": "8da5cb5b",
					"plantCounter()": "9c471749",
					"plantSeed()": "74119a38",
					"plants(uint256)": "8dd2361c",
					"updatePlantStage(uint256)": "ddd42596",
					"userPlants(address,uint256)": "8aee578b",
					"waterPlant(uint256)": "9886bcfa",
					"withdraw()": "3ccfd60b"
				}
			},
			"storageLayout": {
				"storage": [
					{
						"astId": 29,
						"contract": "contracts/LiskGarden.sol:LiskGarden",
						"label": "plants",
						"offset": 0,
						"slot": "0",
						"type": "t_mapping(t_uint256,t_struct(Plant)24_storage)"
					},
					{
						"astId": 34,
						"contract": "contracts/LiskGarden.sol:LiskGarden",
						"label": "userPlants",
						"offset": 0,
						"slot": "1",
						"type": "t_mapping(t_address,t_array(t_uint256)dyn_storage)"
					},
					{
						"astId": 36,
						"contract": "contracts/LiskGarden.sol:LiskGarden",
						"label": "plantCounter",
						"offset": 0,
						"slot": "2",
						"type": "t_uint256"
					},
					{
						"astId": 38,
						"contract": "contracts/LiskGarden.sol:LiskGarden",
						"label": "owner",
						"offset": 0,
						"slot": "3",
						"type": "t_address"
					}
				],
				"types": {
					"t_address": {
						"encoding": "inplace",
						"label": "address",
						"numberOfBytes": "20"
					},
					"t_array(t_uint256)dyn_storage": {
						"base": "t_uint256",
						"encoding": "dynamic_array",
						"label": "uint256[]",
						"numberOfBytes": "32"
					},
					"t_bool": {
						"encoding": "inplace",
						"label": "bool",
						"numberOfBytes": "1"
					},
					"t_enum(GrowthStage)6": {
						"encoding": "inplace",
						"label": "enum LiskGarden.GrowthStage",
						"numberOfBytes": "1"
					},
					"t_mapping(t_address,t_array(t_uint256)dyn_storage)": {
						"encoding": "mapping",
						"key": "t_address",
						"label": "mapping(address => uint256[])",
						"numberOfBytes": "32",
						"value": "t_array(t_uint256)dyn_storage"
					},
					"t_mapping(t_uint256,t_struct(Plant)24_storage)": {
						"encoding": "mapping",
						"key": "t_uint256",
						"label": "mapping(uint256 => struct LiskGarden.Plant)",
						"numberOfBytes": "32",
						"value": "t_struct(Plant)24_storage"
					},
					"t_struct(Plant)24_storage": {
						"encoding": "inplace",
						"label": "struct LiskGarden.Plant",
						"members": [
							{
								"astId": 8,
								"contract": "contracts/LiskGarden.sol:LiskGarden",
								"label": "id",
								"offset": 0,
								"slot": "0",
								"type": "t_uint256"
							},
							{
								"astId": 10,
								"contract": "contracts/LiskGarden.sol:LiskGarden",
								"label": "owner",
								"offset": 0,
								"slot": "1",
								"type": "t_address"
							},
							{
								"astId": 13,
								"contract": "contracts/LiskGarden.sol:LiskGarden",
								"label": "stage",
								"offset": 20,
								"slot": "1",
								"type": "t_enum(GrowthStage)6"
							},
							{
								"astId": 15,
								"contract": "contracts/LiskGarden.sol:LiskGarden",
								"label": "plantedDate",
								"offset": 0,
								"slot": "2",
								"type": "t_uint256"
							},
							{
								"astId": 17,
								"contract": "contracts/LiskGarden.sol:LiskGarden",
								"label": "lastWatered",
								"offset": 0,
								"slot": "3",
								"type": "t_uint256"
							},
							{
								"astId": 19,
								"contract": "contracts/LiskGarden.sol:LiskGarden",
								"label": "waterLevel",
								"offset": 0,
								"slot": "4",
								"type": "t_uint256"
							},
							{
								"astId": 21,
								"contract": "contracts/LiskGarden.sol:LiskGarden",
								"label": "exists",
								"offset": 0,
								"slot": "5",
								"type": "t_bool"
							},
							{
								"astId": 23,
								"contract": "contracts/LiskGarden.sol:LiskGarden",
								"label": "isDead",
								"offset": 1,
								"slot": "5",
								"type": "t_bool"
							}
						],
						"numberOfBytes": "192"
					},
					"t_uint256": {
						"encoding": "inplace",
						"label": "uint256",
						"numberOfBytes": "32"
					}
				}
			},
			"userdoc": {
				"kind": "user",
				"methods": {},
				"version": 1
			}
		}
	}
}